{
  "contractName": "Blacksmith",
  "abi": [
    {
      "anonymous": false,
      "inputs": [
        {
          "indexed": true,
          "internalType": "bytes32",
          "name": "role",
          "type": "bytes32"
        },
        {
          "indexed": true,
          "internalType": "bytes32",
          "name": "previousAdminRole",
          "type": "bytes32"
        },
        {
          "indexed": true,
          "internalType": "bytes32",
          "name": "newAdminRole",
          "type": "bytes32"
        }
      ],
      "name": "RoleAdminChanged",
      "type": "event"
    },
    {
      "anonymous": false,
      "inputs": [
        {
          "indexed": true,
          "internalType": "bytes32",
          "name": "role",
          "type": "bytes32"
        },
        {
          "indexed": true,
          "internalType": "address",
          "name": "account",
          "type": "address"
        },
        {
          "indexed": true,
          "internalType": "address",
          "name": "sender",
          "type": "address"
        }
      ],
      "name": "RoleGranted",
      "type": "event"
    },
    {
      "anonymous": false,
      "inputs": [
        {
          "indexed": true,
          "internalType": "bytes32",
          "name": "role",
          "type": "bytes32"
        },
        {
          "indexed": true,
          "internalType": "address",
          "name": "account",
          "type": "address"
        },
        {
          "indexed": true,
          "internalType": "address",
          "name": "sender",
          "type": "address"
        }
      ],
      "name": "RoleRevoked",
      "type": "event"
    },
    {
      "inputs": [],
      "name": "DEFAULT_ADMIN_ROLE",
      "outputs": [
        {
          "internalType": "bytes32",
          "name": "",
          "type": "bytes32"
        }
      ],
      "stateMutability": "view",
      "type": "function"
    },
    {
      "inputs": [],
      "name": "GAME",
      "outputs": [
        {
          "internalType": "bytes32",
          "name": "",
          "type": "bytes32"
        }
      ],
      "stateMutability": "view",
      "type": "function"
    },
    {
      "inputs": [],
      "name": "SHIELD_SKILL_FEE",
      "outputs": [
        {
          "internalType": "uint256",
          "name": "",
          "type": "uint256"
        }
      ],
      "stateMutability": "view",
      "type": "function"
    },
    {
      "inputs": [],
      "name": "game",
      "outputs": [
        {
          "internalType": "contract CryptoBlades",
          "name": "",
          "type": "address"
        }
      ],
      "stateMutability": "view",
      "type": "function"
    },
    {
      "inputs": [
        {
          "internalType": "bytes32",
          "name": "role",
          "type": "bytes32"
        }
      ],
      "name": "getRoleAdmin",
      "outputs": [
        {
          "internalType": "bytes32",
          "name": "",
          "type": "bytes32"
        }
      ],
      "stateMutability": "view",
      "type": "function"
    },
    {
      "inputs": [
        {
          "internalType": "bytes32",
          "name": "role",
          "type": "bytes32"
        },
        {
          "internalType": "uint256",
          "name": "index",
          "type": "uint256"
        }
      ],
      "name": "getRoleMember",
      "outputs": [
        {
          "internalType": "address",
          "name": "",
          "type": "address"
        }
      ],
      "stateMutability": "view",
      "type": "function"
    },
    {
      "inputs": [
        {
          "internalType": "bytes32",
          "name": "role",
          "type": "bytes32"
        }
      ],
      "name": "getRoleMemberCount",
      "outputs": [
        {
          "internalType": "uint256",
          "name": "",
          "type": "uint256"
        }
      ],
      "stateMutability": "view",
      "type": "function"
    },
    {
      "inputs": [
        {
          "internalType": "bytes32",
          "name": "role",
          "type": "bytes32"
        },
        {
          "internalType": "address",
          "name": "account",
          "type": "address"
        }
      ],
      "name": "grantRole",
      "outputs": [],
      "stateMutability": "nonpayable",
      "type": "function"
    },
    {
      "inputs": [
        {
          "internalType": "bytes32",
          "name": "role",
          "type": "bytes32"
        },
        {
          "internalType": "address",
          "name": "account",
          "type": "address"
        }
      ],
      "name": "hasRole",
      "outputs": [
        {
          "internalType": "bool",
          "name": "",
          "type": "bool"
        }
      ],
      "stateMutability": "view",
      "type": "function"
    },
    {
      "inputs": [],
      "name": "randoms",
      "outputs": [
        {
          "internalType": "contract IRandoms",
          "name": "",
          "type": "address"
        }
      ],
      "stateMutability": "view",
      "type": "function"
    },
    {
      "inputs": [
        {
          "internalType": "bytes32",
          "name": "role",
          "type": "bytes32"
        },
        {
          "internalType": "address",
          "name": "account",
          "type": "address"
        }
      ],
      "name": "renounceRole",
      "outputs": [],
      "stateMutability": "nonpayable",
      "type": "function"
    },
    {
      "inputs": [
        {
          "internalType": "bytes32",
          "name": "role",
          "type": "bytes32"
        },
        {
          "internalType": "address",
          "name": "account",
          "type": "address"
        }
      ],
      "name": "revokeRole",
      "outputs": [],
      "stateMutability": "nonpayable",
      "type": "function"
    },
    {
      "inputs": [],
      "name": "shields",
      "outputs": [
        {
          "internalType": "contract Shields",
          "name": "",
          "type": "address"
        }
      ],
      "stateMutability": "view",
      "type": "function"
    },
    {
      "inputs": [
        {
          "internalType": "address",
          "name": "",
          "type": "address"
        }
      ],
      "name": "tickets",
      "outputs": [
        {
          "internalType": "uint32",
          "name": "",
          "type": "uint32"
        }
      ],
      "stateMutability": "view",
      "type": "function"
    },
    {
      "inputs": [],
      "name": "weapons",
      "outputs": [
        {
          "internalType": "contract Weapons",
          "name": "",
          "type": "address"
        }
      ],
      "stateMutability": "view",
      "type": "function"
    },
    {
      "inputs": [
        {
          "internalType": "contract Weapons",
          "name": "_weapons",
          "type": "address"
        },
        {
          "internalType": "contract IRandoms",
          "name": "_randoms",
          "type": "address"
        }
      ],
      "name": "initialize",
      "outputs": [],
      "stateMutability": "nonpayable",
      "type": "function"
    },
    {
      "inputs": [
        {
          "internalType": "contract IRandoms",
          "name": "_newRandoms",
          "type": "address"
        }
      ],
      "name": "migrateRandoms",
      "outputs": [],
      "stateMutability": "nonpayable",
      "type": "function"
    },
    {
      "inputs": [
        {
          "internalType": "contract Shields",
          "name": "_shields",
          "type": "address"
        },
        {
          "internalType": "contract CryptoBlades",
          "name": "_game",
          "type": "address"
        }
      ],
      "name": "migrateTo_61c10da",
      "outputs": [],
      "stateMutability": "nonpayable",
      "type": "function"
    },
    {
      "inputs": [
        {
          "internalType": "address",
          "name": "_player",
          "type": "address"
        },
        {
          "internalType": "uint32",
          "name": "_num",
          "type": "uint32"
        }
      ],
      "name": "giveTicket",
      "outputs": [],
      "stateMutability": "nonpayable",
      "type": "function"
    },
    {
      "inputs": [],
      "name": "purchaseShield",
      "outputs": [],
      "stateMutability": "nonpayable",
      "type": "function"
    }
  ],
  "bytecode": "0x608060405234801561001057600080fd5b5061104d806100206000396000f3fe608060405234801561001057600080fd5b506004361061012c5760003560e01c806391d14854116100ad578063c3fe3e2811610071578063c3fe3e2814610310578063ca15c87314610318578063d547741f14610335578063e4a0f56614610361578063ee7e0797146103875761012c565b806391d14854146102b05780639e00de82146102f0578063a217fddf146102f8578063b7e1cd8614610300578063bee666d8146103085761012c565b8063485cc955116100f4578063485cc955146101f457806367300409146102225780636dcbf2a31461022a5780636f59c9bf146102695780639010d07c146102715761012c565b806319a076b514610131578063248a9ca31461016557806327730d12146101945780632f2ff15d1461019c57806336568abe146101c8575b600080fd5b6101636004803603604081101561014757600080fd5b5080356001600160a01b0316906020013563ffffffff166103b5565b005b6101826004803603602081101561017b57600080fd5b503561044d565b60408051918252519081900360200190f35b610182610462565b610163600480360360408110156101b257600080fd5b50803590602001356001600160a01b031661047e565b610163600480360360408110156101de57600080fd5b50803590602001356001600160a01b03166104ea565b6101636004803603604081101561020a57600080fd5b506001600160a01b038135811691602001351661054b565b610182610632565b6102506004803603602081101561024057600080fd5b50356001600160a01b031661063e565b6040805163ffffffff9092168252519081900360200190f35b610163610656565b6102946004803603604081101561028757600080fd5b5080359060200135610932565b604080516001600160a01b039092168252519081900360200190f35b6102dc600480360360408110156102c657600080fd5b50803590602001356001600160a01b0316610959565b604080519115158252519081900360200190f35b610294610977565b610182610986565b61029461098b565b61029461099a565b6102946109a9565b6101826004803603602081101561032e57600080fd5b50356109b8565b6101636004803603604081101561034b57600080fd5b50803590602001356001600160a01b03166109cf565b6101636004803603602081101561037757600080fd5b50356001600160a01b0316610a28565b6101636004803603604081101561039d57600080fd5b506001600160a01b0381358116916020013516610a92565b604080516347414d4560e01b815290519081900360040190206103d89033610959565b610415576040805162461bcd60e51b81526020600482015260096024820152684f6e6c792067616d6560b81b604482015290519081900360640190fd5b6001600160a01b03919091166000908152606760205260409020805463ffffffff19811663ffffffff91821690930116919091179055565b60009081526033602052604090206002015490565b604080516347414d4560e01b8152905190819003600401902081565b6000828152603360205260409020600201546104a19061049c610b08565b610959565b6104dc5760405162461bcd60e51b815260040180806020018281038252602f815260200180610f5c602f913960400191505060405180910390fd5b6104e68282610b0c565b5050565b6104f2610b08565b6001600160a01b0316816001600160a01b0316146105415760405162461bcd60e51b815260040180806020018281038252602f815260200180610fe9602f913960400191505060405180910390fd5b6104e68282610b7b565b600054610100900460ff16806105645750610564610bea565b80610572575060005460ff16155b6105ad5760405162461bcd60e51b815260040180806020018281038252602e815260200180610fbb602e913960400191505060405180910390fd5b600054610100900460ff161580156105d8576000805460ff1961ff0019909116610100171660011790555b6105e0610bfb565b6105eb6000336104dc565b606580546001600160a01b038086166001600160a01b0319928316179092556066805492851692909116919091179055801561062d576000805461ff00191690555b505050565b674563918244f4000081565b60676020526000908152604090205463ffffffff1681565b60695460408051631479c5eb60e21b815290516000926001600160a01b0316916351e717ac916004808301926020929190829003018186803b15801561069b57600080fd5b505afa1580156106af573d6000803e3d6000fd5b505050506040513d60208110156106c557600080fd5b5051604080516371c045c160e11b815290519192506000916001600160a01b0384169163e3808b82916004808301926020929190829003018186803b15801561070d57600080fd5b505afa158015610721573d6000803e3d6000fd5b505050506040513d602081101561073757600080fd5b50516040805163434d82a360e01b81523360048201526024810183905290519192506001600160a01b0384169163434d82a391604480820192602092909190829003018186803b15801561078a57600080fd5b505afa15801561079e573d6000803e3d6000fd5b505050506040513d60208110156107b457600080fd5b5051156107f2576040805162461bcd60e51b81526020600482015260076024820152664c696d6974203160c81b604482015290519081900360640190fd5b60408051630130398760e51b81523360048201526024810183905290516001600160a01b0384169163260730e091604480830192600092919082900301818387803b15801561084057600080fd5b505af1158015610854573d6000803e3d6000fd5b50506069546040805163466cec3360e01b8152336004820152674563918244f40000602482015290516001600160a01b03909216935063466cec33925060448082019260009290919082900301818387803b1580156108b257600080fd5b505af11580156108c6573d6000803e3d6000fd5b505060685460408051634f171a3160e11b815233600482015290516001600160a01b039092169350639e2e3462925060248082019260009290919082900301818387803b15801561091657600080fd5b505af115801561092a573d6000803e3d6000fd5b505050505050565b6000828152603360205260408120610950908363ffffffff610cad16565b90505b92915050565b6000828152603360205260408120610950908363ffffffff610cb916565b6068546001600160a01b031681565b600081565b6065546001600160a01b031681565b6066546001600160a01b031681565b6069546001600160a01b031681565b600081815260336020526040812061095390610cce565b6000828152603360205260409020600201546109ed9061049c610b08565b6105415760405162461bcd60e51b8152600401808060200182810382526030815260200180610f8b6030913960400191505060405180910390fd5b610a33600033610959565b610a70576040805162461bcd60e51b81526020600482015260096024820152682737ba1030b236b4b760b91b604482015290519081900360640190fd5b606680546001600160a01b0319166001600160a01b0392909216919091179055565b610a9d600033610959565b610ada576040805162461bcd60e51b81526020600482015260096024820152682737ba1030b236b4b760b91b604482015290519081900360640190fd5b606880546001600160a01b039384166001600160a01b03199182161790915560698054929093169116179055565b3390565b6000828152603360205260409020610b2a908263ffffffff610cd916565b156104e657610b37610b08565b6001600160a01b0316816001600160a01b0316837f2f8788117e7eff1d82e926ec794901d17c78024a50270940304540a733656f0d60405160405180910390a45050565b6000828152603360205260409020610b99908263ffffffff610cee16565b156104e657610ba6610b08565b6001600160a01b0316816001600160a01b0316837ff6391f5c32d9c69d2a47ea670b442974b53935d1edc7fd64eb21e047a839171b60405160405180910390a45050565b6000610bf530610d03565b15905090565b600054610100900460ff1680610c145750610c14610bea565b80610c22575060005460ff16155b610c5d5760405162461bcd60e51b815260040180806020018281038252602e815260200180610fbb602e913960400191505060405180910390fd5b600054610100900460ff16158015610c88576000805460ff1961ff0019909116610100171660011790555b610c90610d09565b610c98610d09565b8015610caa576000805461ff00191690555b50565b60006109508383610da9565b6000610950836001600160a01b038416610e0d565b600061095382610e25565b6000610950836001600160a01b038416610e29565b6000610950836001600160a01b038416610e73565b3b151590565b600054610100900460ff1680610d225750610d22610bea565b80610d30575060005460ff16155b610d6b5760405162461bcd60e51b815260040180806020018281038252602e815260200180610fbb602e913960400191505060405180910390fd5b600054610100900460ff16158015610c98576000805460ff1961ff0019909116610100171660011790558015610caa576000805461ff001916905550565b81546000908210610deb5760405162461bcd60e51b8152600401808060200182810382526022815260200180610f3a6022913960400191505060405180910390fd5b826000018281548110610dfa57fe5b9060005260206000200154905092915050565b60009081526001919091016020526040902054151590565b5490565b6000610e358383610e0d565b610e6b57508154600181810184556000848152602080822090930184905584548482528286019093526040902091909155610953565b506000610953565b60008181526001830160205260408120548015610f2f5783546000198083019190810190600090879083908110610ea657fe5b9060005260206000200154905080876000018481548110610ec357fe5b600091825260208083209091019290925582815260018981019092526040902090840190558654879080610ef357fe5b60019003818190600052602060002001600090559055866001016000878152602001908152602001600020600090556001945050505050610953565b600091505061095356fe456e756d657261626c655365743a20696e646578206f7574206f6620626f756e6473416363657373436f6e74726f6c3a2073656e646572206d75737420626520616e2061646d696e20746f206772616e74416363657373436f6e74726f6c3a2073656e646572206d75737420626520616e2061646d696e20746f207265766f6b65496e697469616c697a61626c653a20636f6e747261637420697320616c726561647920696e697469616c697a6564416363657373436f6e74726f6c3a2063616e206f6e6c792072656e6f756e636520726f6c657320666f722073656c66a26469706673582212206870a6a8a9ea94517fe404a1c920a87d581599a6e34a5be7e29fe4ba486e1acd64736f6c63430006050033",
  "immutableReferences": {},
  "source": "pragma solidity ^0.6.5;\r\n\r\nimport \"@openzeppelin/contracts-upgradeable/proxy/Initializable.sol\";\r\nimport \"@openzeppelin/contracts-upgradeable/access/AccessControlUpgradeable.sol\";\r\nimport \"./interfaces/IRandoms.sol\";\r\nimport \"./shields.sol\";\r\nimport \"./weapons.sol\";\r\nimport \"./cryptoblades.sol\";\r\n\r\ncontract Blacksmith is Initializable, AccessControlUpgradeable {\r\n    /* ========== CONSTANTS ========== */\r\n\r\n    bytes32 public constant GAME = keccak256(\"GAME\");\r\n\r\n    uint256 public constant SHIELD_SKILL_FEE = 5 ether;\r\n\r\n    /* ========== STATE VARIABLES ========== */\r\n\r\n    Weapons public weapons;\r\n    IRandoms public randoms;\r\n\r\n    mapping(address => uint32) public tickets;\r\n\r\n    Shields public shields;\r\n    CryptoBlades public game;\r\n\r\n    /* ========== INITIALIZERS AND MIGRATORS ========== */\r\n\r\n    function initialize(Weapons _weapons, IRandoms _randoms)\r\n        public\r\n        initializer\r\n    {\r\n        __AccessControl_init();\r\n\r\n        _setupRole(DEFAULT_ADMIN_ROLE, msg.sender);\r\n\r\n        weapons = _weapons;\r\n        randoms = _randoms;\r\n    }\r\n\r\n    function migrateRandoms(IRandoms _newRandoms) external {\r\n        require(hasRole(DEFAULT_ADMIN_ROLE, msg.sender), \"Not admin\");\r\n        randoms = _newRandoms;\r\n    }\r\n\r\n    function migrateTo_61c10da(Shields _shields, CryptoBlades _game) external {\r\n        require(hasRole(DEFAULT_ADMIN_ROLE, msg.sender), \"Not admin\");\r\n\r\n        shields = _shields;\r\n        game = _game;\r\n    }\r\n\r\n    /* ========== VIEWS ========== */\r\n\r\n    /* ========== MUTATIVE FUNCTIONS ========== */\r\n\r\n    // function spendTicket(uint32 _num) external {\r\n    //     require(_num > 0);\r\n    //     require(tickets[msg.sender] >= _num, \"Not enough tickets\");\r\n    //     tickets[msg.sender] -= _num;\r\n\r\n    //     for (uint256 i = 0; i < _num; i++) {\r\n    //         weapons.mint(\r\n    //             msg.sender,\r\n    //             // TODO: Do the thing we do in cryptoblades.sol to \"lock in\" the user into a given blockhash\r\n    //         );\r\n    //     }\r\n    // }\r\n\r\n    function giveTicket(address _player, uint32 _num) external onlyGame {\r\n        tickets[_player] += _num;\r\n    }\r\n\r\n    function purchaseShield() public {\r\n        Promos promos = game.promos();\r\n        uint256 BIT_FOUNDER_SHIELD = promos.BIT_FOUNDER_SHIELD();\r\n\r\n        require(!promos.getBit(msg.sender, BIT_FOUNDER_SHIELD), \"Limit 1\");\r\n        promos.setBit(msg.sender, BIT_FOUNDER_SHIELD);\r\n        game.payContractTokenOnly(msg.sender, SHIELD_SKILL_FEE);\r\n        shields.mintForPurchase(msg.sender);\r\n    }\r\n\r\n    /* ========== MODIFIERS ========== */\r\n\r\n    modifier onlyGame() {\r\n        require(hasRole(GAME, msg.sender), \"Only game\");\r\n        _;\r\n    }\r\n}\r\n",
  "sourcePath": "C:\\Users\\Dan\\Desktop\\code\\pessoal\\CB_original\\cryptoblades\\contracts\\Blacksmith.sol",
  "compiler": {
    "name": "solc",
    "version": "0.6.5+commit.f956cc89.Emscripten.clang"
  },
  "schemaVersion": "3.3.4",
  "updatedAt": "2021-08-09T12:18:06.829Z",
  "devdoc": {
    "methods": {
      "getRoleAdmin(bytes32)": {
        "details": "Returns the admin role that controls `role`. See {grantRole} and {revokeRole}.     * To change a role's admin, use {_setRoleAdmin}."
      },
      "getRoleMember(bytes32,uint256)": {
        "details": "Returns one of the accounts that have `role`. `index` must be a value between 0 and {getRoleMemberCount}, non-inclusive.     * Role bearers are not sorted in any particular way, and their ordering may change at any point.     * WARNING: When using {getRoleMember} and {getRoleMemberCount}, make sure you perform all queries on the same block. See the following https://forum.openzeppelin.com/t/iterating-over-elements-on-enumerableset-in-openzeppelin-contracts/2296[forum post] for more information."
      },
      "getRoleMemberCount(bytes32)": {
        "details": "Returns the number of accounts that have `role`. Can be used together with {getRoleMember} to enumerate all bearers of a role."
      },
      "grantRole(bytes32,address)": {
        "details": "Grants `role` to `account`.     * If `account` had not been already granted `role`, emits a {RoleGranted} event.     * Requirements:     * - the caller must have ``role``'s admin role."
      },
      "hasRole(bytes32,address)": {
        "details": "Returns `true` if `account` has been granted `role`."
      },
      "renounceRole(bytes32,address)": {
        "details": "Revokes `role` from the calling account.     * Roles are often managed via {grantRole} and {revokeRole}: this function's purpose is to provide a mechanism for accounts to lose their privileges if they are compromised (such as when a trusted device is misplaced).     * If the calling account had been granted `role`, emits a {RoleRevoked} event.     * Requirements:     * - the caller must be `account`."
      },
      "revokeRole(bytes32,address)": {
        "details": "Revokes `role` from `account`.     * If `account` had been granted `role`, emits a {RoleRevoked} event.     * Requirements:     * - the caller must have ``role``'s admin role."
      }
    }
  },
  "userdoc": {
    "methods": {}
  }
}