{
  "contractName": "ChainlinkRandoms",
  "abi": [
    {
      "inputs": [
        {
          "internalType": "address",
          "name": "_vrfCoordinator",
          "type": "address"
        },
        {
          "internalType": "address",
          "name": "_link",
          "type": "address"
        },
        {
          "internalType": "bytes32",
          "name": "_keyHash",
          "type": "bytes32"
        },
        {
          "internalType": "uint256",
          "name": "_fee",
          "type": "uint256"
        }
      ],
      "stateMutability": "nonpayable",
      "type": "constructor"
    },
    {
      "anonymous": false,
      "inputs": [
        {
          "indexed": false,
          "internalType": "address",
          "name": "account",
          "type": "address"
        }
      ],
      "name": "Paused",
      "type": "event"
    },
    {
      "anonymous": false,
      "inputs": [
        {
          "indexed": true,
          "internalType": "bytes32",
          "name": "role",
          "type": "bytes32"
        },
        {
          "indexed": true,
          "internalType": "bytes32",
          "name": "previousAdminRole",
          "type": "bytes32"
        },
        {
          "indexed": true,
          "internalType": "bytes32",
          "name": "newAdminRole",
          "type": "bytes32"
        }
      ],
      "name": "RoleAdminChanged",
      "type": "event"
    },
    {
      "anonymous": false,
      "inputs": [
        {
          "indexed": true,
          "internalType": "bytes32",
          "name": "role",
          "type": "bytes32"
        },
        {
          "indexed": true,
          "internalType": "address",
          "name": "account",
          "type": "address"
        },
        {
          "indexed": true,
          "internalType": "address",
          "name": "sender",
          "type": "address"
        }
      ],
      "name": "RoleGranted",
      "type": "event"
    },
    {
      "anonymous": false,
      "inputs": [
        {
          "indexed": true,
          "internalType": "bytes32",
          "name": "role",
          "type": "bytes32"
        },
        {
          "indexed": true,
          "internalType": "address",
          "name": "account",
          "type": "address"
        },
        {
          "indexed": true,
          "internalType": "address",
          "name": "sender",
          "type": "address"
        }
      ],
      "name": "RoleRevoked",
      "type": "event"
    },
    {
      "anonymous": false,
      "inputs": [
        {
          "indexed": false,
          "internalType": "address",
          "name": "account",
          "type": "address"
        }
      ],
      "name": "Unpaused",
      "type": "event"
    },
    {
      "inputs": [],
      "name": "DEFAULT_ADMIN_ROLE",
      "outputs": [
        {
          "internalType": "bytes32",
          "name": "",
          "type": "bytes32"
        }
      ],
      "stateMutability": "view",
      "type": "function"
    },
    {
      "inputs": [],
      "name": "RANDOMNESS_REQUESTER",
      "outputs": [
        {
          "internalType": "bytes32",
          "name": "",
          "type": "bytes32"
        }
      ],
      "stateMutability": "view",
      "type": "function"
    },
    {
      "inputs": [
        {
          "internalType": "bytes32",
          "name": "role",
          "type": "bytes32"
        }
      ],
      "name": "getRoleAdmin",
      "outputs": [
        {
          "internalType": "bytes32",
          "name": "",
          "type": "bytes32"
        }
      ],
      "stateMutability": "view",
      "type": "function"
    },
    {
      "inputs": [
        {
          "internalType": "bytes32",
          "name": "role",
          "type": "bytes32"
        },
        {
          "internalType": "uint256",
          "name": "index",
          "type": "uint256"
        }
      ],
      "name": "getRoleMember",
      "outputs": [
        {
          "internalType": "address",
          "name": "",
          "type": "address"
        }
      ],
      "stateMutability": "view",
      "type": "function"
    },
    {
      "inputs": [
        {
          "internalType": "bytes32",
          "name": "role",
          "type": "bytes32"
        }
      ],
      "name": "getRoleMemberCount",
      "outputs": [
        {
          "internalType": "uint256",
          "name": "",
          "type": "uint256"
        }
      ],
      "stateMutability": "view",
      "type": "function"
    },
    {
      "inputs": [
        {
          "internalType": "bytes32",
          "name": "role",
          "type": "bytes32"
        },
        {
          "internalType": "address",
          "name": "account",
          "type": "address"
        }
      ],
      "name": "grantRole",
      "outputs": [],
      "stateMutability": "nonpayable",
      "type": "function"
    },
    {
      "inputs": [
        {
          "internalType": "bytes32",
          "name": "role",
          "type": "bytes32"
        },
        {
          "internalType": "address",
          "name": "account",
          "type": "address"
        }
      ],
      "name": "hasRole",
      "outputs": [
        {
          "internalType": "bool",
          "name": "",
          "type": "bool"
        }
      ],
      "stateMutability": "view",
      "type": "function"
    },
    {
      "inputs": [],
      "name": "paused",
      "outputs": [
        {
          "internalType": "bool",
          "name": "",
          "type": "bool"
        }
      ],
      "stateMutability": "view",
      "type": "function"
    },
    {
      "inputs": [
        {
          "internalType": "bytes32",
          "name": "requestId",
          "type": "bytes32"
        },
        {
          "internalType": "uint256",
          "name": "randomness",
          "type": "uint256"
        }
      ],
      "name": "rawFulfillRandomness",
      "outputs": [],
      "stateMutability": "nonpayable",
      "type": "function"
    },
    {
      "inputs": [
        {
          "internalType": "bytes32",
          "name": "role",
          "type": "bytes32"
        },
        {
          "internalType": "address",
          "name": "account",
          "type": "address"
        }
      ],
      "name": "renounceRole",
      "outputs": [],
      "stateMutability": "nonpayable",
      "type": "function"
    },
    {
      "inputs": [
        {
          "internalType": "bytes32",
          "name": "role",
          "type": "bytes32"
        },
        {
          "internalType": "address",
          "name": "account",
          "type": "address"
        }
      ],
      "name": "revokeRole",
      "outputs": [],
      "stateMutability": "nonpayable",
      "type": "function"
    },
    {
      "inputs": [
        {
          "internalType": "address",
          "name": "user",
          "type": "address"
        }
      ],
      "name": "getRandomSeed",
      "outputs": [
        {
          "internalType": "uint256",
          "name": "",
          "type": "uint256"
        }
      ],
      "stateMutability": "view",
      "type": "function"
    },
    {
      "inputs": [
        {
          "internalType": "address",
          "name": "user",
          "type": "address"
        },
        {
          "internalType": "bytes32",
          "name": "hash",
          "type": "bytes32"
        }
      ],
      "name": "getRandomSeedUsingHash",
      "outputs": [
        {
          "internalType": "uint256",
          "name": "",
          "type": "uint256"
        }
      ],
      "stateMutability": "view",
      "type": "function"
    },
    {
      "inputs": [],
      "name": "requestRandomNumber",
      "outputs": [],
      "stateMutability": "nonpayable",
      "type": "function"
    },
    {
      "inputs": [],
      "name": "pause",
      "outputs": [],
      "stateMutability": "nonpayable",
      "type": "function"
    },
    {
      "inputs": [],
      "name": "unpause",
      "outputs": [],
      "stateMutability": "nonpayable",
      "type": "function"
    },
    {
      "inputs": [
        {
          "internalType": "uint256",
          "name": "tokenAmount",
          "type": "uint256"
        }
      ],
      "name": "withdrawLink",
      "outputs": [],
      "stateMutability": "nonpayable",
      "type": "function"
    }
  ],
  "bytecode": "0x60c06040523480156200001157600080fd5b50604051620015ed380380620015ed833981810160405260808110156200003757600080fd5b508051602082015160408301516060938401516000805460ff191681556001600160601b031985871b811660a0529584901b909516608052600382905560048190559293919290916200009490336001600160e01b036200009e16565b50505050620001d8565b620000b382826001600160e01b03620000b716565b5050565b6000828152600160209081526040909120620000de91839062000d516200013b821b17901c565b15620000b357620000f76001600160e01b036200016416565b6001600160a01b0316816001600160a01b0316837f2f8788117e7eff1d82e926ec794901d17c78024a50270940304540a733656f0d60405160405180910390a45050565b60006200015b836001600160a01b0384166001600160e01b036200016816565b90505b92915050565b3390565b60006200017f83836001600160e01b03620001c016565b620001b7575081546001818101845560008481526020808220909301849055845484825282860190935260409020919091556200015e565b5060006200015e565b60009081526001919091016020526040902054151590565b60805160601c60a05160601c6113dc62000211600039806108105280610b9052508061055552806106ab5280610b6152506113dc6000f3fe608060405234801561001057600080fd5b506004361061010b5760003560e01c80637a8042bd116100a257806391d148541161007157806391d148541461028357806394985ddd146102af578063a217fddf146102d2578063ca15c873146102da578063d547741f146102f75761010b565b80637a8042bd146102175780638456cb59146102345780638678a7b21461023c5780639010d07c146102445761010b565b80633883d854116100de5780633883d854146101c55780633f4ba83a146101eb5780635c975abb146101f3578063790273dd1461020f5761010b565b8063248a9ca3146101105780632f2ff15d1461013f578063319b22a71461016d57806336568abe14610199575b600080fd5b61012d6004803603602081101561012657600080fd5b5035610323565b60408051918252519081900360200190f35b61016b6004803603604081101561015557600080fd5b50803590602001356001600160a01b0316610338565b005b61012d6004803603604081101561018357600080fd5b506001600160a01b0381351690602001356103a4565b61016b600480360360408110156101af57600080fd5b50803590602001356001600160a01b0316610408565b61012d600480360360208110156101db57600080fd5b50356001600160a01b0316610469565b61016b610479565b6101fb6104cb565b604080519115158252519081900360200190f35b61012d6104d4565b61016b6004803603602081101561022d57600080fd5b5035610500565b61016b610585565b61016b6105d5565b6102676004803603604081101561025a57600080fd5b50803590602001356107c2565b604080516001600160a01b039092168252519081900360200190f35b6101fb6004803603604081101561029957600080fd5b50803590602001356001600160a01b03166107e7565b61016b600480360360408110156102c557600080fd5b5080359060200135610805565b61012d61088c565b61012d600480360360208110156102f057600080fd5b5035610891565b61016b6004803603604081101561030d57600080fd5b50803590602001356001600160a01b03166108a8565b60009081526001602052604090206002015490565b60008281526001602052604090206002015461035b90610356610901565b6107e7565b6103965760405162461bcd60e51b815260040180806020018281038252602f8152602001806112c9602f913960400191505060405180910390fd5b6103a08282610905565b5050565b600082600554835a60405160200180856001600160a01b03166001600160a01b031660601b81526014018481526020018381526020018281526020019450505050506040516020818303038152906040528051906020012060001c90505b92915050565b610410610901565b6001600160a01b0316816001600160a01b03161461045f5760405162461bcd60e51b815260040180806020018281038252602f815260200180611378602f913960400191505060405180910390fd5b6103a08282610974565b60006104028260014303406103a4565b6104846000336107e7565b6104c1576040805162461bcd60e51b81526020600482015260096024820152682737ba1030b236b4b760b91b604482015290519081900360640190fd5b6104c96109e3565b565b60005460ff1690565b60408051732920a72227a6a722a9a9afa922a8aaa2a9aa22a960611b8152905190819003601401902081565b61050b6000336107e7565b610548576040805162461bcd60e51b81526020600482015260096024820152682737ba1030b236b4b760b91b604482015290519081900360640190fd5b6105826001600160a01b037f000000000000000000000000000000000000000000000000000000000000000016338363ffffffff610a8316565b50565b6105906000336107e7565b6105cd576040805162461bcd60e51b81526020600482015260096024820152682737ba1030b236b4b760b91b604482015290519081900360640190fd5b6104c9610ada565b6105dd6104cb565b15610622576040805162461bcd60e51b815260206004820152601060248201526f14185d5cd8589b194e881c185d5cd95960821b604482015290519081900360640190fd5b60408051732920a72227a6a722a9a9afa922a8aaa2a9aa22a960611b8152905190819003601401902061065590336107e7565b6106a6576040805162461bcd60e51b815260206004820152601a60248201527f53656e6465722063616e6e6f7420726571756573742073656564000000000000604482015290519081900360640190fd5b6004547f00000000000000000000000000000000000000000000000000000000000000006001600160a01b03166370a08231306040518263ffffffff1660e01b815260040180826001600160a01b03166001600160a01b0316815260200191505060206040518083038186803b15801561071f57600080fd5b505afa158015610733573d6000803e3d6000fd5b505050506040513d602081101561074957600080fd5b50511015610790576040805162461bcd60e51b815260206004820152600f60248201526e4e6f7420656e6f756768204c494e4b60881b604482015290519081900360640190fd5b600354600454604080516b43727970746f426c6164657360a01b8152905190819003600c019020610582929190610b5d565b60008281526001602052604081206107e0908363ffffffff610d1f16565b9392505050565b60008281526001602052604081206107e0908363ffffffff610d2b16565b336001600160a01b037f00000000000000000000000000000000000000000000000000000000000000001614610882576040805162461bcd60e51b815260206004820152601f60248201527f4f6e6c7920565246436f6f7264696e61746f722063616e2066756c66696c6c00604482015290519081900360640190fd5b6103a08282610d40565b600081565b600081815260016020526040812061040290610d46565b6000828152600160205260409020600201546108c690610356610901565b61045f5760405162461bcd60e51b815260040180806020018281038252603081526020018061131e6030913960400191505060405180910390fd5b3390565b6000828152600160205260409020610923908263ffffffff610d5116565b156103a057610930610901565b6001600160a01b0316816001600160a01b0316837f2f8788117e7eff1d82e926ec794901d17c78024a50270940304540a733656f0d60405160405180910390a45050565b6000828152600160205260409020610992908263ffffffff610d6616565b156103a05761099f610901565b6001600160a01b0316816001600160a01b0316837ff6391f5c32d9c69d2a47ea670b442974b53935d1edc7fd64eb21e047a839171b60405160405180910390a45050565b6109eb6104cb565b610a33576040805162461bcd60e51b815260206004820152601460248201527314185d5cd8589b194e881b9bdd081c185d5cd95960621b604482015290519081900360640190fd5b6000805460ff191690557f5db9ee0a495bf2e6ff9c91a7834c1ba4fdd244a5e8aa4e537bd38aeae4b073aa610a66610901565b604080516001600160a01b039092168252519081900360200190a1565b604080516001600160a01b038416602482015260448082018490528251808303909101815260649091019091526020810180516001600160e01b031663a9059cbb60e01b179052610ad5908490610d7b565b505050565b610ae26104cb565b15610b27576040805162461bcd60e51b815260206004820152601060248201526f14185d5cd8589b194e881c185d5cd95960821b604482015290519081900360640190fd5b6000805460ff191660011790557f62e78cea01bee320cd4e420270b5ea74000d11b0c9f74754ebdbfc544b05a258610a66610901565b60007f00000000000000000000000000000000000000000000000000000000000000006001600160a01b0316634000aea07f000000000000000000000000000000000000000000000000000000000000000085878660405160200180838152602001828152602001925050506040516020818303038152906040526040518463ffffffff1660e01b815260040180846001600160a01b03166001600160a01b0316815260200183815260200180602001828103825283818151815260200191508051906020019080838360005b83811015610c42578181015183820152602001610c2a565b50505050905090810190601f168015610c6f5780820380516001836020036101000a031916815260200191505b50945050505050602060405180830381600087803b158015610c9057600080fd5b505af1158015610ca4573d6000803e3d6000fd5b505050506040513d6020811015610cba57600080fd5b5050600084815260026020526040812054610cda90869085903090610e2c565b600086815260026020526040902054909150610cfd90600163ffffffff610e7316565b600086815260026020526040902055610d168582610ecd565b95945050505050565b60006107e08383610ef9565b60006107e0836001600160a01b038416610f5d565b60055550565b600061040282610f75565b60006107e0836001600160a01b038416610f79565b60006107e0836001600160a01b038416610fc3565b6060610dd0826040518060400160405280602081526020017f5361666545524332303a206c6f772d6c6576656c2063616c6c206661696c6564815250856001600160a01b03166110899092919063ffffffff16565b805190915015610ad557808060200190516020811015610def57600080fd5b5051610ad55760405162461bcd60e51b815260040180806020018281038252602a81526020018061134e602a913960400191505060405180910390fd5b60408051602080820196909652808201949094526001600160a01b039290921660608401526080808401919091528151808403909101815260a09092019052805191012090565b6000828201838110156107e0576040805162461bcd60e51b815260206004820152601b60248201527f536166654d6174683a206164646974696f6e206f766572666c6f770000000000604482015290519081900360640190fd5b604080516020808201949094528082019290925280518083038201815260609092019052805191012090565b81546000908210610f3b5760405162461bcd60e51b81526004018080602001828103825260228152602001806112a76022913960400191505060405180910390fd5b826000018281548110610f4a57fe5b9060005260206000200154905092915050565b60009081526001919091016020526040902054151590565b5490565b6000610f858383610f5d565b610fbb57508154600181810184556000848152602080822090930184905584548482528286019093526040902091909155610402565b506000610402565b6000818152600183016020526040812054801561107f5783546000198083019190810190600090879083908110610ff657fe5b906000526020600020015490508087600001848154811061101357fe5b60009182526020808320909101929092558281526001898101909252604090209084019055865487908061104357fe5b60019003818190600052602060002001600090559055866001016000878152602001908152602001600020600090556001945050505050610402565b6000915050610402565b606061109884846000856110a0565b949350505050565b6060824710156110e15760405162461bcd60e51b81526004018080602001828103825260268152602001806112f86026913960400191505060405180910390fd5b6110ea856111fc565b61113b576040805162461bcd60e51b815260206004820152601d60248201527f416464726573733a2063616c6c20746f206e6f6e2d636f6e7472616374000000604482015290519081900360640190fd5b60006060866001600160a01b031685876040518082805190602001908083835b6020831061117a5780518252601f19909201916020918201910161115b565b6001836020036101000a03801982511681845116808217855250505050505090500191505060006040518083038185875af1925050503d80600081146111dc576040519150601f19603f3d011682016040523d82523d6000602084013e6111e1565b606091505b50915091506111f1828286611202565b979650505050505050565b3b151590565b606083156112115750816107e0565b8251156112215782518084602001fd5b8160405162461bcd60e51b81526004018080602001828103825283818151815260200191508051906020019080838360005b8381101561126b578181015183820152602001611253565b50505050905090810190601f1680156112985780820380516001836020036101000a031916815260200191505b509250505060405180910390fdfe456e756d657261626c655365743a20696e646578206f7574206f6620626f756e6473416363657373436f6e74726f6c3a2073656e646572206d75737420626520616e2061646d696e20746f206772616e74416464726573733a20696e73756666696369656e742062616c616e636520666f722063616c6c416363657373436f6e74726f6c3a2073656e646572206d75737420626520616e2061646d696e20746f207265766f6b655361666545524332303a204552433230206f7065726174696f6e20646964206e6f742073756363656564416363657373436f6e74726f6c3a2063616e206f6e6c792072656e6f756e636520726f6c657320666f722073656c66a2646970667358221220e91fb5f50425d9e3e3ab99d3fd0def655175675a69d6d2e29ae32dd93eac715a64736f6c63430006050033",
  "immutableReferences": {
    "16879": [
      {
        "length": 32,
        "start": 1365
      },
      {
        "length": 32,
        "start": 1707
      },
      {
        "length": 32,
        "start": 2913
      }
    ],
    "16881": [
      {
        "length": 32,
        "start": 2064
      },
      {
        "length": 32,
        "start": 2960
      }
    ]
  },
  "source": "pragma solidity ^0.6.0;\r\n\r\nimport \"@openzeppelin/contracts/access/AccessControl.sol\";\r\nimport \"@openzeppelin/contracts/utils/Pausable.sol\";\r\nimport \"@openzeppelin/contracts/token/ERC20/SafeERC20.sol\";\r\nimport \"@openzeppelin/contracts/token/ERC20/IERC20.sol\";\r\nimport \"@chainlink/contracts/src/v0.6/VRFConsumerBase.sol\";\r\nimport \"./interfaces/IRandoms.sol\";\r\n\r\nstruct SeedState {\r\n    bytes32 requestId;\r\n    uint256 seed;\r\n    bool isAvailable;\r\n}\r\n\r\ncontract ChainlinkRandoms is IRandoms, Pausable, AccessControl, VRFConsumerBase {\r\n    using SafeERC20 for IERC20;\r\n\r\n    uint256 constant VRF_MAGIC_SEED = uint256(keccak256(\"CryptoBlades\"));\r\n\r\n    bytes32 public constant RANDOMNESS_REQUESTER = keccak256(\"RANDOMNESS_REQUESTER\");\r\n\r\n    bytes32 private keyHash;\r\n    uint256 private fee;\r\n\r\n    uint256 private seed;\r\n\r\n    // BSC testnet details:\r\n    // LINK token: 0x84b9B910527Ad5C03A9Ca831909E21e236EA7b06\r\n    // VRF Coordinator: 0xa555fC018435bef5A13C6c6870a9d4C11DEC329C\r\n    // Key Hash: 0xcaf3c3727e033261d383b315559476f48034c13b18f8cafed4d871abe5049186\r\n    // Fee: 0.1 * 10 ** 18 // 0.1 LINK\r\n\r\n    constructor(address _vrfCoordinator, address _link, bytes32 _keyHash, uint256 _fee)\r\n        VRFConsumerBase(\r\n            _vrfCoordinator, // VRF Coordinator\r\n            _link  // LINK Token\r\n        ) public\r\n    {\r\n        keyHash = _keyHash;\r\n        fee = _fee;\r\n\r\n        _setupRole(DEFAULT_ADMIN_ROLE, msg.sender);\r\n    }\r\n\r\n    // Views\r\n    function getRandomSeed(address user) external override view returns (uint256) {\r\n        return getRandomSeedUsingHash(user, blockhash(block.number - 1));\r\n    }\r\n\r\n    function getRandomSeedUsingHash(address user, bytes32 hash) public override view returns (uint256) {\r\n        return uint256(keccak256(abi.encodePacked(user, seed, hash, gasleft())));\r\n    }\r\n\r\n    // Mutative\r\n\r\n    /**\r\n     * Requests randomness from a user-provided seed\r\n     */\r\n    function requestRandomNumber() external whenNotPaused {\r\n        require(hasRole(RANDOMNESS_REQUESTER, msg.sender), \"Sender cannot request seed\");\r\n        require(LINK.balanceOf(address(this)) >= fee, \"Not enough LINK\");\r\n\r\n        // the user-provided seed is not necessary, as per the docs\r\n        // hence we set it to an arbitrary constant\r\n        requestRandomness(keyHash, fee, VRF_MAGIC_SEED);\r\n    }\r\n\r\n    function pause() external onlyOwner {\r\n        _pause();\r\n    }\r\n\r\n    function unpause() external onlyOwner {\r\n        _unpause();\r\n    }\r\n\r\n    /**\r\n     * Callback function used by VRF Coordinator\r\n     */\r\n    function fulfillRandomness(bytes32 /* requestId */, uint256 randomness) internal override {\r\n        seed = randomness;\r\n    }\r\n\r\n    function withdrawLink(uint256 tokenAmount) external onlyOwner {\r\n        // very awkward - but should be safe given that the LINK token is ERC20-compatible\r\n        IERC20(address(LINK)).safeTransfer(msg.sender, tokenAmount);\r\n    }\r\n\r\n    // Modifiers\r\n    modifier onlyOwner() {\r\n        require(hasRole(DEFAULT_ADMIN_ROLE, msg.sender), \"Not admin\");\r\n        _;\r\n    }\r\n}\r\n",
  "sourcePath": "C:/Users/Dan/Desktop/code/pessoal/CB_original/cryptoblades/contracts/ChainlinkRandoms.sol",
  "compiler": {
    "name": "solc",
    "version": "0.6.5+commit.f956cc89.Emscripten.clang"
  },
  "schemaVersion": "3.3.4",
  "updatedAt": "2021-08-09T12:18:06.837Z",
  "devdoc": {
    "methods": {
      "getRoleAdmin(bytes32)": {
        "details": "Returns the admin role that controls `role`. See {grantRole} and {revokeRole}.     * To change a role's admin, use {_setRoleAdmin}."
      },
      "getRoleMember(bytes32,uint256)": {
        "details": "Returns one of the accounts that have `role`. `index` must be a value between 0 and {getRoleMemberCount}, non-inclusive.     * Role bearers are not sorted in any particular way, and their ordering may change at any point.     * WARNING: When using {getRoleMember} and {getRoleMemberCount}, make sure you perform all queries on the same block. See the following https://forum.openzeppelin.com/t/iterating-over-elements-on-enumerableset-in-openzeppelin-contracts/2296[forum post] for more information."
      },
      "getRoleMemberCount(bytes32)": {
        "details": "Returns the number of accounts that have `role`. Can be used together with {getRoleMember} to enumerate all bearers of a role."
      },
      "grantRole(bytes32,address)": {
        "details": "Grants `role` to `account`.     * If `account` had not been already granted `role`, emits a {RoleGranted} event.     * Requirements:     * - the caller must have ``role``'s admin role."
      },
      "hasRole(bytes32,address)": {
        "details": "Returns `true` if `account` has been granted `role`."
      },
      "paused()": {
        "details": "Returns true if the contract is paused, and false otherwise."
      },
      "renounceRole(bytes32,address)": {
        "details": "Revokes `role` from the calling account.     * Roles are often managed via {grantRole} and {revokeRole}: this function's purpose is to provide a mechanism for accounts to lose their privileges if they are compromised (such as when a trusted device is misplaced).     * If the calling account had been granted `role`, emits a {RoleRevoked} event.     * Requirements:     * - the caller must be `account`."
      },
      "revokeRole(bytes32,address)": {
        "details": "Revokes `role` from `account`.     * If `account` had been granted `role`, emits a {RoleRevoked} event.     * Requirements:     * - the caller must have ``role``'s admin role."
      }
    }
  },
  "userdoc": {
    "methods": {
      "requestRandomNumber()": {
        "notice": "Requests randomness from a user-provided seed"
      }
    }
  }
}