{
  "contractName": "Promos",
  "abi": [
    {
      "anonymous": false,
      "inputs": [
        {
          "indexed": true,
          "internalType": "bytes32",
          "name": "role",
          "type": "bytes32"
        },
        {
          "indexed": true,
          "internalType": "bytes32",
          "name": "previousAdminRole",
          "type": "bytes32"
        },
        {
          "indexed": true,
          "internalType": "bytes32",
          "name": "newAdminRole",
          "type": "bytes32"
        }
      ],
      "name": "RoleAdminChanged",
      "type": "event"
    },
    {
      "anonymous": false,
      "inputs": [
        {
          "indexed": true,
          "internalType": "bytes32",
          "name": "role",
          "type": "bytes32"
        },
        {
          "indexed": true,
          "internalType": "address",
          "name": "account",
          "type": "address"
        },
        {
          "indexed": true,
          "internalType": "address",
          "name": "sender",
          "type": "address"
        }
      ],
      "name": "RoleGranted",
      "type": "event"
    },
    {
      "anonymous": false,
      "inputs": [
        {
          "indexed": true,
          "internalType": "bytes32",
          "name": "role",
          "type": "bytes32"
        },
        {
          "indexed": true,
          "internalType": "address",
          "name": "account",
          "type": "address"
        },
        {
          "indexed": true,
          "internalType": "address",
          "name": "sender",
          "type": "address"
        }
      ],
      "name": "RoleRevoked",
      "type": "event"
    },
    {
      "inputs": [],
      "name": "BIT_FIRST_CHARACTER",
      "outputs": [
        {
          "internalType": "uint256",
          "name": "",
          "type": "uint256"
        }
      ],
      "stateMutability": "view",
      "type": "function"
    },
    {
      "inputs": [],
      "name": "BIT_FOUNDER_SHIELD",
      "outputs": [
        {
          "internalType": "uint256",
          "name": "",
          "type": "uint256"
        }
      ],
      "stateMutability": "view",
      "type": "function"
    },
    {
      "inputs": [],
      "name": "DEFAULT_ADMIN_ROLE",
      "outputs": [
        {
          "internalType": "bytes32",
          "name": "",
          "type": "bytes32"
        }
      ],
      "stateMutability": "view",
      "type": "function"
    },
    {
      "inputs": [],
      "name": "GAME_ADMIN",
      "outputs": [
        {
          "internalType": "bytes32",
          "name": "",
          "type": "bytes32"
        }
      ],
      "stateMutability": "view",
      "type": "function"
    },
    {
      "inputs": [
        {
          "internalType": "address",
          "name": "",
          "type": "address"
        }
      ],
      "name": "bits",
      "outputs": [
        {
          "internalType": "uint256",
          "name": "",
          "type": "uint256"
        }
      ],
      "stateMutability": "view",
      "type": "function"
    },
    {
      "inputs": [],
      "name": "firstCharacterPromoInGameOnlyFundsGivenInUsd",
      "outputs": [
        {
          "internalType": "int128",
          "name": "",
          "type": "int128"
        }
      ],
      "stateMutability": "view",
      "type": "function"
    },
    {
      "inputs": [
        {
          "internalType": "bytes32",
          "name": "role",
          "type": "bytes32"
        }
      ],
      "name": "getRoleAdmin",
      "outputs": [
        {
          "internalType": "bytes32",
          "name": "",
          "type": "bytes32"
        }
      ],
      "stateMutability": "view",
      "type": "function"
    },
    {
      "inputs": [
        {
          "internalType": "bytes32",
          "name": "role",
          "type": "bytes32"
        },
        {
          "internalType": "uint256",
          "name": "index",
          "type": "uint256"
        }
      ],
      "name": "getRoleMember",
      "outputs": [
        {
          "internalType": "address",
          "name": "",
          "type": "address"
        }
      ],
      "stateMutability": "view",
      "type": "function"
    },
    {
      "inputs": [
        {
          "internalType": "bytes32",
          "name": "role",
          "type": "bytes32"
        }
      ],
      "name": "getRoleMemberCount",
      "outputs": [
        {
          "internalType": "uint256",
          "name": "",
          "type": "uint256"
        }
      ],
      "stateMutability": "view",
      "type": "function"
    },
    {
      "inputs": [
        {
          "internalType": "bytes32",
          "name": "role",
          "type": "bytes32"
        },
        {
          "internalType": "address",
          "name": "account",
          "type": "address"
        }
      ],
      "name": "grantRole",
      "outputs": [],
      "stateMutability": "nonpayable",
      "type": "function"
    },
    {
      "inputs": [
        {
          "internalType": "bytes32",
          "name": "role",
          "type": "bytes32"
        },
        {
          "internalType": "address",
          "name": "account",
          "type": "address"
        }
      ],
      "name": "hasRole",
      "outputs": [
        {
          "internalType": "bool",
          "name": "",
          "type": "bool"
        }
      ],
      "stateMutability": "view",
      "type": "function"
    },
    {
      "inputs": [
        {
          "internalType": "bytes32",
          "name": "role",
          "type": "bytes32"
        },
        {
          "internalType": "address",
          "name": "account",
          "type": "address"
        }
      ],
      "name": "renounceRole",
      "outputs": [],
      "stateMutability": "nonpayable",
      "type": "function"
    },
    {
      "inputs": [
        {
          "internalType": "bytes32",
          "name": "role",
          "type": "bytes32"
        },
        {
          "internalType": "address",
          "name": "account",
          "type": "address"
        }
      ],
      "name": "revokeRole",
      "outputs": [],
      "stateMutability": "nonpayable",
      "type": "function"
    },
    {
      "inputs": [],
      "name": "initialize",
      "outputs": [],
      "stateMutability": "nonpayable",
      "type": "function"
    },
    {
      "inputs": [],
      "name": "migrateTo_f73df27",
      "outputs": [],
      "stateMutability": "nonpayable",
      "type": "function"
    },
    {
      "inputs": [
        {
          "internalType": "address",
          "name": "user",
          "type": "address"
        },
        {
          "internalType": "uint256",
          "name": "bit",
          "type": "uint256"
        }
      ],
      "name": "setBit",
      "outputs": [],
      "stateMutability": "nonpayable",
      "type": "function"
    },
    {
      "inputs": [
        {
          "internalType": "address",
          "name": "user",
          "type": "address"
        },
        {
          "internalType": "uint256",
          "name": "bit",
          "type": "uint256"
        }
      ],
      "name": "unsetBit",
      "outputs": [],
      "stateMutability": "nonpayable",
      "type": "function"
    },
    {
      "inputs": [
        {
          "internalType": "address",
          "name": "user",
          "type": "address"
        },
        {
          "internalType": "uint256",
          "name": "bit",
          "type": "uint256"
        }
      ],
      "name": "getBit",
      "outputs": [
        {
          "internalType": "bool",
          "name": "",
          "type": "bool"
        }
      ],
      "stateMutability": "view",
      "type": "function"
    },
    {
      "inputs": [],
      "name": "firstCharacterPromoInGameOnlyFundsGivenInUsdAsCents",
      "outputs": [
        {
          "internalType": "uint256",
          "name": "",
          "type": "uint256"
        }
      ],
      "stateMutability": "view",
      "type": "function"
    },
    {
      "inputs": [
        {
          "internalType": "uint256",
          "name": "_usdCents",
          "type": "uint256"
        }
      ],
      "name": "setFirstCharacterPromoInGameOnlyFundsGivenInUsdAsCents",
      "outputs": [],
      "stateMutability": "nonpayable",
      "type": "function"
    },
    {
      "inputs": [
        {
          "internalType": "uint256",
          "name": "_numerator",
          "type": "uint256"
        },
        {
          "internalType": "uint256",
          "name": "_denominator",
          "type": "uint256"
        }
      ],
      "name": "setFirstCharacterPromoInGameOnlyFundsGivenInUsdAsRational",
      "outputs": [],
      "stateMutability": "nonpayable",
      "type": "function"
    }
  ],
  "bytecode": "0x608060405234801561001057600080fd5b506110a4806100206000396000f3fe608060405234801561001057600080fd5b50600436106101375760003560e01c80635504d3d2116100b8578063a217fddf1161007c578063a217fddf14610349578063bf2a28cf14610351578063ca15c87314610359578063d547741f14610376578063d5db16f9146103a2578063e3808b82146103c857610137565b80635504d3d2146102a25780637dc18a3a146102aa5780638129fc1c146102d65780639010d07c146102de57806391d148541461031d57610137565b8063260730e0116100ff578063260730e0146101bd5780632f2ff15d146101e957806336568abe14610215578063434d82a3146102415780635249fb6d1461028157610137565b806309cc8d461461013c5780631976bd471461015b5780631c4e328b1461017e578063248a9ca31461018657806324a9db2a146101b5575b600080fd5b6101596004803603602081101561015257600080fd5b50356103d0565b005b6101596004803603604081101561017157600080fd5b508035906020013561046e565b61015961050c565b6101a36004803603602081101561019c57600080fd5b5035610588565b60408051918252519081900360200190f35b6101a361059d565b610159600480360360408110156101d357600080fd5b506001600160a01b0381351690602001356105c0565b610159600480360360408110156101ff57600080fd5b50803590602001356001600160a01b031661064d565b6101596004803603604081101561022b57600080fd5b50803590602001356001600160a01b03166106b9565b61026d6004803603604081101561025757600080fd5b506001600160a01b03813516906020013561071a565b604080519115158252519081900360200190f35b61028961073e565b60408051600f92830b90920b8252519081900360200190f35b6101a3610747565b610159600480360360408110156102c057600080fd5b506001600160a01b038135169060200135610769565b6101596107f9565b610301600480360360408110156102f457600080fd5b50803590602001356108ae565b604080516001600160a01b039092168252519081900360200190f35b61026d6004803603604081101561033357600080fd5b50803590602001356001600160a01b03166108d3565b6101a36108f1565b6101a36108f6565b6101a36004803603602081101561036f57600080fd5b50356108fb565b6101596004803603604081101561038c57600080fd5b50803590602001356001600160a01b0316610912565b6101a3600480360360208110156103b857600080fd5b50356001600160a01b031661096b565b6101a361097d565b604080516923a0a6a2afa0a226a4a760b11b8152905190819003600a0190206103f990336108d3565b61043b576040805162461bcd60e51b815260206004820152600e60248201526d2737ba1033b0b6b29030b236b4b760911b604482015290519081900360640190fd5b610446816064610982565b60668054600f9290920b6001600160801b03166001600160801b031990921691909117905550565b604080516923a0a6a2afa0a226a4a760b11b8152905190819003600a01902061049790336108d3565b6104d9576040805162461bcd60e51b815260206004820152600e60248201526d2737ba1033b0b6b29030b236b4b760911b604482015290519081900360640190fd5b6104e38282610982565b60668054600f9290920b6001600160801b03166001600160801b03199092169190911790555050565b6105176000336108d3565b610554576040805162461bcd60e51b81526020600482015260096024820152682737ba1030b236b4b760b91b604482015290519081900360640190fd5b6105616143446064610982565b60668054600f9290920b6001600160801b03166001600160801b0319909216919091179055565b60009081526033602052604090206002015490565b6066546000906105bb90600f90810b900b606463ffffffff6109c216565b905090565b604080516923a0a6a2afa0a226a4a760b11b8152905190819003600a0190206105e990336108d3565b61062b576040805162461bcd60e51b815260206004820152600e60248201526d2737ba1033b0b6b29030b236b4b760911b604482015290519081900360640190fd5b6001600160a01b03909116600090815260656020526040902080549091179055565b6000828152603360205260409020600201546106709061066b610a2a565b6108d3565b6106ab5760405162461bcd60e51b815260040180806020018281038252602f815260200180610fb3602f913960400191505060405180910390fd5b6106b58282610a2e565b5050565b6106c1610a2a565b6001600160a01b0316816001600160a01b0316146107105760405162461bcd60e51b815260040180806020018281038252602f815260200180611040602f913960400191505060405180910390fd5b6106b58282610a9d565b6001600160a01b038216600090815260656020526040902054811681145b92915050565b606654600f0b81565b604080516923a0a6a2afa0a226a4a760b11b8152905190819003600a01902081565b604080516923a0a6a2afa0a226a4a760b11b8152905190819003600a01902061079290336108d3565b6107d4576040805162461bcd60e51b815260206004820152600e60248201526d2737ba1033b0b6b29030b236b4b760911b604482015290519081900360640190fd5b6001600160a01b03909116600090815260656020526040902080549119919091169055565b600054610100900460ff16806108125750610812610b0c565b80610820575060005460ff16155b61085b5760405162461bcd60e51b815260040180806020018281038252602e815260200180611012602e913960400191505060405180910390fd5b600054610100900460ff16158015610886576000805460ff1961ff0019909116610100171660011790555b61088e610b1d565b6108996000336106ab565b80156108ab576000805461ff00191690555b50565b60008281526033602052604081206108cc908363ffffffff610bba16565b9392505050565b60008281526033602052604081206108cc908363ffffffff610bc616565b600081565b600181565b600081815260336020526040812061073890610bdb565b6000828152603360205260409020600201546109309061066b610a2a565b6107105760405162461bcd60e51b8152600401808060200182810382526030815260200180610fe26030913960400191505060405180910390fd5b60656020526000908152604090205481565b600281565b60008161098e57600080fd5b600061099a8484610be6565b90506f7fffffffffffffffffffffffffffffff6001600160801b03821611156108cc57600080fd5b6000816109d157506000610738565b600083600f0b12156109e257600080fd5b600f83900b6001600160801b038316810260401c90608084901c026001600160c01b03811115610a1157600080fd5b60401b8119811115610a2257600080fd5b019392505050565b3390565b6000828152603360205260409020610a4c908263ffffffff610d3016565b156106b557610a59610a2a565b6001600160a01b0316816001600160a01b0316837f2f8788117e7eff1d82e926ec794901d17c78024a50270940304540a733656f0d60405160405180910390a45050565b6000828152603360205260409020610abb908263ffffffff610d4516565b156106b557610ac8610a2a565b6001600160a01b0316816001600160a01b0316837ff6391f5c32d9c69d2a47ea670b442974b53935d1edc7fd64eb21e047a839171b60405160405180910390a45050565b6000610b1730610d5a565b15905090565b600054610100900460ff1680610b365750610b36610b0c565b80610b44575060005460ff16155b610b7f5760405162461bcd60e51b815260040180806020018281038252602e815260200180611012602e913960400191505060405180910390fd5b600054610100900460ff16158015610baa576000805460ff1961ff0019909116610100171660011790555b610bb2610d60565b610899610d60565b60006108cc8383610e00565b60006108cc836001600160a01b038416610e64565b600061073882610e7c565b600081610bf257600080fd5b60006001600160c01b038411610c175782604085901b81610c0f57fe5b049050610d1c565b60c084811c6401000000008110610c30576020918201911c5b620100008110610c42576010918201911c5b6101008110610c53576008918201911c5b60108110610c63576004918201911c5b60048110610c73576002918201911c5b60028110610c82576001820191505b60bf820360018603901c6001018260ff0387901b81610c9d57fe5b0492506001600160801b03831115610cb457600080fd5b608085901c83026001600160801b038616840260c088901c604089901b82811015610ce0576001820391505b608084901b92900382811015610cf7576001820391505b829003608084901c8214610d0757fe5b888181610d1057fe5b04870196505050505050505b6001600160801b038111156108cc57600080fd5b60006108cc836001600160a01b038416610e80565b60006108cc836001600160a01b038416610eca565b3b151590565b600054610100900460ff1680610d795750610d79610b0c565b80610d87575060005460ff16155b610dc25760405162461bcd60e51b815260040180806020018281038252602e815260200180611012602e913960400191505060405180910390fd5b600054610100900460ff16158015610899576000805460ff1961ff00199091166101001716600117905580156108ab576000805461ff001916905550565b81546000908210610e425760405162461bcd60e51b8152600401808060200182810382526022815260200180610f916022913960400191505060405180910390fd5b826000018281548110610e5157fe5b9060005260206000200154905092915050565b60009081526001919091016020526040902054151590565b5490565b6000610e8c8383610e64565b610ec257508154600181810184556000848152602080822090930184905584548482528286019093526040902091909155610738565b506000610738565b60008181526001830160205260408120548015610f865783546000198083019190810190600090879083908110610efd57fe5b9060005260206000200154905080876000018481548110610f1a57fe5b600091825260208083209091019290925582815260018981019092526040902090840190558654879080610f4a57fe5b60019003818190600052602060002001600090559055866001016000878152602001908152602001600020600090556001945050505050610738565b600091505061073856fe456e756d657261626c655365743a20696e646578206f7574206f6620626f756e6473416363657373436f6e74726f6c3a2073656e646572206d75737420626520616e2061646d696e20746f206772616e74416363657373436f6e74726f6c3a2073656e646572206d75737420626520616e2061646d696e20746f207265766f6b65496e697469616c697a61626c653a20636f6e747261637420697320616c726561647920696e697469616c697a6564416363657373436f6e74726f6c3a2063616e206f6e6c792072656e6f756e636520726f6c657320666f722073656c66a26469706673582212202288ba3d73202fe5645cbc78c3e24461e6ac1389fad120f25a96439496a1cbe264736f6c63430006050033",
  "immutableReferences": {},
  "source": "pragma solidity ^0.6.0;\r\n\r\nimport \"@openzeppelin/contracts-upgradeable/proxy/Initializable.sol\";\r\nimport \"@openzeppelin/contracts-upgradeable/access/AccessControlUpgradeable.sol\";\r\nimport \"abdk-libraries-solidity/ABDKMath64x64.sol\";\r\n\r\ncontract Promos is Initializable, AccessControlUpgradeable {\r\n    using ABDKMath64x64 for int128;\r\n\r\n    bytes32 public constant GAME_ADMIN = keccak256(\"GAME_ADMIN\");\r\n\r\n    function initialize() public initializer {\r\n        __AccessControl_init();\r\n\r\n        _setupRole(DEFAULT_ADMIN_ROLE, msg.sender);\r\n    }\r\n\r\n    function migrateTo_f73df27() external {\r\n        require(hasRole(DEFAULT_ADMIN_ROLE, msg.sender), \"Not admin\");\r\n\r\n        firstCharacterPromoInGameOnlyFundsGivenInUsd = ABDKMath64x64.divu(\r\n            17220,\r\n            100\r\n        );\r\n    }\r\n\r\n    mapping(address => uint256) public bits;\r\n    uint256 public constant BIT_FIRST_CHARACTER = 1;\r\n    uint256 public constant BIT_FOUNDER_SHIELD = 2;\r\n\r\n    int128 public firstCharacterPromoInGameOnlyFundsGivenInUsd;\r\n\r\n    modifier restricted() {\r\n        require(hasRole(GAME_ADMIN, msg.sender), \"Not game admin\");\r\n        _;\r\n    }\r\n\r\n    function setBit(address user, uint256 bit) public restricted {\r\n        bits[user] |= bit;\r\n    }\r\n\r\n    function unsetBit(address user, uint256 bit) public restricted {\r\n        bits[user] &= ~bit;\r\n    }\r\n\r\n    function getBit(address user, uint256 bit) public view returns (bool) {\r\n        return (bits[user] & bit) == bit;\r\n    }\r\n\r\n    function firstCharacterPromoInGameOnlyFundsGivenInUsdAsCents() external view returns (uint256) {\r\n        return firstCharacterPromoInGameOnlyFundsGivenInUsd.mulu(100);\r\n    }\r\n\r\n    function setFirstCharacterPromoInGameOnlyFundsGivenInUsdAsCents(\r\n        uint256 _usdCents\r\n    ) external restricted {\r\n        firstCharacterPromoInGameOnlyFundsGivenInUsd = ABDKMath64x64.divu(\r\n            _usdCents,\r\n            100\r\n        );\r\n    }\r\n\r\n    function setFirstCharacterPromoInGameOnlyFundsGivenInUsdAsRational(\r\n        uint256 _numerator,\r\n        uint256 _denominator\r\n    ) external restricted {\r\n        firstCharacterPromoInGameOnlyFundsGivenInUsd = ABDKMath64x64.divu(\r\n            _numerator,\r\n            _denominator\r\n        );\r\n    }\r\n}\r\n",
  "sourcePath": "C:\\Users\\Dan\\Desktop\\code\\pessoal\\CB_original\\cryptoblades\\contracts\\Promos.sol",
  "compiler": {
    "name": "solc",
    "version": "0.6.5+commit.f956cc89.Emscripten.clang"
  },
  "schemaVersion": "3.3.4",
  "updatedAt": "2021-08-09T12:18:06.902Z",
  "devdoc": {
    "methods": {
      "getRoleAdmin(bytes32)": {
        "details": "Returns the admin role that controls `role`. See {grantRole} and {revokeRole}.     * To change a role's admin, use {_setRoleAdmin}."
      },
      "getRoleMember(bytes32,uint256)": {
        "details": "Returns one of the accounts that have `role`. `index` must be a value between 0 and {getRoleMemberCount}, non-inclusive.     * Role bearers are not sorted in any particular way, and their ordering may change at any point.     * WARNING: When using {getRoleMember} and {getRoleMemberCount}, make sure you perform all queries on the same block. See the following https://forum.openzeppelin.com/t/iterating-over-elements-on-enumerableset-in-openzeppelin-contracts/2296[forum post] for more information."
      },
      "getRoleMemberCount(bytes32)": {
        "details": "Returns the number of accounts that have `role`. Can be used together with {getRoleMember} to enumerate all bearers of a role."
      },
      "grantRole(bytes32,address)": {
        "details": "Grants `role` to `account`.     * If `account` had not been already granted `role`, emits a {RoleGranted} event.     * Requirements:     * - the caller must have ``role``'s admin role."
      },
      "hasRole(bytes32,address)": {
        "details": "Returns `true` if `account` has been granted `role`."
      },
      "renounceRole(bytes32,address)": {
        "details": "Revokes `role` from the calling account.     * Roles are often managed via {grantRole} and {revokeRole}: this function's purpose is to provide a mechanism for accounts to lose their privileges if they are compromised (such as when a trusted device is misplaced).     * If the calling account had been granted `role`, emits a {RoleRevoked} event.     * Requirements:     * - the caller must be `account`."
      },
      "revokeRole(bytes32,address)": {
        "details": "Revokes `role` from `account`.     * If `account` had been granted `role`, emits a {RoleRevoked} event.     * Requirements:     * - the caller must have ``role``'s admin role."
      }
    }
  },
  "userdoc": {
    "methods": {}
  }
}