{
  "contractName": "Shields",
  "abi": [
    {
      "anonymous": false,
      "inputs": [
        {
          "indexed": true,
          "internalType": "address",
          "name": "owner",
          "type": "address"
        },
        {
          "indexed": true,
          "internalType": "address",
          "name": "approved",
          "type": "address"
        },
        {
          "indexed": true,
          "internalType": "uint256",
          "name": "tokenId",
          "type": "uint256"
        }
      ],
      "name": "Approval",
      "type": "event"
    },
    {
      "anonymous": false,
      "inputs": [
        {
          "indexed": true,
          "internalType": "address",
          "name": "owner",
          "type": "address"
        },
        {
          "indexed": true,
          "internalType": "address",
          "name": "operator",
          "type": "address"
        },
        {
          "indexed": false,
          "internalType": "bool",
          "name": "approved",
          "type": "bool"
        }
      ],
      "name": "ApprovalForAll",
      "type": "event"
    },
    {
      "anonymous": false,
      "inputs": [
        {
          "indexed": true,
          "internalType": "uint256",
          "name": "shield",
          "type": "uint256"
        },
        {
          "indexed": true,
          "internalType": "address",
          "name": "minter",
          "type": "address"
        }
      ],
      "name": "NewShield",
      "type": "event"
    },
    {
      "anonymous": false,
      "inputs": [
        {
          "indexed": true,
          "internalType": "bytes32",
          "name": "role",
          "type": "bytes32"
        },
        {
          "indexed": true,
          "internalType": "bytes32",
          "name": "previousAdminRole",
          "type": "bytes32"
        },
        {
          "indexed": true,
          "internalType": "bytes32",
          "name": "newAdminRole",
          "type": "bytes32"
        }
      ],
      "name": "RoleAdminChanged",
      "type": "event"
    },
    {
      "anonymous": false,
      "inputs": [
        {
          "indexed": true,
          "internalType": "bytes32",
          "name": "role",
          "type": "bytes32"
        },
        {
          "indexed": true,
          "internalType": "address",
          "name": "account",
          "type": "address"
        },
        {
          "indexed": true,
          "internalType": "address",
          "name": "sender",
          "type": "address"
        }
      ],
      "name": "RoleGranted",
      "type": "event"
    },
    {
      "anonymous": false,
      "inputs": [
        {
          "indexed": true,
          "internalType": "bytes32",
          "name": "role",
          "type": "bytes32"
        },
        {
          "indexed": true,
          "internalType": "address",
          "name": "account",
          "type": "address"
        },
        {
          "indexed": true,
          "internalType": "address",
          "name": "sender",
          "type": "address"
        }
      ],
      "name": "RoleRevoked",
      "type": "event"
    },
    {
      "anonymous": false,
      "inputs": [
        {
          "indexed": true,
          "internalType": "address",
          "name": "from",
          "type": "address"
        },
        {
          "indexed": true,
          "internalType": "address",
          "name": "to",
          "type": "address"
        },
        {
          "indexed": true,
          "internalType": "uint256",
          "name": "tokenId",
          "type": "uint256"
        }
      ],
      "name": "Transfer",
      "type": "event"
    },
    {
      "inputs": [],
      "name": "DEFAULT_ADMIN_ROLE",
      "outputs": [
        {
          "internalType": "bytes32",
          "name": "",
          "type": "bytes32"
        }
      ],
      "stateMutability": "view",
      "type": "function"
    },
    {
      "inputs": [],
      "name": "GAME_ADMIN",
      "outputs": [
        {
          "internalType": "bytes32",
          "name": "",
          "type": "bytes32"
        }
      ],
      "stateMutability": "view",
      "type": "function"
    },
    {
      "inputs": [
        {
          "internalType": "address",
          "name": "to",
          "type": "address"
        },
        {
          "internalType": "uint256",
          "name": "tokenId",
          "type": "uint256"
        }
      ],
      "name": "approve",
      "outputs": [],
      "stateMutability": "nonpayable",
      "type": "function"
    },
    {
      "inputs": [
        {
          "internalType": "address",
          "name": "owner",
          "type": "address"
        }
      ],
      "name": "balanceOf",
      "outputs": [
        {
          "internalType": "uint256",
          "name": "",
          "type": "uint256"
        }
      ],
      "stateMutability": "view",
      "type": "function"
    },
    {
      "inputs": [],
      "name": "baseURI",
      "outputs": [
        {
          "internalType": "string",
          "name": "",
          "type": "string"
        }
      ],
      "stateMutability": "view",
      "type": "function"
    },
    {
      "inputs": [],
      "name": "defenseMultPerPointBasic",
      "outputs": [
        {
          "internalType": "int128",
          "name": "",
          "type": "int128"
        }
      ],
      "stateMutability": "view",
      "type": "function"
    },
    {
      "inputs": [],
      "name": "defenseMultPerPointDEF",
      "outputs": [
        {
          "internalType": "int128",
          "name": "",
          "type": "int128"
        }
      ],
      "stateMutability": "view",
      "type": "function"
    },
    {
      "inputs": [],
      "name": "defenseMultPerPointMatching",
      "outputs": [
        {
          "internalType": "int128",
          "name": "",
          "type": "int128"
        }
      ],
      "stateMutability": "view",
      "type": "function"
    },
    {
      "inputs": [
        {
          "internalType": "uint256",
          "name": "tokenId",
          "type": "uint256"
        }
      ],
      "name": "getApproved",
      "outputs": [
        {
          "internalType": "address",
          "name": "",
          "type": "address"
        }
      ],
      "stateMutability": "view",
      "type": "function"
    },
    {
      "inputs": [
        {
          "internalType": "bytes32",
          "name": "role",
          "type": "bytes32"
        }
      ],
      "name": "getRoleAdmin",
      "outputs": [
        {
          "internalType": "bytes32",
          "name": "",
          "type": "bytes32"
        }
      ],
      "stateMutability": "view",
      "type": "function"
    },
    {
      "inputs": [
        {
          "internalType": "bytes32",
          "name": "role",
          "type": "bytes32"
        },
        {
          "internalType": "uint256",
          "name": "index",
          "type": "uint256"
        }
      ],
      "name": "getRoleMember",
      "outputs": [
        {
          "internalType": "address",
          "name": "",
          "type": "address"
        }
      ],
      "stateMutability": "view",
      "type": "function"
    },
    {
      "inputs": [
        {
          "internalType": "bytes32",
          "name": "role",
          "type": "bytes32"
        }
      ],
      "name": "getRoleMemberCount",
      "outputs": [
        {
          "internalType": "uint256",
          "name": "",
          "type": "uint256"
        }
      ],
      "stateMutability": "view",
      "type": "function"
    },
    {
      "inputs": [
        {
          "internalType": "bytes32",
          "name": "role",
          "type": "bytes32"
        },
        {
          "internalType": "address",
          "name": "account",
          "type": "address"
        }
      ],
      "name": "grantRole",
      "outputs": [],
      "stateMutability": "nonpayable",
      "type": "function"
    },
    {
      "inputs": [
        {
          "internalType": "bytes32",
          "name": "role",
          "type": "bytes32"
        },
        {
          "internalType": "address",
          "name": "account",
          "type": "address"
        }
      ],
      "name": "hasRole",
      "outputs": [
        {
          "internalType": "bool",
          "name": "",
          "type": "bool"
        }
      ],
      "stateMutability": "view",
      "type": "function"
    },
    {
      "inputs": [
        {
          "internalType": "address",
          "name": "owner",
          "type": "address"
        },
        {
          "internalType": "address",
          "name": "operator",
          "type": "address"
        }
      ],
      "name": "isApprovedForAll",
      "outputs": [
        {
          "internalType": "bool",
          "name": "",
          "type": "bool"
        }
      ],
      "stateMutability": "view",
      "type": "function"
    },
    {
      "inputs": [],
      "name": "maxDurability",
      "outputs": [
        {
          "internalType": "uint256",
          "name": "",
          "type": "uint256"
        }
      ],
      "stateMutability": "view",
      "type": "function"
    },
    {
      "inputs": [],
      "name": "name",
      "outputs": [
        {
          "internalType": "string",
          "name": "",
          "type": "string"
        }
      ],
      "stateMutability": "view",
      "type": "function"
    },
    {
      "inputs": [
        {
          "internalType": "uint256",
          "name": "tokenId",
          "type": "uint256"
        }
      ],
      "name": "ownerOf",
      "outputs": [
        {
          "internalType": "address",
          "name": "",
          "type": "address"
        }
      ],
      "stateMutability": "view",
      "type": "function"
    },
    {
      "inputs": [
        {
          "internalType": "bytes32",
          "name": "role",
          "type": "bytes32"
        },
        {
          "internalType": "address",
          "name": "account",
          "type": "address"
        }
      ],
      "name": "renounceRole",
      "outputs": [],
      "stateMutability": "nonpayable",
      "type": "function"
    },
    {
      "inputs": [
        {
          "internalType": "bytes32",
          "name": "role",
          "type": "bytes32"
        },
        {
          "internalType": "address",
          "name": "account",
          "type": "address"
        }
      ],
      "name": "revokeRole",
      "outputs": [],
      "stateMutability": "nonpayable",
      "type": "function"
    },
    {
      "inputs": [
        {
          "internalType": "address",
          "name": "from",
          "type": "address"
        },
        {
          "internalType": "address",
          "name": "to",
          "type": "address"
        },
        {
          "internalType": "uint256",
          "name": "tokenId",
          "type": "uint256"
        }
      ],
      "name": "safeTransferFrom",
      "outputs": [],
      "stateMutability": "nonpayable",
      "type": "function"
    },
    {
      "inputs": [
        {
          "internalType": "address",
          "name": "from",
          "type": "address"
        },
        {
          "internalType": "address",
          "name": "to",
          "type": "address"
        },
        {
          "internalType": "uint256",
          "name": "tokenId",
          "type": "uint256"
        },
        {
          "internalType": "bytes",
          "name": "_data",
          "type": "bytes"
        }
      ],
      "name": "safeTransferFrom",
      "outputs": [],
      "stateMutability": "nonpayable",
      "type": "function"
    },
    {
      "inputs": [],
      "name": "secondsPerDurability",
      "outputs": [
        {
          "internalType": "uint256",
          "name": "",
          "type": "uint256"
        }
      ],
      "stateMutability": "view",
      "type": "function"
    },
    {
      "inputs": [
        {
          "internalType": "address",
          "name": "operator",
          "type": "address"
        },
        {
          "internalType": "bool",
          "name": "approved",
          "type": "bool"
        }
      ],
      "name": "setApprovalForAll",
      "outputs": [],
      "stateMutability": "nonpayable",
      "type": "function"
    },
    {
      "inputs": [],
      "name": "shieldBaseMultiplier",
      "outputs": [
        {
          "internalType": "int128",
          "name": "",
          "type": "int128"
        }
      ],
      "stateMutability": "view",
      "type": "function"
    },
    {
      "inputs": [
        {
          "internalType": "bytes4",
          "name": "interfaceId",
          "type": "bytes4"
        }
      ],
      "name": "supportsInterface",
      "outputs": [
        {
          "internalType": "bool",
          "name": "",
          "type": "bool"
        }
      ],
      "stateMutability": "view",
      "type": "function"
    },
    {
      "inputs": [],
      "name": "symbol",
      "outputs": [
        {
          "internalType": "string",
          "name": "",
          "type": "string"
        }
      ],
      "stateMutability": "view",
      "type": "function"
    },
    {
      "inputs": [
        {
          "internalType": "uint256",
          "name": "index",
          "type": "uint256"
        }
      ],
      "name": "tokenByIndex",
      "outputs": [
        {
          "internalType": "uint256",
          "name": "",
          "type": "uint256"
        }
      ],
      "stateMutability": "view",
      "type": "function"
    },
    {
      "inputs": [
        {
          "internalType": "address",
          "name": "owner",
          "type": "address"
        },
        {
          "internalType": "uint256",
          "name": "index",
          "type": "uint256"
        }
      ],
      "name": "tokenOfOwnerByIndex",
      "outputs": [
        {
          "internalType": "uint256",
          "name": "",
          "type": "uint256"
        }
      ],
      "stateMutability": "view",
      "type": "function"
    },
    {
      "inputs": [
        {
          "internalType": "uint256",
          "name": "tokenId",
          "type": "uint256"
        }
      ],
      "name": "tokenURI",
      "outputs": [
        {
          "internalType": "string",
          "name": "",
          "type": "string"
        }
      ],
      "stateMutability": "view",
      "type": "function"
    },
    {
      "inputs": [],
      "name": "totalSupply",
      "outputs": [
        {
          "internalType": "uint256",
          "name": "",
          "type": "uint256"
        }
      ],
      "stateMutability": "view",
      "type": "function"
    },
    {
      "inputs": [
        {
          "internalType": "address",
          "name": "from",
          "type": "address"
        },
        {
          "internalType": "address",
          "name": "to",
          "type": "address"
        },
        {
          "internalType": "uint256",
          "name": "tokenId",
          "type": "uint256"
        }
      ],
      "name": "transferFrom",
      "outputs": [],
      "stateMutability": "nonpayable",
      "type": "function"
    },
    {
      "inputs": [],
      "name": "initialize",
      "outputs": [],
      "stateMutability": "nonpayable",
      "type": "function"
    },
    {
      "inputs": [
        {
          "internalType": "uint256",
          "name": "id",
          "type": "uint256"
        }
      ],
      "name": "get",
      "outputs": [
        {
          "internalType": "uint16",
          "name": "_properties",
          "type": "uint16"
        },
        {
          "internalType": "uint16",
          "name": "_stat1",
          "type": "uint16"
        },
        {
          "internalType": "uint16",
          "name": "_stat2",
          "type": "uint16"
        },
        {
          "internalType": "uint16",
          "name": "_stat3",
          "type": "uint16"
        }
      ],
      "stateMutability": "view",
      "type": "function"
    },
    {
      "inputs": [],
      "name": "getOwned",
      "outputs": [
        {
          "internalType": "uint256[]",
          "name": "",
          "type": "uint256[]"
        }
      ],
      "stateMutability": "view",
      "type": "function"
    },
    {
      "inputs": [
        {
          "internalType": "address",
          "name": "owner",
          "type": "address"
        }
      ],
      "name": "getOwnedBy",
      "outputs": [
        {
          "internalType": "uint256[]",
          "name": "",
          "type": "uint256[]"
        }
      ],
      "stateMutability": "view",
      "type": "function"
    },
    {
      "inputs": [
        {
          "internalType": "address",
          "name": "buyer",
          "type": "address"
        }
      ],
      "name": "mintForPurchase",
      "outputs": [],
      "stateMutability": "nonpayable",
      "type": "function"
    },
    {
      "inputs": [
        {
          "internalType": "address",
          "name": "minter",
          "type": "address"
        },
        {
          "internalType": "uint256",
          "name": "seed",
          "type": "uint256"
        }
      ],
      "name": "mint",
      "outputs": [
        {
          "internalType": "uint256",
          "name": "",
          "type": "uint256"
        }
      ],
      "stateMutability": "nonpayable",
      "type": "function"
    },
    {
      "inputs": [
        {
          "internalType": "address",
          "name": "minter",
          "type": "address"
        },
        {
          "internalType": "uint256",
          "name": "stars",
          "type": "uint256"
        },
        {
          "internalType": "uint256",
          "name": "seed",
          "type": "uint256"
        }
      ],
      "name": "mintShieldWithStars",
      "outputs": [
        {
          "internalType": "uint256",
          "name": "",
          "type": "uint256"
        }
      ],
      "stateMutability": "nonpayable",
      "type": "function"
    },
    {
      "inputs": [
        {
          "internalType": "address",
          "name": "minter",
          "type": "address"
        },
        {
          "internalType": "uint16",
          "name": "properties",
          "type": "uint16"
        },
        {
          "internalType": "uint16",
          "name": "stat1",
          "type": "uint16"
        },
        {
          "internalType": "uint16",
          "name": "stat2",
          "type": "uint16"
        },
        {
          "internalType": "uint16",
          "name": "stat3",
          "type": "uint16"
        },
        {
          "internalType": "uint256",
          "name": "cosmeticSeed",
          "type": "uint256"
        }
      ],
      "name": "performMintShield",
      "outputs": [
        {
          "internalType": "uint256",
          "name": "",
          "type": "uint256"
        }
      ],
      "stateMutability": "nonpayable",
      "type": "function"
    },
    {
      "inputs": [
        {
          "internalType": "uint256",
          "name": "stars",
          "type": "uint256"
        },
        {
          "internalType": "uint256",
          "name": "seed",
          "type": "uint256"
        }
      ],
      "name": "getRandomProperties",
      "outputs": [
        {
          "internalType": "uint16",
          "name": "",
          "type": "uint16"
        }
      ],
      "stateMutability": "pure",
      "type": "function"
    },
    {
      "inputs": [
        {
          "internalType": "uint16",
          "name": "minRoll",
          "type": "uint16"
        },
        {
          "internalType": "uint16",
          "name": "maxRoll",
          "type": "uint16"
        },
        {
          "internalType": "uint256",
          "name": "seed",
          "type": "uint256"
        },
        {
          "internalType": "uint256",
          "name": "seed2",
          "type": "uint256"
        }
      ],
      "name": "getRandomStat",
      "outputs": [
        {
          "internalType": "uint16",
          "name": "",
          "type": "uint16"
        }
      ],
      "stateMutability": "pure",
      "type": "function"
    },
    {
      "inputs": [
        {
          "internalType": "uint256",
          "name": "seed",
          "type": "uint256"
        },
        {
          "internalType": "uint256",
          "name": "seed2",
          "type": "uint256"
        },
        {
          "internalType": "uint8",
          "name": "limit",
          "type": "uint8"
        }
      ],
      "name": "getRandomCosmetic",
      "outputs": [
        {
          "internalType": "uint8",
          "name": "",
          "type": "uint8"
        }
      ],
      "stateMutability": "pure",
      "type": "function"
    },
    {
      "inputs": [
        {
          "internalType": "uint256",
          "name": "stars",
          "type": "uint256"
        }
      ],
      "name": "getStatMinRoll",
      "outputs": [
        {
          "internalType": "uint16",
          "name": "",
          "type": "uint16"
        }
      ],
      "stateMutability": "pure",
      "type": "function"
    },
    {
      "inputs": [
        {
          "internalType": "uint256",
          "name": "stars",
          "type": "uint256"
        }
      ],
      "name": "getStatMaxRoll",
      "outputs": [
        {
          "internalType": "uint16",
          "name": "",
          "type": "uint16"
        }
      ],
      "stateMutability": "pure",
      "type": "function"
    },
    {
      "inputs": [
        {
          "internalType": "uint256",
          "name": "stars",
          "type": "uint256"
        }
      ],
      "name": "getStatCount",
      "outputs": [
        {
          "internalType": "uint8",
          "name": "",
          "type": "uint8"
        }
      ],
      "stateMutability": "pure",
      "type": "function"
    },
    {
      "inputs": [
        {
          "internalType": "uint256",
          "name": "id",
          "type": "uint256"
        }
      ],
      "name": "getProperties",
      "outputs": [
        {
          "internalType": "uint16",
          "name": "",
          "type": "uint16"
        }
      ],
      "stateMutability": "view",
      "type": "function"
    },
    {
      "inputs": [
        {
          "internalType": "uint256",
          "name": "id",
          "type": "uint256"
        }
      ],
      "name": "getStars",
      "outputs": [
        {
          "internalType": "uint8",
          "name": "",
          "type": "uint8"
        }
      ],
      "stateMutability": "view",
      "type": "function"
    },
    {
      "inputs": [
        {
          "internalType": "uint16",
          "name": "properties",
          "type": "uint16"
        }
      ],
      "name": "getStarsFromProperties",
      "outputs": [
        {
          "internalType": "uint8",
          "name": "",
          "type": "uint8"
        }
      ],
      "stateMutability": "pure",
      "type": "function"
    },
    {
      "inputs": [
        {
          "internalType": "uint256",
          "name": "id",
          "type": "uint256"
        }
      ],
      "name": "getTrait",
      "outputs": [
        {
          "internalType": "uint8",
          "name": "",
          "type": "uint8"
        }
      ],
      "stateMutability": "view",
      "type": "function"
    },
    {
      "inputs": [
        {
          "internalType": "uint16",
          "name": "properties",
          "type": "uint16"
        }
      ],
      "name": "getTraitFromProperties",
      "outputs": [
        {
          "internalType": "uint8",
          "name": "",
          "type": "uint8"
        }
      ],
      "stateMutability": "pure",
      "type": "function"
    },
    {
      "inputs": [
        {
          "internalType": "uint256",
          "name": "id",
          "type": "uint256"
        }
      ],
      "name": "getStatPattern",
      "outputs": [
        {
          "internalType": "uint8",
          "name": "",
          "type": "uint8"
        }
      ],
      "stateMutability": "view",
      "type": "function"
    },
    {
      "inputs": [
        {
          "internalType": "uint16",
          "name": "properties",
          "type": "uint16"
        }
      ],
      "name": "getStatPatternFromProperties",
      "outputs": [
        {
          "internalType": "uint8",
          "name": "",
          "type": "uint8"
        }
      ],
      "stateMutability": "pure",
      "type": "function"
    },
    {
      "inputs": [
        {
          "internalType": "uint8",
          "name": "statPattern",
          "type": "uint8"
        }
      ],
      "name": "getStat1Trait",
      "outputs": [
        {
          "internalType": "uint8",
          "name": "",
          "type": "uint8"
        }
      ],
      "stateMutability": "pure",
      "type": "function"
    },
    {
      "inputs": [
        {
          "internalType": "uint8",
          "name": "statPattern",
          "type": "uint8"
        }
      ],
      "name": "getStat2Trait",
      "outputs": [
        {
          "internalType": "uint8",
          "name": "",
          "type": "uint8"
        }
      ],
      "stateMutability": "pure",
      "type": "function"
    },
    {
      "inputs": [
        {
          "internalType": "uint8",
          "name": "statPattern",
          "type": "uint8"
        }
      ],
      "name": "getStat3Trait",
      "outputs": [
        {
          "internalType": "uint8",
          "name": "",
          "type": "uint8"
        }
      ],
      "stateMutability": "pure",
      "type": "function"
    },
    {
      "inputs": [
        {
          "internalType": "uint256",
          "name": "id",
          "type": "uint256"
        }
      ],
      "name": "getStat1",
      "outputs": [
        {
          "internalType": "uint16",
          "name": "",
          "type": "uint16"
        }
      ],
      "stateMutability": "view",
      "type": "function"
    },
    {
      "inputs": [
        {
          "internalType": "uint256",
          "name": "id",
          "type": "uint256"
        }
      ],
      "name": "getStat2",
      "outputs": [
        {
          "internalType": "uint16",
          "name": "",
          "type": "uint16"
        }
      ],
      "stateMutability": "view",
      "type": "function"
    },
    {
      "inputs": [
        {
          "internalType": "uint256",
          "name": "id",
          "type": "uint256"
        }
      ],
      "name": "getStat3",
      "outputs": [
        {
          "internalType": "uint16",
          "name": "",
          "type": "uint16"
        }
      ],
      "stateMutability": "view",
      "type": "function"
    },
    {
      "inputs": [
        {
          "internalType": "uint256",
          "name": "id",
          "type": "uint256"
        }
      ],
      "name": "getDefenseMultiplier",
      "outputs": [
        {
          "internalType": "int128",
          "name": "",
          "type": "int128"
        }
      ],
      "stateMutability": "view",
      "type": "function"
    },
    {
      "inputs": [
        {
          "internalType": "uint16",
          "name": "properties",
          "type": "uint16"
        },
        {
          "internalType": "uint16",
          "name": "stat1",
          "type": "uint16"
        },
        {
          "internalType": "uint16",
          "name": "stat2",
          "type": "uint16"
        },
        {
          "internalType": "uint16",
          "name": "stat3",
          "type": "uint16"
        },
        {
          "internalType": "uint8",
          "name": "trait",
          "type": "uint8"
        }
      ],
      "name": "getDefenseMultiplierForTrait",
      "outputs": [
        {
          "internalType": "int128",
          "name": "",
          "type": "int128"
        }
      ],
      "stateMutability": "view",
      "type": "function"
    },
    {
      "inputs": [
        {
          "internalType": "uint256",
          "name": "id",
          "type": "uint256"
        },
        {
          "internalType": "uint8",
          "name": "charTrait",
          "type": "uint8"
        }
      ],
      "name": "getFightData",
      "outputs": [
        {
          "internalType": "int128",
          "name": "",
          "type": "int128"
        },
        {
          "internalType": "int128",
          "name": "",
          "type": "int128"
        },
        {
          "internalType": "uint24",
          "name": "",
          "type": "uint24"
        },
        {
          "internalType": "uint8",
          "name": "",
          "type": "uint8"
        }
      ],
      "stateMutability": "view",
      "type": "function"
    },
    {
      "inputs": [
        {
          "internalType": "uint256",
          "name": "id",
          "type": "uint256"
        },
        {
          "internalType": "uint8",
          "name": "charTrait",
          "type": "uint8"
        },
        {
          "internalType": "uint8",
          "name": "drainAmount",
          "type": "uint8"
        }
      ],
      "name": "getFightDataAndDrainDurability",
      "outputs": [
        {
          "internalType": "int128",
          "name": "",
          "type": "int128"
        },
        {
          "internalType": "int128",
          "name": "",
          "type": "int128"
        },
        {
          "internalType": "uint24",
          "name": "",
          "type": "uint24"
        },
        {
          "internalType": "uint8",
          "name": "",
          "type": "uint8"
        }
      ],
      "stateMutability": "nonpayable",
      "type": "function"
    },
    {
      "inputs": [
        {
          "internalType": "uint256",
          "name": "id",
          "type": "uint256"
        },
        {
          "internalType": "uint8",
          "name": "amount",
          "type": "uint8"
        }
      ],
      "name": "drainDurability",
      "outputs": [],
      "stateMutability": "nonpayable",
      "type": "function"
    },
    {
      "inputs": [
        {
          "internalType": "uint256",
          "name": "id",
          "type": "uint256"
        }
      ],
      "name": "getDurabilityTimestamp",
      "outputs": [
        {
          "internalType": "uint64",
          "name": "",
          "type": "uint64"
        }
      ],
      "stateMutability": "view",
      "type": "function"
    },
    {
      "inputs": [
        {
          "internalType": "uint256",
          "name": "id",
          "type": "uint256"
        },
        {
          "internalType": "uint64",
          "name": "timestamp",
          "type": "uint64"
        }
      ],
      "name": "setDurabilityTimestamp",
      "outputs": [],
      "stateMutability": "nonpayable",
      "type": "function"
    },
    {
      "inputs": [
        {
          "internalType": "uint256",
          "name": "id",
          "type": "uint256"
        }
      ],
      "name": "getDurabilityPoints",
      "outputs": [
        {
          "internalType": "uint8",
          "name": "",
          "type": "uint8"
        }
      ],
      "stateMutability": "view",
      "type": "function"
    },
    {
      "inputs": [
        {
          "internalType": "uint64",
          "name": "timestamp",
          "type": "uint64"
        }
      ],
      "name": "getDurabilityPointsFromTimestamp",
      "outputs": [
        {
          "internalType": "uint8",
          "name": "",
          "type": "uint8"
        }
      ],
      "stateMutability": "view",
      "type": "function"
    },
    {
      "inputs": [
        {
          "internalType": "uint256",
          "name": "id",
          "type": "uint256"
        }
      ],
      "name": "isDurabilityFull",
      "outputs": [
        {
          "internalType": "bool",
          "name": "",
          "type": "bool"
        }
      ],
      "stateMutability": "view",
      "type": "function"
    },
    {
      "inputs": [],
      "name": "getDurabilityMaxWait",
      "outputs": [
        {
          "internalType": "uint64",
          "name": "",
          "type": "uint64"
        }
      ],
      "stateMutability": "pure",
      "type": "function"
    }
  ],
  "bytecode": "0x608060405234801561001057600080fd5b50614405806100206000396000f3fe608060405234801561001057600080fd5b50600436106104125760003560e01c80638c7f724211610220578063c302752511610130578063dfd37129116100b8578063e985e9c511610087578063e985e9c514610e7d578063ecd4738b14610eab578063f8e678a714610ed7578063fa9b6e8714610edf578063fa9e839814610efc57610412565b8063dfd3712914610df3578063e06efad814610e14578063e076088614610e31578063e291298f14610e5757610412565b8063ca15c873116100ff578063ca15c87314610d4a578063d3f6797c14610d67578063d547741f14610d84578063d58227c814610db0578063d9514cb314610dd657610412565b8063c302752514610c91578063c366620b14610ce9578063c6a5108814610d0d578063c87b56dd14610d2d57610412565b8063a217fddf116101b3578063adf04f2011610182578063adf04f2014610b5b578063af8a29bf14610b78578063b07f67b014610b80578063b88d4fde14610b88578063baa049f414610c4c57610412565b8063a217fddf14610ad6578063a22cb46514610ade578063ac69ccc714610b0c578063acb586df14610b3e57610412565b80639507d39a116101ef5780639507d39a14610a3b57806395d06a0f14610a8757806395d89b4114610aa85780639e2e346214610ab057610412565b80638c7f7242146109dc5780638cfd4e2d146109e45780639010d07c146109ec57806391d1485414610a0f57610412565b80632f2ff15d116103265780634fbff6a2116102ae5780636c0360eb1161027d5780636c0360eb1461096257806370a082311461096a57806380aa68cd146109905780638129fc1c146109b35780638b9b57bf146109bb57610412565b80634fbff6a21461090057806352bc59ea146109205780635504d3d21461093d5780636352211e1461094557610412565b80633e68b604116102f55780633e68b604146107e557806340c10f191461081c57806342842e0e1461084857806344d59e0a1461087e5780634f6ccce7146108e357610412565b80632f2ff15d146107445780632f745c5914610770578063316a7ba51461079c57806336568abe146107b957610412565b80631a71516e116103a957806324f7bb1b1161037857806324f7bb1b146106a457806327cd91de146106c15780632a9f22f2146106de5780632c3048a2146106fb5780632c3fc6191461071857610412565b80631a71516e146105cd5780631b8ca2171461061d57806323b872dd14610651578063248a9ca31461068757610412565b80630a583a93116103e55780630a583a93146105365780630a724cff1461056d57806316f1daf61461058d57806318160ddd146105b357610412565b806301ffc9a71461041757806306fdde0314610452578063081812fc146104cf578063095ea7b314610508575b600080fd5b61043e6004803603602081101561042d57600080fd5b50356001600160e01b031916610f19565b604080519115158252519081900360200190f35b61045a610f3c565b6040805160208082528351818301528351919283929083019185019080838360005b8381101561049457818101518382015260200161047c565b50505050905090810190601f1680156104c15780820380516001836020036101000a031916815260200191505b509250505060405180910390f35b6104ec600480360360208110156104e557600080fd5b5035610fd3565b604080516001600160a01b039092168252519081900360200190f35b6105346004803603604081101561051e57600080fd5b506001600160a01b038135169060200135611035565b005b6105576004803603602081101561054c57600080fd5b503561ffff16611110565b6040805160ff9092168252519081900360200190f35b6105576004803603602081101561058357600080fd5b503560ff16611116565b610557600480360360208110156105a357600080fd5b50356001600160401b0316611136565b6105bb611174565b60408051918252519081900360200190f35b6105bb600480360360c08110156105e357600080fd5b506001600160a01b038135169061ffff60208201358116916040810135821691606082013581169160808101359091169060a00135611185565b61063a6004803603602081101561063357600080fd5b5035611384565b6040805161ffff9092168252519081900360200190f35b6105346004803603606081101561066757600080fd5b506001600160a01b038135811691602081013590911690604001356113b4565b6105bb6004803603602081101561069d57600080fd5b503561140b565b610557600480360360208110156106ba57600080fd5b5035611420565b61063a600480360360208110156106d757600080fd5b5035611444565b610557600480360360208110156106f457600080fd5b503561147b565b61063a6004803603602081101561071157600080fd5b5035611496565b6105346004803603604081101561072e57600080fd5b50803590602001356001600160401b03166114cc565b6105346004803603604081101561075a57600080fd5b50803590602001356001600160a01b0316611503565b6105bb6004803603604081101561078657600080fd5b506001600160a01b03813516906020013561156f565b61063a600480360360208110156107b257600080fd5b5035611597565b610534600480360360408110156107cf57600080fd5b50803590602001356001600160a01b03166115e3565b61063a600480360360808110156107fb57600080fd5b5061ffff813581169160208101359091169060408101359060600135611644565b6105bb6004803603604081101561083257600080fd5b506001600160a01b03813516906020013561166d565b6105346004803603606081101561085e57600080fd5b506001600160a01b038135811691602081013590911690604001356116de565b6108ac6004803603606081101561089457600080fd5b5080359060ff602082013581169160400135166116f9565b60408051600f95860b860b815293850b90940b602084015262ffffff9091168284015260ff16606082015290519081900360800190f35b6105bb600480360360208110156108f957600080fd5b50356118f4565b6105576004803603602081101561091657600080fd5b503560ff16611910565b6105576004803603602081101561093657600080fd5b5035611922565b6105bb611943565b6104ec6004803603602081101561095b57600080fd5b5035611965565b61045a611993565b6105bb6004803603602081101561098057600080fd5b50356001600160a01b03166119f4565b61063a600480360360408110156109a657600080fd5b5080359060200135611a5c565b610534611a9e565b6109c3611c74565b60408051600f92830b90920b8252519081900360200190f35b6105bb611c84565b6109c3611c8a565b6104ec60048036036040811015610a0257600080fd5b5080359060200135611c93565b61043e60048036036040811015610a2557600080fd5b50803590602001356001600160a01b0316611cb1565b610a5860048036036020811015610a5157600080fd5b5035611ccf565b6040805161ffff9586168152938516602085015291841683830152909216606082015290519081900360800190f35b61055760048036036020811015610a9d57600080fd5b503561ffff16611cf8565b61045a611d01565b61053460048036036020811015610ac657600080fd5b50356001600160a01b0316611d62565b6105bb611e1a565b61053460048036036040811015610af457600080fd5b506001600160a01b0381351690602001351515611e1f565b6105bb60048036036060811015610b2257600080fd5b506001600160a01b038135169060208101359060400135611f24565b61055760048036036020811015610b5457600080fd5b5035611fae565b61055760048036036020811015610b7157600080fd5b5035611fcb565b6109c3611fe8565b6109c3611ff8565b61053460048036036080811015610b9e57600080fd5b6001600160a01b03823581169260208101359091169160408201359190810190608081016060820135600160201b811115610bd857600080fd5b820183602082011115610bea57600080fd5b803590602001918460018302840111600160201b83111715610c0b57600080fd5b91908080601f016020809104026020016040519081016040528093929190818152602001838380828437600092019190915250929550612001945050505050565b6109c3600480360360a0811015610c6257600080fd5b50803561ffff90811691602081013582169160408201358116916060810135909116906080013560ff1661205f565b610c99612256565b60408051602080825283518183015283519192839290830191858101910280838360005b83811015610cd5578181015183820152602001610cbd565b505050509050019250505060405180910390f35b610cf1612261565b604080516001600160401b039092168252519081900360200190f35b61055760048036036020811015610d2357600080fd5b503560ff16612267565b61045a60048036036020811015610d4357600080fd5b5035612274565b6105bb60048036036020811015610d6057600080fd5b50356124f7565b6109c360048036036020811015610d7d57600080fd5b503561250e565b61053460048036036040811015610d9a57600080fd5b50803590602001356001600160a01b0316612605565b6108ac60048036036040811015610dc657600080fd5b508035906020013560ff1661265e565b610cf160048036036020811015610dec57600080fd5b5035612715565b61055760048036036020811015610e0957600080fd5b503561ffff16612730565b61063a60048036036020811015610e2a57600080fd5b5035612739565b61053460048036036040811015610e4757600080fd5b508035906020013560ff16612770565b610c9960048036036020811015610e6d57600080fd5b50356001600160a01b0316612883565b61043e60048036036040811015610e9357600080fd5b506001600160a01b038135811691602001351661290d565b61055760048036036060811015610ec157600080fd5b508035906020810135906040013560ff1661293b565b6105bb612950565b61043e60048036036020811015610ef557600080fd5b5035612955565b61063a60048036036020811015610f1257600080fd5b503561296d565b6001600160e01b0319811660009081526033602052604090205460ff165b919050565b606a8054604080516020601f6002600019610100600188161502019095169490940493840181900481028201810190925282815260609390929091830182828015610fc85780601f10610f9d57610100808354040283529160200191610fc8565b820191906000526020600020905b815481529060010190602001808311610fab57829003601f168201915b505050505090505b90565b6000610fde82612998565b6110195760405162461bcd60e51b815260040180806020018281038252602c8152602001806142cb602c913960400191505060405180910390fd5b506000908152606860205260409020546001600160a01b031690565b600061104082611965565b9050806001600160a01b0316836001600160a01b031614156110935760405162461bcd60e51b815260040180806020018281038252602181526020018061434f6021913960400191505060405180910390fd5b806001600160a01b03166110a56129ab565b6001600160a01b031614806110c657506110c6816110c16129ab565b61290d565b6111015760405162461bcd60e51b81526004018080602001828103825260388152602001806141f06038913960400191505060405180910390fd5b61110b83836129af565b505050565b60071690565b600060056111288360ff166019612a1d565b8161112f57fe5b0692915050565b600042826001600160401b0316111561115157506000610f37565b610bb86001600160401b038316420304601481111561116e575060145b92915050565b60006111806066612a84565b905090565b600061118f612a8f565b60c95460cd5443146111a15760ce8190555b4360cd556040805160808101825261ffff808a16825288811660208084019182528983168486019081528984166060860190815260c9805460018181018355600092835297517f66be4f155c5ef2ebd3772b228f2f00681e4ed5826cdb3b1943cc11ad15ad1d2890910180549651945193518816600160301b0267ffff00000000000019948916600160201b0265ffff0000000019968a16620100000263ffff00001994909a1661ffff1990991698909817929092169790971793909316949094171617909255835180850190945280845290830186815260ca8054938401815590915291516002919091027f42d72674974f694b5f5159593243114d38a5c39c89d6b62fee061ff523240ee18101805460ff9390931660ff199093169290921790915590517f42d72674974f694b5f5159593243114d38a5c39c89d6b62fee061ff523240ee2909101556112f68882612afc565b611317611301612261565b42906001600160401b031663ffffffff612c3616565b600082815260cf6020526040808220805467ffffffffffffffff19166001600160401b03949094169390931790925590516001600160a01b038a169183917f9f6c6fa7de67d487c8373360cc88ddcf9b3c5a0416d887ede5b0358fad1c71689190a3979650505050505050565b60008161139081612c93565b60c9838154811061139d57fe5b60009182526020909120015461ffff169392505050565b6113c56113bf6129ab565b82612cec565b6114005760405162461bcd60e51b81526004018080602001828103825260318152602001806143706031913960400191505060405180910390fd5b61110b838383612d88565b60009081526097602052604090206002015490565b60008161142c81612c93565b61143d61143884611384565b612730565b9392505050565b60008161145081612c93565b60c9838154811061145d57fe5b600091825260209091200154600160301b900461ffff169392505050565b6000600382101561148e57506001610f37565b506000190190565b6000816114a281612c93565b60c983815481106114af57fe5b60009182526020909120015462010000900461ffff169392505050565b6114d4612a8f565b600091825260cf6020526040909120805467ffffffffffffffff19166001600160401b03909216919091179055565b600082815260976020526040902060020154611526906115216129ab565b611cb1565b6115615760405162461bcd60e51b815260040180806020018281038252602f81526020018061410f602f913960400191505060405180910390fd5b61156b8282612ee6565b5050565b6001600160a01b038216600090815260656020526040812061143d908363ffffffff612f5516565b6000816115a657506004610f37565b81600114156115b7575060b4610f37565b81600214156115c95750610118610f37565b81600314156115da575060c8610f37565b5061010c919050565b6115eb6129ab565b6001600160a01b0316816001600160a01b03161461163a5760405162461bcd60e51b815260040180806020018281038252602f8152602001806143a1602f913960400191505060405180910390fd5b61156b8282612f61565b60006116628561ffff168561ffff1661165d8686612fd0565b612ffc565b90505b949350505050565b6000611677612a8f565b600060648306600181101561168f57600491506116ca565b60068110156116a157600391506116ca565b60158110156116b357600291506116ca565b60388110156116c557600191506116ca565b600091505b6116d5858386611f24565b95945050505050565b61110b83838360405180602001604052806000815250612001565b600080600080611707612a8f565b8661171181612c93565b600088815260cf6020526040812054611732906001600160401b0316611136565b90508660ff168160ff161015611788576040805162461bcd60e51b81526020600482015260166024820152754e6f7420656e6f756768206475726162696c6974792160501b604482015290519081900360640190fd5b60ff808816610bb802906014908316106117e857806001600160401b03166117ae612261565b60008c815260cf60205260409020805467ffffffffffffffff19166001600160401b03928316420393909301909116919091179055611817565b60008a815260cf6020526040902080546001600160401b0380821684011667ffffffffffffffff199091161790555b600060c98b8154811061182657fe5b6000918252602090912001805490915061189f906118899061186c9062010000810461ffff908116600160201b8304821601600160301b90920481169190910116613072565b60cb54600160801b9004600f90810b900b9063ffffffff61309016565b60cb54600f90810b900b9063ffffffff6130c716565b81546118cd9061ffff80821691620100008104821691600160201b8204811691600160301b9004168f61205f565b82546000906118df9061ffff16611cf8565b929e919d509b50909950975050505050505050565b60008061190860668463ffffffff6130fa16565b509392505050565b600060056111288360ff166005612a1d565b600081815260cf602052604081205461116e906001600160401b0316611136565b604080516923a0a6a2afa0a226a4a760b11b8152905190819003600a01902081565b600061116e82604051806060016040528060298152602001614252602991396066919063ffffffff61311616565b606d8054604080516020601f6002600019610100600188161502019095169490940493840181900481028201810190925282815260609390929091830182828015610fc85780601f10610f9d57610100808354040283529160200191610fc8565b60006001600160a01b038216611a3b5760405162461bcd60e51b815260040180806020018281038252602a815260200180614228602a913960400191505060405180910390fd5b6001600160a01b038216600090815260656020526040902061116e90612a84565b60006005611a726000607c61165d866002612fd0565b607f16901b6003611a8b6000600361165d876001612fd0565b600316901b846007161717905092915050565b600054610100900460ff1680611ab75750611ab7613123565b80611ac5575060005460ff16155b611b005760405162461bcd60e51b815260040180806020018281038252602e81526020018061427b602e913960400191505060405180910390fd5b600054610100900460ff16158015611b2b576000805460ff1961ff0019909116610100171660011790555b611b7b6040518060400160405280601381526020017210dc9e5c1d1bd09b1859195cc81cda1a595b19606a1b8152506040518060400160405280600381526020016243425360e81b815250613134565b611b836131f1565b611b8e600033611561565b611b986001613072565b60cb8054600f9290920b6001600160801b03166001600160801b0319909216919091179055611bca6001610190613292565b60cb60106101000a8154816001600160801b030219169083600f0b6001600160801b03160217905550611c0261186c60676064613292565b60cc8054600f9290920b6001600160801b03166001600160801b0319909216919091179055611c3661186c606b6064613292565b60cc60106101000a8154816001600160801b030219169083600f0b6001600160801b031602179055508015611c71576000805461ff00191690555b50565b60cc54600160801b9004600f0b81565b610bb881565b60cb54600f0b81565b600082815260976020526040812061143d908363ffffffff612f5516565b600082815260976020526040812061143d908363ffffffff6132c916565b60008060008084611cdf81612c93565b611ce8866132de565b9450945094509450509193509193565b600390811c1690565b606b8054604080516020601f6002600019610100600188161502019095169490940493840181900481028201810190925282815260609390929091830182828015610fc85780601f10610f9d57610100808354040283529160200191610fc8565b611d6a612a8f565b612710611d75611174565b10611db6576040805162461bcd60e51b815260206004820152600c60248201526b4f7574206f662073746f636b60a01b604482015290519081900360640190fd5b61156b81824260014303405a60405160200180856001600160a01b03166001600160a01b031660601b81526014018481526020018381526020018281526020019450505050506040516020818303038152906040528051906020012060001c61166d565b600081565b611e276129ab565b6001600160a01b0316826001600160a01b03161415611e8d576040805162461bcd60e51b815260206004820152601960248201527f4552433732313a20617070726f766520746f2063616c6c657200000000000000604482015290519081900360640190fd5b8060696000611e9a6129ab565b6001600160a01b03908116825260208083019390935260409182016000908120918716808252919093529120805460ff191692151592909217909155611ede6129ab565b60408051841515815290516001600160a01b0392909216917f17307eab39ab6107e8899845ad3d59bd9653f200f220920489ca2b5937696c319181900360200190a35050565b6000611f2e612a8f565b60088310611f6d5760405162461bcd60e51b81526004018080602001828103825260218152602001806140cc6021913960400191505060405180910390fd5b6000806000611f7c86866132fc565b925092509250611fa387611f908888611a5c565b858585611f9e8b6003612fd0565b611185565b979650505050505050565b600081611fba81612c93565b61143d611fc684611384565b611cf8565b600081611fd781612c93565b61143d611fe384611384565b611110565b60cb54600160801b9004600f0b81565b60cc54600f0b81565b61201261200c6129ab565b83612cec565b61204d5760405162461bcd60e51b81526004018080602001828103825260318152602001806143706031913960400191505060405180910390fd5b61205984848484613384565b50505050565b60008061206b87612730565b60cb54909150600f0b60ff841661208183612267565b60ff1614156120d35760cc546120cc906120bb90600160801b9004600f0b6120ac61ffff8b16613072565b600f0b9063ffffffff61309016565b600f83900b9063ffffffff6130c716565b9050612127565b6120dc82612267565b60ff16600414156121025760cc546120cc906120bb90600f0b6120ac61ffff8b16613072565b60cb54612124906120bb90600160801b9004600f0b6120ac61ffff8b16613072565b90505b8360ff1661213483611910565b60ff1614156121665760cc5461215f906120bb90600160801b9004600f0b6120ac61ffff8a16613072565b90506121ba565b61216f82611910565b60ff16600414156121955760cc5461215f906120bb90600f0b6120ac61ffff8a16613072565b60cb546121b7906120bb90600160801b9004600f0b6120ac61ffff8a16613072565b90505b8360ff166121c783611116565b60ff1614156121f95760cc546121f2906120bb90600160801b9004600f0b6120ac61ffff8916613072565b9050611fa3565b61220282611116565b60ff16600414156122285760cc546121f2906120bb90600f0b6120ac61ffff8916613072565b60cb5461224a906120bb90600160801b9004600f0b6120ac61ffff8916613072565b98975050505050505050565b606061118033612883565b61ea6090565b6000600560ff831661112f565b606061227f82612998565b6122ba5760405162461bcd60e51b815260040180806020018281038252602f815260200180614320602f913960400191505060405180910390fd5b6000828152606c602090815260409182902080548351601f600260001961010060018616150201909316929092049182018490048402810184019094528084526060939283018282801561234f5780601f106123245761010080835404028352916020019161234f565b820191906000526020600020905b81548152906001019060200180831161233257829003601f168201915b505050505090506060612360611993565b905080516000141561237457509050610f37565b8151156124355780826040516020018083805190602001908083835b602083106123af5780518252601f199092019160209182019101612390565b51815160209384036101000a600019018019909216911617905285519190930192850191508083835b602083106123f75780518252601f1990920191602091820191016123d8565b6001836020036101000a0380198251168184511680821785525050505050509050019250505060405160208183030381529060405292505050610f37565b8061243f856133d6565b6040516020018083805190602001908083835b602083106124715780518252601f199092019160209182019101612452565b51815160209384036101000a600019018019909216911617905285519190930192850191508083835b602083106124b95780518252601f19909201916020918201910161249a565b6001836020036101000a0380198251168184511680821785525050505050509050019250505060405160208183030381529060405292505050919050565b600081815260976020526040812061116e90612a84565b60008161251a81612c93565b61252261400c565b60c9848154811061252f57fe5b6000918252602080832060408051608081018252939091015461ffff80821685526201000082048116938501849052600160201b8204811692850192909252600160301b900416606083015260cb54919350600160801b909104600f0b919061259d9083906120ac90613072565b905060006125b6836120ac866040015161ffff16613072565b905060006125cf846120ac876060015161ffff16613072565b60cb5490915061224a9082906125f69085908290600f90810b900b8863ffffffff6130c716565b600f0b9063ffffffff6130c716565b600082815260976020526040902060020154612623906115216129ab565b61163a5760405162461bcd60e51b81526004018080602001828103825260308152602001806141c06030913960400191505060405180910390fd5b6000806000808561266e81612c93565b600060c9888154811061267d57fe5b600091825260209091200180549091506126c3906118899061186c9062010000810461ffff908116600160201b8304821601600160301b90920481169190910116613072565b81546126f19061ffff80821691620100008104821691600160201b8204811691600160301b9004168c61205f565b82546000906127039061ffff16611cf8565b929b919a509850909650945050505050565b600090815260cf60205260409020546001600160401b031690565b60051c607f1690565b60008161274581612c93565b60c9838154811061275257fe5b600091825260209091200154600160201b900461ffff169392505050565b612778612a8f565b600082815260cf6020526040812054612799906001600160401b0316611136565b90508160ff168160ff1610156127ef576040805162461bcd60e51b81526020600482015260166024820152754e6f7420656e6f756768206475726162696c6974792160501b604482015290519081900360640190fd5b60ff808316610bb8029060149083161061284f57806001600160401b0316612815612261565b600086815260cf60205260409020805467ffffffffffffffff19166001600160401b03928316420393909301909116919091179055612059565b600084815260cf6020526040902080546001600160401b0380821684011667ffffffffffffffff1990911617905550505050565b60608061288f836119f4565b6001600160401b03811180156128a457600080fd5b506040519080825280602002602001820160405280156128ce578160200160208202803683370190505b50905060005b8151811015612906576128e7848261156f565b8282815181106128f357fe5b60209081029190910101526001016128d4565b5092915050565b6001600160a01b03918216600090815260696020908152604080832093909416825291909152205460ff1690565b600061166560008360ff1661165d8787612fd0565b601481565b6000601461296283611922565b60ff16101592915050565b600060018211156129815750610190610f37565b8115612990575061012c610f37565b5060c8919050565b600061116e60668363ffffffff6134b016565b3390565b600081815260686020526040902080546001600160a01b0319166001600160a01b03841690811790915581906129e482611965565b6001600160a01b03167f8c5be1e5ebec7d5bd14f71427d1e84f3dd0314c0f7b2291e5b200ac8c7c3b92560405160405180910390a45050565b6000808211612a73576040805162461bcd60e51b815260206004820152601a60248201527f536166654d6174683a206469766973696f6e206279207a65726f000000000000604482015290519081900360640190fd5b818381612a7c57fe5b049392505050565b600061116e826134bc565b604080516923a0a6a2afa0a226a4a760b11b8152905190819003600a019020612ab89033611cb1565b612afa576040805162461bcd60e51b815260206004820152600e60248201526d2737ba1033b0b6b29030b236b4b760911b604482015290519081900360640190fd5b565b6001600160a01b038216612b57576040805162461bcd60e51b815260206004820181905260248201527f4552433732313a206d696e7420746f20746865207a65726f2061646472657373604482015290519081900360640190fd5b612b6081612998565b15612bb2576040805162461bcd60e51b815260206004820152601c60248201527f4552433732313a20746f6b656e20616c7265616479206d696e74656400000000604482015290519081900360640190fd5b612bbe6000838361110b565b6001600160a01b0382166000908152606560205260409020612be6908263ffffffff6134c016565b50612bf96066828463ffffffff6134cc16565b5060405181906001600160a01b038416906000907fddf252ad1be2c89b69c2b068fc378daa952ba7f163c4a11628f55a4df523b3ef908290a45050565b600082821115612c8d576040805162461bcd60e51b815260206004820152601e60248201527f536166654d6174683a207375627472616374696f6e206f766572666c6f770000604482015290519081900360640190fd5b50900390565b60ce54811080612ca457504360cd54105b611c71576040805162461bcd60e51b81526020600482015260146024820152730546f6f20667265736820666f72206c6f6f6b75760641b604482015290519081900360640190fd5b6000612cf782612998565b612d325760405162461bcd60e51b815260040180806020018281038252602c815260200180614194602c913960400191505060405180910390fd5b6000612d3d83611965565b9050806001600160a01b0316846001600160a01b03161480612d785750836001600160a01b0316612d6d84610fd3565b6001600160a01b0316145b806116655750611665818561290d565b826001600160a01b0316612d9b82611965565b6001600160a01b031614612de05760405162461bcd60e51b81526004018080602001828103825260298152602001806142f76029913960400191505060405180910390fd5b6001600160a01b038216612e255760405162461bcd60e51b81526004018080602001828103825260248152602001806141706024913960400191505060405180910390fd5b612e3083838361110b565b612e3b6000826129af565b6001600160a01b0383166000908152606560205260409020612e63908263ffffffff6134e216565b506001600160a01b0382166000908152606560205260409020612e8c908263ffffffff6134c016565b50612e9f6066828463ffffffff6134cc16565b5080826001600160a01b0316846001600160a01b03167fddf252ad1be2c89b69c2b068fc378daa952ba7f163c4a11628f55a4df523b3ef60405160405180910390a4505050565b6000828152609760205260409020612f04908263ffffffff6134ee16565b1561156b57612f116129ab565b6001600160a01b0316816001600160a01b0316837f2f8788117e7eff1d82e926ec794901d17c78024a50270940304540a733656f0d60405160405180910390a45050565b600061143d8383613503565b6000828152609760205260409020612f7f908263ffffffff61356716565b1561156b57612f8c6129ab565b6001600160a01b0316816001600160a01b0316837ff6391f5c32d9c69d2a47ea670b442974b53935d1edc7fd64eb21e047a839171b60405160405180910390a45050565b604080516020808201949094528082019290925280518083038201815260609092019052805191012090565b6000806130206001613014868863ffffffff612c3616565b9063ffffffff61357c16565b6040805160208082018790528251808303820181529183019092528051910120909150600090613056908363ffffffff6135d616565b9050613068818763ffffffff61357c16565b9695505050505050565b6000677fffffffffffffff82111561308957600080fd5b5060401b90565b6000600f83810b9083900b0260401d60016001607f1b031981128015906130be575060016001607f1b038113155b61143d57600080fd5b6000600f83810b9083900b0160016001607f1b031981128015906130be575060016001607f1b0381131561143d57600080fd5b6000808080613109868661363d565b9097909650945050505050565b60006116658484846136b8565b600061312e30613782565b15905090565b600054610100900460ff168061314d575061314d613123565b8061315b575060005460ff16155b6131965760405162461bcd60e51b815260040180806020018281038252602e81526020018061427b602e913960400191505060405180910390fd5b600054610100900460ff161580156131c1576000805460ff1961ff0019909116610100171660011790555b6131c96131f1565b6131d1613788565b6131db8383613825565b801561110b576000805461ff0019169055505050565b600054610100900460ff168061320a575061320a613123565b80613218575060005460ff16155b6132535760405162461bcd60e51b815260040180806020018281038252602e81526020018061427b602e913960400191505060405180910390fd5b600054610100900460ff1615801561327e576000805460ff1961ff0019909116610100171660011790555b8015611c71576000805461ff001916905550565b60008161329e57600080fd5b60006132aa848461390a565b905060016001607f1b036001600160801b038216111561143d57600080fd5b600061143d836001600160a01b038416613a53565b6000806000806132ed85613a6b565b93509350935093509193509193565b60008060008061330b86611597565b905060006133188761296d565b905060006133258861147b565b9050600061333684848a6005611644565b9050600080600160ff851611156133575761335486868c6003611644565b91505b60028460ff1611156133735761337086868c6004611644565b90505b919750955093505050509250925092565b61338f848484612d88565b61339b84848484613ae5565b6120595760405162461bcd60e51b815260040180806020018281038252603281526020018061413e6032913960400191505060405180910390fd5b6060816133fb57506040805180820190915260018152600360fc1b6020820152610f37565b8160005b811561341357600101600a820491506133ff565b6060816001600160401b038111801561342b57600080fd5b506040519080825280601f01601f191660200182016040528015613456576020820181803683370190505b50859350905060001982015b83156134a757600a840660300160f81b8282806001900393508151811061348557fe5b60200101906001600160f81b031916908160001a905350600a84049350613462565b50949350505050565b600061143d8383613a53565b5490565b600061143d8383613c65565b600061166584846001600160a01b038516613caf565b600061143d8383613d46565b600061143d836001600160a01b038416613c65565b815460009082106135455760405162461bcd60e51b81526004018080602001828103825260228152602001806140ed6022913960400191505060405180910390fd5b82600001828154811061355457fe5b9060005260206000200154905092915050565b600061143d836001600160a01b038416613d46565b60008282018381101561143d576040805162461bcd60e51b815260206004820152601b60248201527f536166654d6174683a206164646974696f6e206f766572666c6f770000000000604482015290519081900360640190fd5b600080821161362c576040805162461bcd60e51b815260206004820152601860248201527f536166654d6174683a206d6f64756c6f206279207a65726f0000000000000000604482015290519081900360640190fd5b81838161363557fe5b069392505050565b8154600090819083106136815760405162461bcd60e51b81526004018080602001828103825260228152602001806142a96022913960400191505060405180910390fd5b600084600001848154811061369257fe5b906000526020600020906002020190508060000154816001015492509250509250929050565b600082815260018401602052604081205482816137535760405162461bcd60e51b81526004018080602001828103825283818151815260200191508051906020019080838360005b83811015613718578181015183820152602001613700565b50505050905090810190601f1680156137455780820380516001836020036101000a031916815260200191505b509250505060405180910390fd5b5084600001600182038154811061376657fe5b9060005260206000209060020201600101549150509392505050565b3b151590565b600054610100900460ff16806137a157506137a1613123565b806137af575060005460ff16155b6137ea5760405162461bcd60e51b815260040180806020018281038252602e81526020018061427b602e913960400191505060405180910390fd5b600054610100900460ff16158015613815576000805460ff1961ff0019909116610100171660011790555b61327e6301ffc9a760e01b613e0c565b600054610100900460ff168061383e575061383e613123565b8061384c575060005460ff16155b6138875760405162461bcd60e51b815260040180806020018281038252602e81526020018061427b602e913960400191505060405180910390fd5b600054610100900460ff161580156138b2576000805460ff1961ff0019909116610100171660011790555b82516138c590606a906020860190614033565b5081516138d990606b906020850190614033565b506138ea6380ac58cd60e01b613e0c565b6138fa635b5e139f60e01b613e0c565b6131db63780e9d6360e01b613e0c565b60008161391657600080fd5b60006001600160c01b03841161393b5782604085901b8161393357fe5b049050613a3f565b60c084811c600160201b8110613953576020918201911c5b620100008110613965576010918201911c5b6101008110613976576008918201911c5b60108110613986576004918201911c5b60048110613996576002918201911c5b600281106139a5576001820191505b60bf820360018603901c6001018260ff0387901b816139c057fe5b0492506001600160801b038311156139d757600080fd5b608085901c83026001600160801b038616840260c088901c604089901b82811015613a03576001820391505b608084901b92900382811015613a1a576001820391505b829003608084901c8214613a2a57fe5b888181613a3357fe5b04870196505050505050505b6001600160801b0381111561143d57600080fd5b60009081526001919091016020526040902054151590565b600080600080613a7961400c565b60c98681548110613a8657fe5b600091825260209182902060408051608081018252929091015461ffff8082168085526201000083048216958501869052600160201b83048216938501849052600160301b909204166060909301839052999298509650945092505050565b6000613af9846001600160a01b0316613782565b613b0557506001611665565b6060613c2b630a85bd0160e11b613b1a6129ab565b88878760405160240180856001600160a01b03166001600160a01b03168152602001846001600160a01b03166001600160a01b0316815260200183815260200180602001828103825283818151815260200191508051906020019080838360005b83811015613b93578181015183820152602001613b7b565b50505050905090810190601f168015613bc05780820380516001836020036101000a031916815260200191505b5095505050505050604051602081830303815290604052906001600160e01b0319166020820180516001600160e01b03838183161783525050505060405180606001604052806032815260200161413e603291396001600160a01b038816919063ffffffff613e9016565b90506000818060200190516020811015613c4457600080fd5b50516001600160e01b031916630a85bd0160e11b1492505050949350505050565b6000613c718383613a53565b613ca75750815460018181018455600084815260208082209093018490558454848252828601909352604090209190915561116e565b50600061116e565b600082815260018401602052604081205480613d1457505060408051808201825283815260208082018481528654600181810189556000898152848120955160029093029095019182559151908201558654868452818801909252929091205561143d565b82856000016001830381548110613d2757fe5b906000526020600020906002020160010181905550600091505061143d565b60008181526001830160205260408120548015613e025783546000198083019190810190600090879083908110613d7957fe5b9060005260206000200154905080876000018481548110613d9657fe5b600091825260208083209091019290925582815260018981019092526040902090840190558654879080613dc657fe5b6001900381819060005260206000200160009055905586600101600087815260200190815260200160002060009055600194505050505061116e565b600091505061116e565b6001600160e01b03198082161415613e6b576040805162461bcd60e51b815260206004820152601c60248201527f4552433136353a20696e76616c696420696e7465726661636520696400000000604482015290519081900360640190fd5b6001600160e01b0319166000908152603360205260409020805460ff19166001179055565b6060611665848460008585613ea485613782565b613ef5576040805162461bcd60e51b815260206004820152601d60248201527f416464726573733a2063616c6c20746f206e6f6e2d636f6e7472616374000000604482015290519081900360640190fd5b60006060866001600160a01b031685876040518082805190602001908083835b60208310613f345780518252601f199092019160209182019101613f15565b6001836020036101000a03801982511681845116808217855250505050505090500191505060006040518083038185875af1925050503d8060008114613f96576040519150601f19603f3d011682016040523d82523d6000602084013e613f9b565b606091505b5091509150611fa382828660608315613fb557508161143d565b825115613fc55782518084602001fd5b60405162461bcd60e51b8152602060048201818152845160248401528451859391928392604401919085019080838360008315613718578181015183820152602001613700565b60408051608081018252600080825260208201819052918101829052606081019190915290565b828054600181600116156101000203166002900490600052602060002090601f016020900481019282601f1061407457805160ff19168380011785556140a1565b828001600101855582156140a1579182015b828111156140a1578251825591602001919060010190614086565b506140ad9291506140b1565b5090565b610fd091905b808211156140ad57600081556001016140b756fe537461727320706172616d6574657220746f6f20686967682120286d6178203729456e756d657261626c655365743a20696e646578206f7574206f6620626f756e6473416363657373436f6e74726f6c3a2073656e646572206d75737420626520616e2061646d696e20746f206772616e744552433732313a207472616e7366657220746f206e6f6e20455243373231526563656976657220696d706c656d656e7465724552433732313a207472616e7366657220746f20746865207a65726f20616464726573734552433732313a206f70657261746f7220717565727920666f72206e6f6e6578697374656e7420746f6b656e416363657373436f6e74726f6c3a2073656e646572206d75737420626520616e2061646d696e20746f207265766f6b654552433732313a20617070726f76652063616c6c6572206973206e6f74206f776e6572206e6f7220617070726f76656420666f7220616c6c4552433732313a2062616c616e636520717565727920666f7220746865207a65726f20616464726573734552433732313a206f776e657220717565727920666f72206e6f6e6578697374656e7420746f6b656e496e697469616c697a61626c653a20636f6e747261637420697320616c726561647920696e697469616c697a6564456e756d657261626c654d61703a20696e646578206f7574206f6620626f756e64734552433732313a20617070726f76656420717565727920666f72206e6f6e6578697374656e7420746f6b656e4552433732313a207472616e73666572206f6620746f6b656e2074686174206973206e6f74206f776e4552433732314d657461646174613a2055524920717565727920666f72206e6f6e6578697374656e7420746f6b656e4552433732313a20617070726f76616c20746f2063757272656e74206f776e65724552433732313a207472616e736665722063616c6c6572206973206e6f74206f776e6572206e6f7220617070726f766564416363657373436f6e74726f6c3a2063616e206f6e6c792072656e6f756e636520726f6c657320666f722073656c66a264697066735822122019463fa267918d9a5a1d0fbfd37ecca9813c33fd62789ec604efcee60f72909664736f6c63430006050033",
  "immutableReferences": {},
  "source": "pragma solidity ^0.6.0;\r\n\r\nimport \"@openzeppelin/contracts-upgradeable/proxy/Initializable.sol\";\r\nimport \"@openzeppelin/contracts-upgradeable/token/ERC721/ERC721Upgradeable.sol\";\r\nimport \"@openzeppelin/contracts-upgradeable/access/AccessControlUpgradeable.sol\";\r\nimport \"@openzeppelin/contracts/math/SafeMath.sol\";\r\nimport \"abdk-libraries-solidity/ABDKMath64x64.sol\";\r\nimport \"./util.sol\";\r\n\r\ncontract Shields is Initializable, ERC721Upgradeable, AccessControlUpgradeable {\r\n\r\n    using ABDKMath64x64 for int128;\r\n    using ABDKMath64x64 for uint16;\r\n\r\n    bytes32 public constant GAME_ADMIN = keccak256(\"GAME_ADMIN\");\r\n\r\n    function initialize () public initializer {\r\n        __ERC721_init(\"CryptoBlades shield\", \"CBS\");\r\n        __AccessControl_init_unchained();\r\n\r\n        _setupRole(DEFAULT_ADMIN_ROLE, msg.sender);\r\n\r\n        shieldBaseMultiplier = ABDKMath64x64.fromUInt(1);\r\n        defenseMultPerPointBasic =  ABDKMath64x64.divu(1, 400); // 0.25%\r\n        defenseMultPerPointDEF = defenseMultPerPointBasic.mul(ABDKMath64x64.divu(103, 100)); // 0.2575% (+3%)\r\n        defenseMultPerPointMatching = defenseMultPerPointBasic.mul(ABDKMath64x64.divu(107, 100)); // 0.2675% (+7%)\r\n    }\r\n\r\n    /*\r\n        visual numbers start at 0, increment values by 1\r\n        stars: 1-5 (1,2,3: primary only, 4: one secondary, 5: two secondaries)\r\n        traits: 0-3 [0(fire) > 1(earth) > 2(lightning) > 3(water) > repeat]\r\n        stats: STR(fire), DEX(earth), CHA(lightning), INT(water), BLK(traitless)\r\n        base stat rolls: 1*(1-50), 2*(45-75), 3*(70-100), 4*(50-100), 5*(66-100, main is 68-100)\r\n        defense: each point contributes .25% to fight defense\r\n        cosmetics: 0-255, to be used for future display purposes\r\n    */\r\n\r\n    struct Shield {\r\n        uint16 properties; // right to left: 3b stars, 2b trait, 7b stat pattern, 4b EMPTY\r\n        // stats (each point refers to .25% improvement)\r\n        uint16 stat1;\r\n        uint16 stat2;\r\n        uint16 stat3;\r\n    }\r\n\r\n    struct ShieldCosmetics {\r\n        uint8 version;\r\n        uint256 seed;\r\n    }\r\n\r\n    Shield[] private tokens;\r\n    ShieldCosmetics[] private cosmetics;\r\n\r\n    int128 public shieldBaseMultiplier; // 1.0\r\n    int128 public defenseMultPerPointBasic; // 0.25%\r\n    int128 public defenseMultPerPointDEF; // 0.2575% (+3%)\r\n    int128 public defenseMultPerPointMatching; // 0.2675% (+7%)\r\n\r\n    uint256 private lastMintedBlock;\r\n    uint256 private firstMintedOfLastBlock;\r\n\r\n    mapping(uint256 => uint64) durabilityTimestamp;\r\n\r\n    uint256 public constant maxDurability = 20;\r\n    uint256 public constant secondsPerDurability = 3000; //50 * 60\r\n\r\n    event NewShield(uint256 indexed shield, address indexed minter);\r\n\r\n    modifier restricted() {\r\n        _restricted();\r\n        _;\r\n    }\r\n\r\n    function _restricted() internal view {\r\n        require(hasRole(GAME_ADMIN, msg.sender), \"Not game admin\");\r\n    }\r\n\r\n    modifier noFreshLookup(uint256 id) {\r\n        _noFreshLookup(id);\r\n        _;\r\n    }\r\n\r\n    function _noFreshLookup(uint256 id) internal view {\r\n        require(id < firstMintedOfLastBlock || lastMintedBlock < block.number, \"Too fresh for lookup\");\r\n    }\r\n\r\n    function getStats(uint256 id) internal view\r\n        returns (uint16 _properties, uint16 _stat1, uint16 _stat2, uint16 _stat3) {\r\n\r\n        Shield memory s = tokens[id];\r\n        return (s.properties, s.stat1, s.stat2, s.stat3);\r\n    }\r\n\r\n    function get(uint256 id) public view noFreshLookup(id)\r\n        returns (\r\n            uint16 _properties, uint16 _stat1, uint16 _stat2, uint16 _stat3\r\n    ) {\r\n        return _get(id);\r\n    }\r\n\r\n    function _get(uint256 id) internal view\r\n        returns (\r\n            uint16 _properties, uint16 _stat1, uint16 _stat2, uint16 _stat3\r\n    ) {\r\n        return getStats(id);\r\n    }\r\n\r\n    function getOwned() public view returns(uint256[] memory) {\r\n        return getOwnedBy(msg.sender);\r\n    }\r\n\r\n    function getOwnedBy(address owner) public view returns(uint256[] memory) {\r\n        uint256[] memory tokens = new uint256[](balanceOf(owner));\r\n        for(uint256 i = 0; i < tokens.length; i++) {\r\n            tokens[i] = tokenOfOwnerByIndex(owner, i);\r\n        }\r\n        return tokens;\r\n    }\r\n\r\n    function mintForPurchase(address buyer) external restricted {\r\n        require(totalSupply() < 10000, \"Out of stock\"); // temporary restriction\r\n        mint(buyer, uint256(keccak256(abi.encodePacked(buyer, block.timestamp, blockhash(block.number - 1), gasleft()))));\r\n    }\r\n\r\n    function mint(address minter, uint256 seed) public restricted returns(uint256) {\r\n        uint256 stars;\r\n        uint256 roll = seed % 100;\r\n        // will need revision, possibly manual configuration if we support more than 5 stars\r\n        if(roll < 1) {\r\n            stars = 4; // 5* at 1%\r\n        }\r\n        else if(roll < 6) { // 4* at 5%\r\n            stars = 3;\r\n        }\r\n        else if(roll < 21) { // 3* at 15%\r\n            stars = 2;\r\n        }\r\n        else if(roll < 56) { // 2* at 35%\r\n            stars = 1;\r\n        }\r\n        else {\r\n            stars = 0; // 1* at 44%\r\n        }\r\n\r\n        return mintShieldWithStars(minter, stars, seed);\r\n    }\r\n\r\n    function mintShieldWithStars(address minter, uint256 stars, uint256 seed) public restricted returns(uint256) {\r\n        require(stars < 8, \"Stars parameter too high! (max 7)\");\r\n        (uint16 stat1, uint16 stat2, uint16 stat3) = getStatRolls(stars, seed);\r\n\r\n        return performMintShield(minter,\r\n            getRandomProperties(stars, seed),\r\n            stat1,\r\n            stat2,\r\n            stat3,\r\n            RandomUtil.combineSeeds(seed,3)\r\n        );\r\n    }\r\n\r\n    function performMintShield(address minter,\r\n        uint16 properties,\r\n        uint16 stat1, uint16 stat2, uint16 stat3,\r\n        uint256 cosmeticSeed\r\n    ) public restricted returns(uint256) {\r\n\r\n        uint256 tokenID = tokens.length;\r\n\r\n        if(block.number != lastMintedBlock)\r\n            firstMintedOfLastBlock = tokenID;\r\n        lastMintedBlock = block.number;\r\n\r\n        tokens.push(Shield(properties, stat1, stat2, stat3));\r\n        cosmetics.push(ShieldCosmetics(0, cosmeticSeed));\r\n        _mint(minter, tokenID);\r\n        durabilityTimestamp[tokenID] = uint64(now.sub(getDurabilityMaxWait()));\r\n\r\n        emit NewShield(tokenID, minter);\r\n        return tokenID;\r\n    }\r\n\r\n    function getRandomProperties(uint256 stars, uint256 seed) public pure returns (uint16) {\r\n        return uint16((stars & 0x7) // stars aren't randomized here!\r\n            | ((RandomUtil.randomSeededMinMax(0,3,RandomUtil.combineSeeds(seed,1)) & 0x3) << 3) // trait\r\n            | ((RandomUtil.randomSeededMinMax(0,124,RandomUtil.combineSeeds(seed,2)) & 0x7F) << 5)); // statPattern\r\n    }\r\n\r\n    function getStatRolls(uint256 stars, uint256 seed) private pure returns (uint16, uint16, uint16) {\r\n        uint16 minRoll = getStatMinRoll(stars);\r\n        uint16 maxRoll = getStatMaxRoll(stars);\r\n        uint8 statCount = getStatCount(stars);\r\n\r\n        uint16 stat1 = getRandomStat(minRoll, maxRoll, seed, 5);\r\n        uint16 stat2 = 0;\r\n        uint16 stat3 = 0;\r\n        if(statCount > 1) {\r\n            stat2 = getRandomStat(minRoll, maxRoll, seed, 3);\r\n        }\r\n        if(statCount > 2) {\r\n            stat3 = getRandomStat(minRoll, maxRoll, seed, 4);\r\n        }\r\n        return (stat1, stat2, stat3);\r\n    }\r\n\r\n    function getRandomStat(uint16 minRoll, uint16 maxRoll, uint256 seed, uint256 seed2) public pure returns (uint16) {\r\n        return uint16(RandomUtil.randomSeededMinMax(minRoll, maxRoll,RandomUtil.combineSeeds(seed, seed2)));\r\n    }\r\n\r\n    function getRandomCosmetic(uint256 seed, uint256 seed2, uint8 limit) public pure returns (uint8) {\r\n        return uint8(RandomUtil.randomSeededMinMax(0, limit, RandomUtil.combineSeeds(seed, seed2)));\r\n    }\r\n\r\n    function getStatMinRoll(uint256 stars) public pure returns (uint16) {\r\n        // 1 star\r\n        if (stars == 0) return 4;\r\n        // 2 star\r\n        if (stars == 1) return 180;\r\n        // 3 star\r\n        if (stars == 2) return 280;\r\n        // 4 star\r\n        if (stars == 3) return 200;\r\n        // 5+ star\r\n        return 268;\r\n    }\r\n\r\n    function getStatMaxRoll(uint256 stars) public pure returns (uint16) {\r\n        // 3+ star\r\n        if (stars > 1) return 400;\r\n        // 2 star\r\n        if (stars > 0) return 300;\r\n        // 1 star\r\n        return 200;\r\n    }\r\n\r\n    function getStatCount(uint256 stars) public pure returns (uint8) {\r\n        // 1-2 star\r\n        if (stars < 3) return 1;\r\n        // 3+ star\r\n        return uint8(stars)-1;\r\n    }\r\n\r\n    function getProperties(uint256 id) public view noFreshLookup(id) returns (uint16) {\r\n        return tokens[id].properties;\r\n    }\r\n\r\n    function getStars(uint256 id) public view noFreshLookup(id) returns (uint8) {\r\n        return getStarsFromProperties(getProperties(id));\r\n    }\r\n\r\n    function getStarsFromProperties(uint16 properties) public pure returns (uint8) {\r\n        return uint8(properties & 0x7); // first two bits for stars\r\n    }\r\n\r\n    function getTrait(uint256 id) public view noFreshLookup(id) returns (uint8) {\r\n        return getTraitFromProperties(getProperties(id));\r\n    }\r\n\r\n    function getTraitFromProperties(uint16 properties) public pure returns (uint8) {\r\n        return uint8((properties >> 3) & 0x3); // two bits after star bits (3)\r\n    }\r\n\r\n    function getStatPattern(uint256 id) public view noFreshLookup(id) returns (uint8) {\r\n        return getStatPatternFromProperties(getProperties(id));\r\n    }\r\n\r\n    function getStatPatternFromProperties(uint16 properties) public pure returns (uint8) {\r\n        return uint8((properties >> 5) & 0x7F); // 7 bits after star(3) and trait(2) bits\r\n    }\r\n\r\n    function getStat1Trait(uint8 statPattern) public pure returns (uint8) {\r\n        return uint8(uint256(statPattern) % 5); // 0-3 regular traits, 4 = traitless (DEF)\r\n    }\r\n\r\n    function getStat2Trait(uint8 statPattern) public pure returns (uint8) {\r\n        return uint8(SafeMath.div(statPattern, 5) % 5); // 0-3 regular traits, 4 = traitless (DEF)\r\n    }\r\n\r\n    function getStat3Trait(uint8 statPattern) public pure returns (uint8) {\r\n        return uint8(SafeMath.div(statPattern, 25) % 5); // 0-3 regular traits, 4 = traitless (DEF)\r\n    }\r\n\r\n    function getStat1(uint256 id) public view noFreshLookup(id) returns (uint16) {\r\n        return tokens[id].stat1;\r\n    }\r\n\r\n    function getStat2(uint256 id) public view noFreshLookup(id) returns (uint16) {\r\n        return tokens[id].stat2;\r\n    }\r\n\r\n    function getStat3(uint256 id) public view noFreshLookup(id) returns (uint16) {\r\n        return tokens[id].stat3;\r\n    }\r\n\r\n    function getDefenseMultiplier(uint256 id) public view noFreshLookup(id) returns (int128) {\r\n        // returns a 64.64 fixed point number for defense multiplier\r\n        // this function does not account for traits\r\n        // it is used to calculate base enemy defenses for targeting\r\n        Shield memory shd = tokens[id];\r\n        int128 defensePerPoint = defenseMultPerPointBasic;\r\n        int128 stat1 = shd.stat1.fromUInt().mul(defensePerPoint);\r\n        int128 stat2 = shd.stat2.fromUInt().mul(defensePerPoint);\r\n        int128 stat3 = shd.stat3.fromUInt().mul(defensePerPoint);\r\n        return shieldBaseMultiplier.add(stat1).add(stat2).add(stat3);\r\n    }\r\n\r\n    function getDefenseMultiplierForTrait(\r\n        uint16 properties,\r\n        uint16 stat1,\r\n        uint16 stat2,\r\n        uint16 stat3,\r\n        uint8 trait\r\n    ) public view returns(int128) {\r\n        // Does not include character trait to shield trait match\r\n        // Only counts arbitrary trait to shield stat trait\r\n        // This function can be used by frontend to get expected % bonus for each type\r\n        // Making it easy to see on the market how useful it will be to you\r\n        uint8 statPattern = getStatPatternFromProperties(properties);\r\n        int128 result = shieldBaseMultiplier;\r\n\r\n        if(getStat1Trait(statPattern) == trait)\r\n            result = result.add(stat1.fromUInt().mul(defenseMultPerPointMatching));\r\n        else if(getStat1Trait(statPattern) == 4) // DEF, traitless\r\n            result = result.add(stat1.fromUInt().mul(defenseMultPerPointDEF));\r\n        else\r\n            result = result.add(stat1.fromUInt().mul(defenseMultPerPointBasic));\r\n\r\n        if(getStat2Trait(statPattern) == trait)\r\n            result = result.add(stat2.fromUInt().mul(defenseMultPerPointMatching));\r\n        else if(getStat2Trait(statPattern) == 4) // DEF, traitless\r\n            result = result.add(stat2.fromUInt().mul(defenseMultPerPointDEF));\r\n        else\r\n            result = result.add(stat2.fromUInt().mul(defenseMultPerPointBasic));\r\n\r\n        if(getStat3Trait(statPattern) == trait)\r\n            result = result.add(stat3.fromUInt().mul(defenseMultPerPointMatching));\r\n        else if(getStat3Trait(statPattern) == 4) // DEF, traitless\r\n            result = result.add(stat3.fromUInt().mul(defenseMultPerPointDEF));\r\n        else\r\n            result = result.add(stat3.fromUInt().mul(defenseMultPerPointBasic));\r\n\r\n        return result;\r\n    }\r\n\r\n    function getFightData(uint256 id, uint8 charTrait) public view noFreshLookup(id) returns (int128, int128, uint24, uint8) {\r\n        Shield storage shd = tokens[id];\r\n        return (\r\n            shieldBaseMultiplier.add(defenseMultPerPointBasic.mul(\r\n                    ABDKMath64x64.fromUInt(\r\n                        shd.stat1 + shd.stat2 + shd.stat3\r\n                    )\r\n            )),//targetMult\r\n            getDefenseMultiplierForTrait(shd.properties, shd.stat1, shd.stat2, shd.stat3, charTrait),\r\n            // Bonus defense support intended in future.\r\n            0,\r\n            getTraitFromProperties(shd.properties)\r\n        );\r\n    }\r\n\r\n    function getFightDataAndDrainDurability(uint256 id, uint8 charTrait, uint8 drainAmount) public\r\n        restricted noFreshLookup(id)\r\n    returns (int128, int128, uint24, uint8) {\r\n\r\n        uint8 durabilityPoints = getDurabilityPointsFromTimestamp(durabilityTimestamp[id]);\r\n        require(durabilityPoints >= drainAmount, \"Not enough durability!\");\r\n\r\n        uint64 drainTime = uint64(drainAmount * secondsPerDurability);\r\n        if(durabilityPoints >= maxDurability) { // if durability full, we reset timestamp and drain from that\r\n            durabilityTimestamp[id] = uint64(now - getDurabilityMaxWait() + drainTime);\r\n        }\r\n        else {\r\n            durabilityTimestamp[id] = uint64(durabilityTimestamp[id] + drainTime);\r\n        }\r\n        \r\n        Shield storage shd = tokens[id];\r\n        return (\r\n            shieldBaseMultiplier.add(defenseMultPerPointBasic.mul(\r\n                    ABDKMath64x64.fromUInt(\r\n                        shd.stat1 + shd.stat2 + shd.stat3\r\n                    )\r\n            )),//targetMult\r\n            getDefenseMultiplierForTrait(shd.properties, shd.stat1, shd.stat2, shd.stat3, charTrait),\r\n            // Bonus defense support intended in future.\r\n            0,\r\n            getTraitFromProperties(shd.properties)\r\n        );\r\n    }\r\n\r\n    function drainDurability(uint256 id, uint8 amount) public restricted {\r\n        uint8 durabilityPoints = getDurabilityPointsFromTimestamp(durabilityTimestamp[id]);\r\n        require(durabilityPoints >= amount, \"Not enough durability!\");\r\n\r\n        uint64 drainTime = uint64(amount * secondsPerDurability);\r\n        if(durabilityPoints >= maxDurability) { // if durability full, we reset timestamp and drain from that\r\n            durabilityTimestamp[id] = uint64(now - getDurabilityMaxWait() + drainTime);\r\n        }\r\n        else {\r\n            durabilityTimestamp[id] = uint64(durabilityTimestamp[id] + drainTime);\r\n        }\r\n    }\r\n\r\n    function getDurabilityTimestamp(uint256 id) public view returns (uint64) {\r\n        return durabilityTimestamp[id];\r\n    }\r\n\r\n    function setDurabilityTimestamp(uint256 id, uint64 timestamp) public restricted {\r\n        durabilityTimestamp[id] = timestamp;\r\n    }\r\n\r\n    function getDurabilityPoints(uint256 id) public view returns (uint8) {\r\n        return getDurabilityPointsFromTimestamp(durabilityTimestamp[id]);\r\n    }\r\n\r\n    function getDurabilityPointsFromTimestamp(uint64 timestamp) public view returns (uint8) {\r\n        if(timestamp  > now)\r\n            return 0;\r\n\r\n        uint256 points = (now - timestamp) / secondsPerDurability;\r\n        if(points > maxDurability) {\r\n            points = maxDurability;\r\n        }\r\n        return uint8(points);\r\n    }\r\n\r\n    function isDurabilityFull(uint256 id) public view returns (bool) {\r\n        return getDurabilityPoints(id) >= maxDurability;\r\n    }\r\n\r\n    function getDurabilityMaxWait() public pure returns (uint64) {\r\n        return uint64(maxDurability * secondsPerDurability);\r\n    }\r\n}\r\n",
  "sourcePath": "C:\\Users\\Dan\\Desktop\\code\\pessoal\\CB_original\\cryptoblades\\contracts\\shields.sol",
  "compiler": {
    "name": "solc",
    "version": "0.6.5+commit.f956cc89.Emscripten.clang"
  },
  "schemaVersion": "3.3.4",
  "updatedAt": "2021-08-09T12:18:07.010Z",
  "devdoc": {
    "methods": {
      "approve(address,uint256)": {
        "details": "See {IERC721-approve}."
      },
      "balanceOf(address)": {
        "details": "See {IERC721-balanceOf}."
      },
      "baseURI()": {
        "details": "Returns the base URI set via {_setBaseURI}. This will be automatically added as a prefix in {tokenURI} to each token's URI, or to the token ID if no specific URI is set for that token ID."
      },
      "getApproved(uint256)": {
        "details": "See {IERC721-getApproved}."
      },
      "getRoleAdmin(bytes32)": {
        "details": "Returns the admin role that controls `role`. See {grantRole} and {revokeRole}.     * To change a role's admin, use {_setRoleAdmin}."
      },
      "getRoleMember(bytes32,uint256)": {
        "details": "Returns one of the accounts that have `role`. `index` must be a value between 0 and {getRoleMemberCount}, non-inclusive.     * Role bearers are not sorted in any particular way, and their ordering may change at any point.     * WARNING: When using {getRoleMember} and {getRoleMemberCount}, make sure you perform all queries on the same block. See the following https://forum.openzeppelin.com/t/iterating-over-elements-on-enumerableset-in-openzeppelin-contracts/2296[forum post] for more information."
      },
      "getRoleMemberCount(bytes32)": {
        "details": "Returns the number of accounts that have `role`. Can be used together with {getRoleMember} to enumerate all bearers of a role."
      },
      "grantRole(bytes32,address)": {
        "details": "Grants `role` to `account`.     * If `account` had not been already granted `role`, emits a {RoleGranted} event.     * Requirements:     * - the caller must have ``role``'s admin role."
      },
      "hasRole(bytes32,address)": {
        "details": "Returns `true` if `account` has been granted `role`."
      },
      "isApprovedForAll(address,address)": {
        "details": "See {IERC721-isApprovedForAll}."
      },
      "name()": {
        "details": "See {IERC721Metadata-name}."
      },
      "ownerOf(uint256)": {
        "details": "See {IERC721-ownerOf}."
      },
      "renounceRole(bytes32,address)": {
        "details": "Revokes `role` from the calling account.     * Roles are often managed via {grantRole} and {revokeRole}: this function's purpose is to provide a mechanism for accounts to lose their privileges if they are compromised (such as when a trusted device is misplaced).     * If the calling account had been granted `role`, emits a {RoleRevoked} event.     * Requirements:     * - the caller must be `account`."
      },
      "revokeRole(bytes32,address)": {
        "details": "Revokes `role` from `account`.     * If `account` had been granted `role`, emits a {RoleRevoked} event.     * Requirements:     * - the caller must have ``role``'s admin role."
      },
      "safeTransferFrom(address,address,uint256)": {
        "details": "See {IERC721-safeTransferFrom}."
      },
      "safeTransferFrom(address,address,uint256,bytes)": {
        "details": "See {IERC721-safeTransferFrom}."
      },
      "setApprovalForAll(address,bool)": {
        "details": "See {IERC721-setApprovalForAll}."
      },
      "supportsInterface(bytes4)": {
        "details": "See {IERC165-supportsInterface}.     * Time complexity O(1), guaranteed to always use less than 30 000 gas."
      },
      "symbol()": {
        "details": "See {IERC721Metadata-symbol}."
      },
      "tokenByIndex(uint256)": {
        "details": "See {IERC721Enumerable-tokenByIndex}."
      },
      "tokenOfOwnerByIndex(address,uint256)": {
        "details": "See {IERC721Enumerable-tokenOfOwnerByIndex}."
      },
      "tokenURI(uint256)": {
        "details": "See {IERC721Metadata-tokenURI}."
      },
      "totalSupply()": {
        "details": "See {IERC721Enumerable-totalSupply}."
      },
      "transferFrom(address,address,uint256)": {
        "details": "See {IERC721-transferFrom}."
      }
    }
  },
  "userdoc": {
    "methods": {}
  }
}