{
  "contractName": "StakingRewards",
  "abi": [
    {
      "inputs": [
        {
          "internalType": "address",
          "name": "_owner",
          "type": "address"
        },
        {
          "internalType": "address",
          "name": "_rewardsDistribution",
          "type": "address"
        },
        {
          "internalType": "address",
          "name": "_rewardsToken",
          "type": "address"
        },
        {
          "internalType": "address",
          "name": "_stakingToken",
          "type": "address"
        },
        {
          "internalType": "uint256",
          "name": "_minimumStakeAmount",
          "type": "uint256"
        },
        {
          "internalType": "uint256",
          "name": "_minimumStakeTime",
          "type": "uint256"
        }
      ],
      "stateMutability": "nonpayable",
      "type": "constructor"
    },
    {
      "anonymous": false,
      "inputs": [],
      "name": "FailsafeModeEnabled",
      "type": "event"
    },
    {
      "anonymous": false,
      "inputs": [
        {
          "indexed": false,
          "internalType": "uint256",
          "name": "newMinimumStakeAmount",
          "type": "uint256"
        }
      ],
      "name": "MinimumStakeAmountUpdated",
      "type": "event"
    },
    {
      "anonymous": false,
      "inputs": [
        {
          "indexed": false,
          "internalType": "uint256",
          "name": "newMinimumStakeTime",
          "type": "uint256"
        }
      ],
      "name": "MinimumStakeTimeUpdated",
      "type": "event"
    },
    {
      "anonymous": false,
      "inputs": [
        {
          "indexed": false,
          "internalType": "address",
          "name": "oldOwner",
          "type": "address"
        },
        {
          "indexed": false,
          "internalType": "address",
          "name": "newOwner",
          "type": "address"
        }
      ],
      "name": "OwnerChanged",
      "type": "event"
    },
    {
      "anonymous": false,
      "inputs": [
        {
          "indexed": false,
          "internalType": "address",
          "name": "newOwner",
          "type": "address"
        }
      ],
      "name": "OwnerNominated",
      "type": "event"
    },
    {
      "anonymous": false,
      "inputs": [
        {
          "indexed": false,
          "internalType": "bool",
          "name": "isPaused",
          "type": "bool"
        }
      ],
      "name": "PauseChanged",
      "type": "event"
    },
    {
      "anonymous": false,
      "inputs": [
        {
          "indexed": false,
          "internalType": "address",
          "name": "token",
          "type": "address"
        },
        {
          "indexed": false,
          "internalType": "uint256",
          "name": "amount",
          "type": "uint256"
        }
      ],
      "name": "Recovered",
      "type": "event"
    },
    {
      "anonymous": false,
      "inputs": [
        {
          "indexed": false,
          "internalType": "uint256",
          "name": "reward",
          "type": "uint256"
        }
      ],
      "name": "RewardAdded",
      "type": "event"
    },
    {
      "anonymous": false,
      "inputs": [
        {
          "indexed": true,
          "internalType": "address",
          "name": "user",
          "type": "address"
        },
        {
          "indexed": false,
          "internalType": "uint256",
          "name": "reward",
          "type": "uint256"
        }
      ],
      "name": "RewardPaid",
      "type": "event"
    },
    {
      "anonymous": false,
      "inputs": [
        {
          "indexed": false,
          "internalType": "uint256",
          "name": "newDuration",
          "type": "uint256"
        }
      ],
      "name": "RewardsDurationUpdated",
      "type": "event"
    },
    {
      "anonymous": false,
      "inputs": [
        {
          "indexed": true,
          "internalType": "address",
          "name": "user",
          "type": "address"
        },
        {
          "indexed": false,
          "internalType": "uint256",
          "name": "amount",
          "type": "uint256"
        }
      ],
      "name": "Staked",
      "type": "event"
    },
    {
      "anonymous": false,
      "inputs": [
        {
          "indexed": true,
          "internalType": "address",
          "name": "user",
          "type": "address"
        },
        {
          "indexed": false,
          "internalType": "uint256",
          "name": "amount",
          "type": "uint256"
        }
      ],
      "name": "Withdrawn",
      "type": "event"
    },
    {
      "inputs": [],
      "name": "acceptOwnership",
      "outputs": [],
      "stateMutability": "nonpayable",
      "type": "function"
    },
    {
      "inputs": [],
      "name": "failsafeModeActive",
      "outputs": [
        {
          "internalType": "bool",
          "name": "",
          "type": "bool"
        }
      ],
      "stateMutability": "view",
      "type": "function"
    },
    {
      "inputs": [],
      "name": "lastPauseTime",
      "outputs": [
        {
          "internalType": "uint256",
          "name": "",
          "type": "uint256"
        }
      ],
      "stateMutability": "view",
      "type": "function"
    },
    {
      "inputs": [],
      "name": "lastUpdateTime",
      "outputs": [
        {
          "internalType": "uint256",
          "name": "",
          "type": "uint256"
        }
      ],
      "stateMutability": "view",
      "type": "function"
    },
    {
      "inputs": [],
      "name": "minimumStakeAmount",
      "outputs": [
        {
          "internalType": "uint256",
          "name": "",
          "type": "uint256"
        }
      ],
      "stateMutability": "view",
      "type": "function"
    },
    {
      "inputs": [],
      "name": "minimumStakeTime",
      "outputs": [
        {
          "internalType": "uint256",
          "name": "",
          "type": "uint256"
        }
      ],
      "stateMutability": "view",
      "type": "function"
    },
    {
      "inputs": [
        {
          "internalType": "address",
          "name": "_owner",
          "type": "address"
        }
      ],
      "name": "nominateNewOwner",
      "outputs": [],
      "stateMutability": "nonpayable",
      "type": "function"
    },
    {
      "inputs": [],
      "name": "nominatedOwner",
      "outputs": [
        {
          "internalType": "address",
          "name": "",
          "type": "address"
        }
      ],
      "stateMutability": "view",
      "type": "function"
    },
    {
      "inputs": [],
      "name": "owner",
      "outputs": [
        {
          "internalType": "address",
          "name": "",
          "type": "address"
        }
      ],
      "stateMutability": "view",
      "type": "function"
    },
    {
      "inputs": [],
      "name": "paused",
      "outputs": [
        {
          "internalType": "bool",
          "name": "",
          "type": "bool"
        }
      ],
      "stateMutability": "view",
      "type": "function"
    },
    {
      "inputs": [],
      "name": "periodFinish",
      "outputs": [
        {
          "internalType": "uint256",
          "name": "",
          "type": "uint256"
        }
      ],
      "stateMutability": "view",
      "type": "function"
    },
    {
      "inputs": [],
      "name": "rewardPerTokenStored",
      "outputs": [
        {
          "internalType": "uint256",
          "name": "",
          "type": "uint256"
        }
      ],
      "stateMutability": "view",
      "type": "function"
    },
    {
      "inputs": [],
      "name": "rewardRate",
      "outputs": [
        {
          "internalType": "uint256",
          "name": "",
          "type": "uint256"
        }
      ],
      "stateMutability": "view",
      "type": "function"
    },
    {
      "inputs": [
        {
          "internalType": "address",
          "name": "",
          "type": "address"
        }
      ],
      "name": "rewards",
      "outputs": [
        {
          "internalType": "uint256",
          "name": "",
          "type": "uint256"
        }
      ],
      "stateMutability": "view",
      "type": "function"
    },
    {
      "inputs": [],
      "name": "rewardsDistribution",
      "outputs": [
        {
          "internalType": "address",
          "name": "",
          "type": "address"
        }
      ],
      "stateMutability": "view",
      "type": "function"
    },
    {
      "inputs": [],
      "name": "rewardsDuration",
      "outputs": [
        {
          "internalType": "uint256",
          "name": "",
          "type": "uint256"
        }
      ],
      "stateMutability": "view",
      "type": "function"
    },
    {
      "inputs": [],
      "name": "rewardsToken",
      "outputs": [
        {
          "internalType": "contract IERC20",
          "name": "",
          "type": "address"
        }
      ],
      "stateMutability": "view",
      "type": "function"
    },
    {
      "inputs": [
        {
          "internalType": "bool",
          "name": "_paused",
          "type": "bool"
        }
      ],
      "name": "setPaused",
      "outputs": [],
      "stateMutability": "nonpayable",
      "type": "function"
    },
    {
      "inputs": [
        {
          "internalType": "address",
          "name": "_rewardsDistribution",
          "type": "address"
        }
      ],
      "name": "setRewardsDistribution",
      "outputs": [],
      "stateMutability": "nonpayable",
      "type": "function"
    },
    {
      "inputs": [],
      "name": "stakingToken",
      "outputs": [
        {
          "internalType": "contract IERC20",
          "name": "",
          "type": "address"
        }
      ],
      "stateMutability": "view",
      "type": "function"
    },
    {
      "inputs": [
        {
          "internalType": "address",
          "name": "",
          "type": "address"
        }
      ],
      "name": "userRewardPerTokenPaid",
      "outputs": [
        {
          "internalType": "uint256",
          "name": "",
          "type": "uint256"
        }
      ],
      "stateMutability": "view",
      "type": "function"
    },
    {
      "inputs": [],
      "name": "totalSupply",
      "outputs": [
        {
          "internalType": "uint256",
          "name": "",
          "type": "uint256"
        }
      ],
      "stateMutability": "view",
      "type": "function"
    },
    {
      "inputs": [
        {
          "internalType": "address",
          "name": "account",
          "type": "address"
        }
      ],
      "name": "balanceOf",
      "outputs": [
        {
          "internalType": "uint256",
          "name": "",
          "type": "uint256"
        }
      ],
      "stateMutability": "view",
      "type": "function"
    },
    {
      "inputs": [],
      "name": "lastTimeRewardApplicable",
      "outputs": [
        {
          "internalType": "uint256",
          "name": "",
          "type": "uint256"
        }
      ],
      "stateMutability": "view",
      "type": "function"
    },
    {
      "inputs": [],
      "name": "rewardPerToken",
      "outputs": [
        {
          "internalType": "uint256",
          "name": "",
          "type": "uint256"
        }
      ],
      "stateMutability": "view",
      "type": "function"
    },
    {
      "inputs": [
        {
          "internalType": "address",
          "name": "account",
          "type": "address"
        }
      ],
      "name": "earned",
      "outputs": [
        {
          "internalType": "uint256",
          "name": "",
          "type": "uint256"
        }
      ],
      "stateMutability": "view",
      "type": "function"
    },
    {
      "inputs": [],
      "name": "getRewardForDuration",
      "outputs": [
        {
          "internalType": "uint256",
          "name": "",
          "type": "uint256"
        }
      ],
      "stateMutability": "view",
      "type": "function"
    },
    {
      "inputs": [],
      "name": "getStakeRewardDistributionTimeLeft",
      "outputs": [
        {
          "internalType": "uint256",
          "name": "",
          "type": "uint256"
        }
      ],
      "stateMutability": "view",
      "type": "function"
    },
    {
      "inputs": [],
      "name": "getStakeUnlockTimeLeft",
      "outputs": [
        {
          "internalType": "uint256",
          "name": "",
          "type": "uint256"
        }
      ],
      "stateMutability": "view",
      "type": "function"
    },
    {
      "inputs": [
        {
          "internalType": "uint256",
          "name": "amount",
          "type": "uint256"
        }
      ],
      "name": "stake",
      "outputs": [],
      "stateMutability": "nonpayable",
      "type": "function"
    },
    {
      "inputs": [
        {
          "internalType": "uint256",
          "name": "amount",
          "type": "uint256"
        }
      ],
      "name": "withdraw",
      "outputs": [],
      "stateMutability": "nonpayable",
      "type": "function"
    },
    {
      "inputs": [],
      "name": "getReward",
      "outputs": [],
      "stateMutability": "nonpayable",
      "type": "function"
    },
    {
      "inputs": [],
      "name": "exit",
      "outputs": [],
      "stateMutability": "nonpayable",
      "type": "function"
    },
    {
      "inputs": [],
      "name": "recoverOwnStake",
      "outputs": [],
      "stateMutability": "nonpayable",
      "type": "function"
    },
    {
      "inputs": [
        {
          "internalType": "uint256",
          "name": "reward",
          "type": "uint256"
        }
      ],
      "name": "notifyRewardAmount",
      "outputs": [],
      "stateMutability": "nonpayable",
      "type": "function"
    },
    {
      "inputs": [
        {
          "internalType": "uint256",
          "name": "timestamp",
          "type": "uint256"
        }
      ],
      "name": "updatePeriodFinish",
      "outputs": [],
      "stateMutability": "nonpayable",
      "type": "function"
    },
    {
      "inputs": [
        {
          "internalType": "address",
          "name": "tokenAddress",
          "type": "address"
        },
        {
          "internalType": "uint256",
          "name": "tokenAmount",
          "type": "uint256"
        }
      ],
      "name": "recoverERC20",
      "outputs": [],
      "stateMutability": "nonpayable",
      "type": "function"
    },
    {
      "inputs": [
        {
          "internalType": "uint256",
          "name": "_rewardsDuration",
          "type": "uint256"
        }
      ],
      "name": "setRewardsDuration",
      "outputs": [],
      "stateMutability": "nonpayable",
      "type": "function"
    },
    {
      "inputs": [
        {
          "internalType": "uint256",
          "name": "_minimumStakeAmount",
          "type": "uint256"
        }
      ],
      "name": "setMinimumStakeAmount",
      "outputs": [],
      "stateMutability": "nonpayable",
      "type": "function"
    },
    {
      "inputs": [
        {
          "internalType": "uint256",
          "name": "_minimumStakeTime",
          "type": "uint256"
        }
      ],
      "name": "setMinimumStakeTime",
      "outputs": [],
      "stateMutability": "nonpayable",
      "type": "function"
    },
    {
      "inputs": [],
      "name": "enableFailsafeMode",
      "outputs": [],
      "stateMutability": "nonpayable",
      "type": "function"
    },
    {
      "inputs": [],
      "name": "recoverExtraStakingTokensToOwner",
      "outputs": [],
      "stateMutability": "nonpayable",
      "type": "function"
    }
  ],
  "bytecode": "0x60806040526004805460ff191690556000600881905560095562ed4e00600a5534801561002b57600080fd5b506040516123dd3803806123dd833981810160405260c081101561004e57600080fd5b508051602082015160408301516060840151608085015160a0909501519394929391929091856001600160a01b0381166100cf576040805162461bcd60e51b815260206004820152601960248201527f4f776e657220616464726573732063616e6e6f74206265203000000000000000604482015290519081900360640190fd5b600080546001600160a01b0319166001600160a01b038316908117825560408051928352602083019190915280517fb532073b38c83145e3e5135377a08bf9aab55bc0fd7c1179cd4fb995d2a5159c9281900390910190a15060016003556000546001600160a01b031661017e576040805162461bcd60e51b815260206004820152601160248201527013dddb995c881b5d5cdd081899481cd95d607a1b604482015290519081900360640190fd5b6000546001600160a01b03166101cf576040805162461bcd60e51b815260206004820152601160248201527013dddb995c881b5d5cdd081899481cd95d607a1b604482015290519081900360640190fd5b60068054610100600160a81b0319166101006001600160a01b0396871602179055600780546001600160a01b03199081169486169490941790556002805490931694909316939093179055600b91909155600c55506121aa806102336000396000f3fe608060405234801561001057600080fd5b506004361061025d5760003560e01c80636b036f4511610146578063a694fc3a116100c3578063df136d6511610087578063df136d6514610533578063e2adc2371461053b578063e942204614610543578063e9fad8ee14610560578063ebe2b12b14610568578063f603944c146105705761025d565b8063a694fc3a146104e1578063c8f33c91146104fe578063cc1a378f14610506578063cd3daf9d14610523578063d1af0c7d1461052b5761025d565b806380faa57d1161010a57806380faa57d146104775780638980f11f1461047f5780638b876347146104ab5780638da5cb5b146104d157806391b4ded9146104d95761025d565b80636b036f451461043157806370a082311461043957806372f702f31461045f57806379ba5097146104675780637b0a47ee1461046f5761025d565b806327ab1969116101df5780633d18b912116101a35780633d18b912146103d05780633fc6df6e146103d857806344142db5146103fc57806353a47bb714610404578063556f6e6b1461040c5780635c975abb146104295761025d565b806327ab19691461037e5780632e1a7d4d146103865780632f3d3b14146103a3578063386a9525146103ab5780633c6b16ab146103b35761025d565b806316c38b3c1161022657806316c38b3c1461032157806318160ddd1461034057806319762143146103485780631c1f78eb1461036e578063242df9e1146103765761025d565b80628cc262146102625780630700037d1461029a5780630d29fcd4146102c05780631265cc97146102df5780631627540c146102fb575b600080fd5b6102886004803603602081101561027857600080fd5b50356001600160a01b0316610578565b60408051918252519081900360200190f35b610288600480360360208110156102b057600080fd5b50356001600160a01b031661060e565b6102dd600480360360208110156102d657600080fd5b5035610620565b005b6102e76106a5565b604080519115158252519081900360200190f35b6102dd6004803603602081101561031157600080fd5b50356001600160a01b03166106ae565b6102dd6004803603602081101561033757600080fd5b5035151561070a565b610288610784565b6102dd6004803603602081101561035e57600080fd5b50356001600160a01b031661078b565b6102886107b5565b6102886107d3565b6102886107d9565b6102dd6004803603602081101561039c57600080fd5b503561080c565b6102dd610a7f565b610288610b38565b6102dd600480360360208110156103c957600080fd5b5035610b3e565b6102dd610de1565b6103e0610fdb565b604080516001600160a01b039092168252519081900360200190f35b6102dd610fea565b6103e06110ac565b6102dd6004803603602081101561042257600080fd5b50356110bb565b6102e76111b2565b6102886111bb565b6102886004803603602081101561044f57600080fd5b50356001600160a01b03166111c1565b6103e06111dc565b6102dd6111eb565b6102886112a7565b6102886112ad565b6102dd6004803603604081101561049557600080fd5b506001600160a01b0381351690602001356112bb565b610288600480360360208110156104c157600080fd5b50356001600160a01b0316611378565b6103e061138a565b610288611399565b6102dd600480360360208110156104f757600080fd5b503561139f565b610288611603565b6102dd6004803603602081101561051c57600080fd5b5035611609565b6102886116ce565b6103e0611728565b61028861173c565b6102dd611742565b6102dd6004803603602081101561055957600080fd5b50356117af565b6102dd611834565b610288611897565b61028861189d565b6001600160a01b038116600090815260106020908152604080832054600f90925282205461060891906105fc90670de0b6b3a7640000906105f0906105cb906105bf6116ce565b9063ffffffff6118d816565b6001600160a01b0388166000908152601260205260409020549063ffffffff61193516565b9063ffffffff61199516565b9063ffffffff6119fc16565b92915050565b60106020526000908152604090205481565b60045460ff16156106625760405162461bcd60e51b8152600401808060200182810382526046815260200180611f2e6046913960600191505060405180910390fd5b61066a611a56565b600b8190556040805182815290517ff7fc4cb95c43f64f7a376fd9ef5947d85e6aff2df3e9b1715789ffff63d716329181900360200190a150565b60045460ff1681565b6106b6611a56565b600180546001600160a01b0383166001600160a01b0319909116811790915560408051918252517f906a1c6bd7e3091ea86693dd029a831c19049ce77f1dce2ce0bab1cacbabce229181900360200190a150565b610712611a56565b60065460ff161515811515141561072857610781565b6006805460ff1916821515179081905560ff161561074557426005555b6006546040805160ff90921615158252517f8fb6c181ee25a520cf3dd6565006ef91229fcfe5a989566c2a3b8c115570cec59181900360200190a15b50565b6011545b90565b610793611a56565b600280546001600160a01b0319166001600160a01b0392909216919091179055565b60006107ce600a5460095461193590919063ffffffff16565b905090565b600c5481565b60008060006107f342600854611a9f90919063ffffffff16565b9150915081610803576000610805565b805b9250505090565b60045460ff161561084e5760405162461bcd60e51b8152600401808060200182810382526046815260200180611f2e6046913960600191505060405180910390fd5b600260035414156108a6576040805162461bcd60e51b815260206004820152601f60248201527f5265656e7472616e637947756172643a207265656e7472616e742063616c6c00604482015290519081900360640190fd5b6002600355600454339060ff16610911576108bf6116ce565b600e556108ca6112ad565b600d556001600160a01b03811615610911576108e581610578565b6001600160a01b038216600090815260106020908152604080832093909355600e54600f909152919020555b6000821161095a576040805162461bcd60e51b8152602060048201526011602482015270043616e6e6f74207769746864726177203607c1b604482015290519081900360640190fd5b600c54158061098b5750600c543360009081526013602052604090205461098890429063ffffffff6118d816565b10155b6109c65760405162461bcd60e51b81526004018080602001828103825260358152602001806120326035913960400191505060405180910390fd5b6011546109d9908363ffffffff6118d816565b601155336000908152601260205260409020546109fc908363ffffffff6118d816565b336000908152601260205260409020819055610a2357336000908152601360205260408120555b600754610a40906001600160a01b0316338463ffffffff611ac516565b60408051838152905133917f7084f5476618d8e60b11ef0d7d3f06914655adb8793e28ff7f018d4c76d505d5919081900360200190a250506001600355565b60045460ff16610ac05760405162461bcd60e51b8152600401808060200182810382526048815260200180611f746048913960600191505060405180910390fd5b33600090815260126020526040902054801561078157601154610ae9908263ffffffff6118d816565b60115533600090815260126020526040902054610b0c908263ffffffff6118d816565b33600081815260126020526040902091909155600754610781916001600160a01b039091169083611ac5565b600a5481565b60045460ff1615610b805760405162461bcd60e51b8152600401808060200182810382526046815260200180611f2e6046913960600191505060405180910390fd5b6002546001600160a01b03163314610bc95760405162461bcd60e51b815260040180806020018281038252602a8152602001806120c9602a913960400191505060405180910390fd5b60045460009060ff16610c3057610bde6116ce565b600e55610be96112ad565b600d556001600160a01b03811615610c3057610c0481610578565b6001600160a01b038216600090815260106020908152604080832093909355600e54600f909152919020555b6008544210610c5557600a54610c4d90839063ffffffff61199516565b600955610ca4565b600854600090610c6b904263ffffffff6118d816565b90506000610c846009548361193590919063ffffffff16565b600a54909150610c9e906105f0868463ffffffff6119fc16565b60095550505b600654604080516370a0823160e01b8152306004820152905160009261010090046001600160a01b0316916370a08231916024808301926020929190829003018186803b158015610cf457600080fd5b505afa158015610d08573d6000803e3d6000fd5b505050506040513d6020811015610d1e57600080fd5b5051600a54909150610d3790829063ffffffff61199516565b6009541115610d8d576040805162461bcd60e51b815260206004820152601860248201527f50726f76696465642072657761726420746f6f20686967680000000000000000604482015290519081900360640190fd5b42600d819055600a54610da6919063ffffffff6119fc16565b6008556040805184815290517fde88a922e0d3b88b24e9623efeb464919c6bf9f66857a65e2bfcf2ce87a9433d9181900360200190a1505050565b60045460ff1615610e235760405162461bcd60e51b8152600401808060200182810382526046815260200180611f2e6046913960600191505060405180910390fd5b60026003541415610e7b576040805162461bcd60e51b815260206004820152601f60248201527f5265656e7472616e637947756172643a207265656e7472616e742063616c6c00604482015290519081900360640190fd5b6002600355600454339060ff16610ee657610e946116ce565b600e55610e9f6112ad565b600d556001600160a01b03811615610ee657610eba81610578565b6001600160a01b038216600090815260106020908152604080832093909355600e54600f909152919020555b600c541580610f175750600c5433600090815260136020526040902054610f1490429063ffffffff6118d816565b10155b610f525760405162461bcd60e51b815260040180806020018281038252603781526020018061211d6037913960400191505060405180910390fd5b336000908152601060205260409020548015610fd25733600081815260106020526040812055600654610f9b916101009091046001600160a01b0316908363ffffffff611ac516565b60408051828152905133917fe2403640ba68fed3a2f88b7557551d1993f84b99bb10ff833f0cf8db0c5e0486919081900360200190a25b50506001600355565b6002546001600160a01b031681565b610ff2611a56565b601154600754604080516370a0823160e01b815230600482015290516000936110819390926001600160a01b03909116916370a0823191602480820192602092909190829003018186803b15801561104957600080fd5b505afa15801561105d573d6000803e3d6000fd5b505050506040513d602081101561107357600080fd5b50519063ffffffff6118d816565b9050801561078157600054600754610781916001600160a01b0391821691168363ffffffff611ac516565b6001546001600160a01b031681565b60045460ff16156110fd5760405162461bcd60e51b8152600401808060200182810382526046815260200180611f2e6046913960600191505060405180910390fd5b611105611a56565b60045460009060ff1661116c5761111a6116ce565b600e556111256112ad565b600d556001600160a01b0381161561116c5761114081610578565b6001600160a01b038216600090815260106020908152604080832093909355600e54600f909152919020555b600d5482116111ac5760405162461bcd60e51b81526004018080602001828103825260268152602001806120676026913960400191505060405180910390fd5b50600855565b60065460ff1681565b600b5481565b6001600160a01b031660009081526012602052604090205490565b6007546001600160a01b031681565b6001546001600160a01b031633146112345760405162461bcd60e51b8152600401808060200182810382526035815260200180611ef96035913960400191505060405180910390fd5b600054600154604080516001600160a01b03938416815292909116602083015280517fb532073b38c83145e3e5135377a08bf9aab55bc0fd7c1179cd4fb995d2a5159c9281900390910190a160018054600080546001600160a01b03199081166001600160a01b03841617909155169055565b60095481565b60006107ce42600854611b1c565b6112c3611a56565b6007546001600160a01b03838116911614156113105760405162461bcd60e51b81526004018080602001828103825260218152602001806121546021913960400191505060405180910390fd5b600054611330906001600160a01b0384811691168363ffffffff611ac516565b604080516001600160a01b03841681526020810183905281517f8c1256b8896378cd5044f80c202f9772b9d77dc85c8a6eb51967210b09bfaa28929181900390910190a15050565b600f6020526000908152604090205481565b6000546001600160a01b031681565b60055481565b60045460ff16156113e15760405162461bcd60e51b8152600401808060200182810382526046815260200180611f2e6046913960600191505060405180910390fd5b60026003541415611439576040805162461bcd60e51b815260206004820152601f60248201527f5265656e7472616e637947756172643a207265656e7472616e742063616c6c00604482015290519081900360640190fd5b600260035560065460ff16156114805760405162461bcd60e51b815260040180806020018281038252603c81526020018061208d603c913960400191505060405180910390fd5b600454339060ff166114e6576114946116ce565b600e5561149f6112ad565b600d556001600160a01b038116156114e6576114ba81610578565b6001600160a01b038216600090815260106020908152604080832093909355600e54600f909152919020555b600b5482101561153d576040805162461bcd60e51b815260206004820152601d60248201527f4d696e696d756d207374616b6520616d6f756e74207265717569726564000000604482015290519081900360640190fd5b601154611550908363ffffffff6119fc16565b60115533600090815260126020526040902054611573908363ffffffff6119fc16565b336000908152601260209081526040808320939093556013905220546115a6573360009081526013602052604090204290555b6007546115c4906001600160a01b031633308563ffffffff611b3216565b60408051838152905133917f9e71bc8eea02a63969f509818f2dafb9254532904319f9dbda79b67bd34a5f3d919081900360200190a250506001600355565b600d5481565b60045460ff161561164b5760405162461bcd60e51b8152600401808060200182810382526046815260200180611f2e6046913960600191505060405180910390fd5b611653611a56565b60085442116116935760405162461bcd60e51b8152600401808060200182810382526058815260200180611ea16058913960600191505060405180910390fd5b600a8190556040805182815290517ffb46ca5a5e06d4540d6387b930a7c978bce0db5f449ec6b3f5d07c6e1d44f2d39181900360200190a150565b6000601154600014156116e45750600e54610788565b6107ce6117196011546105f0670de0b6b3a764000061170d60095461170d600d546105bf6112ad565b9063ffffffff61193516565b600e549063ffffffff6119fc16565b60065461010090046001600160a01b031681565b600e5481565b60045460ff16156117845760405162461bcd60e51b8152600401808060200182810382526046815260200180611f2e6046913960600191505060405180910390fd5b61178c611a56565b6000600b819055600c81905560088190556009819055600e556117ad611b92565b565b60045460ff16156117f15760405162461bcd60e51b8152600401808060200182810382526046815260200180611f2e6046913960600191505060405180910390fd5b6117f9611a56565b600c8190556040805182815290517f2b0fa66d155c9598699cb6569577f27b95729bbf580268eed39db6bc4e8144779181900360200190a150565b60045460ff16156118765760405162461bcd60e51b8152600401808060200182810382526046815260200180611f2e6046913960600191505060405180910390fd5b3360009081526012602052604090205461188f9061080c565b6117ad610de1565b60085481565b600c54336000908152601360205260408120549091829182916107f39142916118cc919063ffffffff6119fc16565b9063ffffffff611a9f16565b60008282111561192f576040805162461bcd60e51b815260206004820152601e60248201527f536166654d6174683a207375627472616374696f6e206f766572666c6f770000604482015290519081900360640190fd5b50900390565b60008261194457506000610608565b8282028284828161195157fe5b041461198e5760405162461bcd60e51b81526004018080602001828103825260218152602001806120116021913960400191505060405180910390fd5b9392505050565b60008082116119eb576040805162461bcd60e51b815260206004820152601a60248201527f536166654d6174683a206469766973696f6e206279207a65726f000000000000604482015290519081900360640190fd5b8183816119f457fe5b049392505050565b60008282018381101561198e576040805162461bcd60e51b815260206004820152601b60248201527f536166654d6174683a206164646974696f6e206f766572666c6f770000000000604482015290519081900360640190fd5b6000546001600160a01b031633146117ad5760405162461bcd60e51b815260040180806020018281038252602f815260200180611fe2602f913960400191505060405180910390fd5b60008083831115611ab557506000905080611abe565b50600190508183035b9250929050565b604080516001600160a01b038416602482015260448082018490528251808303909101815260649091019091526020810180516001600160e01b031663a9059cbb60e01b179052611b17908490611bd2565b505050565b6000818310611b2b578161198e565b5090919050565b604080516001600160a01b0380861660248301528416604482015260648082018490528251808303909101815260849091019091526020810180516001600160e01b03166323b872dd60e01b179052611b8c908590611bd2565b50505050565b611b9a611a56565b6004805460ff191660011790556040517fe68101b30364d616deefc8cd307b7e27ccbd9c73f138bd478179497563d97a1190600090a1565b6060611c27826040518060400160405280602081526020017f5361666545524332303a206c6f772d6c6576656c2063616c6c206661696c6564815250856001600160a01b0316611c839092919063ffffffff16565b805190915015611b1757808060200190516020811015611c4657600080fd5b5051611b175760405162461bcd60e51b815260040180806020018281038252602a8152602001806120f3602a913960400191505060405180910390fd5b6060611c928484600085611c9a565b949350505050565b606082471015611cdb5760405162461bcd60e51b8152600401808060200182810382526026815260200180611fbc6026913960400191505060405180910390fd5b611ce485611df6565b611d35576040805162461bcd60e51b815260206004820152601d60248201527f416464726573733a2063616c6c20746f206e6f6e2d636f6e7472616374000000604482015290519081900360640190fd5b60006060866001600160a01b031685876040518082805190602001908083835b60208310611d745780518252601f199092019160209182019101611d55565b6001836020036101000a03801982511681845116808217855250505050505090500191505060006040518083038185875af1925050503d8060008114611dd6576040519150601f19603f3d011682016040523d82523d6000602084013e611ddb565b606091505b5091509150611deb828286611dfc565b979650505050505050565b3b151590565b60608315611e0b57508161198e565b825115611e1b5782518084602001fd5b8160405162461bcd60e51b81526004018080602001828103825283818151815260200191508051906020019080838360005b83811015611e65578181015183820152602001611e4d565b50505050905090810190601f168015611e925780820380516001836020036101000a031916815260200191505b509250505060405180910390fdfe50726576696f7573207265776172647320706572696f64206d75737420626520636f6d706c657465206265666f7265206368616e67696e6720746865206475726174696f6e20666f7220746865206e657720706572696f64596f75206d757374206265206e6f6d696e61746564206265666f726520796f752063616e20616363657074206f776e6572736869705468697320616374696f6e2063616e6e6f7420626520706572666f726d6564207768696c652074686520636f6e747261637420697320696e204661696c73616665204d6f64655468697320616374696f6e2063616e206f6e6c7920626520706572666f726d6564207768696c652074686520636f6e747261637420697320696e204661696c73616665204d6f6465416464726573733a20696e73756666696369656e742062616c616e636520666f722063616c6c4f6e6c792074686520636f6e7472616374206f776e6572206d617920706572666f726d207468697320616374696f6e536166654d6174683a206d756c7469706c69636174696f6e206f766572666c6f7743616e6e6f7420776974686472617720756e74696c206d696e696d756d207374616b696e672074696d65206861732070617373656454696d657374616d70206d757374206265206166746572206c61737455706461746554696d655468697320616374696f6e2063616e6e6f7420626520706572666f726d6564207768696c652074686520636f6e74726163742069732070617573656443616c6c6572206973206e6f742052657761726473446973747269627574696f6e20636f6e74726163745361666545524332303a204552433230206f7065726174696f6e20646964206e6f74207375636365656443616e6e6f74206765742072657761726420756e74696c206d696e696d756d207374616b696e672074696d65206861732070617373656443616e6e6f7420776974686472617720746865207374616b696e6720746f6b656ea2646970667358221220a263f33f0d27d3fd438e519465799c161f048d393f52df9d0cd667b5bb15599164736f6c63430006050033",
  "immutableReferences": {},
  "source": "pragma solidity ^0.6.2;\r\n\r\nimport \"@openzeppelin/contracts/math/Math.sol\";\r\nimport \"@openzeppelin/contracts/math/SafeMath.sol\";\r\nimport \"@openzeppelin/contracts/token/ERC20/SafeERC20.sol\";\r\nimport \"@openzeppelin/contracts/utils/ReentrancyGuard.sol\";\r\n\r\n// Inheritance\r\nimport \"./interfaces/IStakingRewards.sol\";\r\nimport \"./RewardsDistributionRecipient.sol\";\r\nimport \"./SynthetixPausable.sol\";\r\nimport \"./Failsafe.sol\";\r\n\r\n// https://docs.synthetix.io/contracts/source/contracts/stakingrewards\r\ncontract StakingRewards is\r\n    IStakingRewards,\r\n    RewardsDistributionRecipient,\r\n    ReentrancyGuard,\r\n    Failsafe,\r\n    SynthetixPausable\r\n{\r\n    using SafeMath for uint256;\r\n    using SafeERC20 for IERC20;\r\n\r\n    /* ========== STATE VARIABLES ========== */\r\n\r\n    IERC20 public rewardsToken;\r\n    IERC20 public stakingToken;\r\n    uint256 public periodFinish = 0;\r\n    uint256 public override rewardRate = 0;\r\n    uint256 public override rewardsDuration = 180 days;\r\n    uint256 public override minimumStakeAmount;\r\n    uint256 public override minimumStakeTime;\r\n    uint256 public lastUpdateTime;\r\n    uint256 public rewardPerTokenStored;\r\n\r\n    mapping(address => uint256) public userRewardPerTokenPaid;\r\n    mapping(address => uint256) public rewards;\r\n\r\n    uint256 private _totalSupply;\r\n    mapping(address => uint256) private _balances;\r\n    mapping(address => uint256) private _stakeTimestamp;\r\n\r\n    /* ========== CONSTRUCTOR ========== */\r\n\r\n    constructor(\r\n        address _owner,\r\n        address _rewardsDistribution,\r\n        address _rewardsToken,\r\n        address _stakingToken,\r\n        uint256 _minimumStakeAmount,\r\n        uint256 _minimumStakeTime\r\n    ) public Owned(_owner) {\r\n        rewardsToken = IERC20(_rewardsToken);\r\n        stakingToken = IERC20(_stakingToken);\r\n        rewardsDistribution = _rewardsDistribution;\r\n        minimumStakeAmount = _minimumStakeAmount;\r\n        minimumStakeTime = _minimumStakeTime;\r\n    }\r\n\r\n    /* ========== VIEWS ========== */\r\n\r\n    function totalSupply() external view override returns (uint256) {\r\n        return _totalSupply;\r\n    }\r\n\r\n    function balanceOf(address account)\r\n        external\r\n        view\r\n        override\r\n        returns (uint256)\r\n    {\r\n        return _balances[account];\r\n    }\r\n\r\n    function lastTimeRewardApplicable() public view override returns (uint256) {\r\n        return Math.min(block.timestamp, periodFinish);\r\n    }\r\n\r\n    function rewardPerToken() public view override returns (uint256) {\r\n        if (_totalSupply == 0) {\r\n            return rewardPerTokenStored;\r\n        }\r\n        return\r\n            rewardPerTokenStored.add(\r\n                lastTimeRewardApplicable()\r\n                    .sub(lastUpdateTime)\r\n                    .mul(rewardRate)\r\n                    .mul(1e18)\r\n                    .div(_totalSupply)\r\n            );\r\n    }\r\n\r\n    function earned(address account) public view override returns (uint256) {\r\n        return\r\n            _balances[account]\r\n                .mul(rewardPerToken().sub(userRewardPerTokenPaid[account]))\r\n                .div(1e18)\r\n                .add(rewards[account]);\r\n    }\r\n\r\n    function getRewardForDuration() external view override returns (uint256) {\r\n        return rewardRate.mul(rewardsDuration);\r\n    }\r\n\r\n    function getStakeRewardDistributionTimeLeft()\r\n        external\r\n        override\r\n        view\r\n        returns (uint256)\r\n    {\r\n        (bool success, uint256 diff) = periodFinish.trySub(block.timestamp);\r\n        return success ? diff : 0;\r\n    }\r\n\r\n    function getStakeUnlockTimeLeft() external override view returns (uint256) {\r\n        (bool success, uint256 diff) =\r\n            _stakeTimestamp[msg.sender].add(minimumStakeTime).trySub(\r\n                block.timestamp\r\n            );\r\n        return success ? diff : 0;\r\n    }\r\n\r\n    /* ========== MUTATIVE FUNCTIONS ========== */\r\n\r\n    function stake(uint256 amount)\r\n        external\r\n        override\r\n        normalMode\r\n        nonReentrant\r\n        notPaused\r\n        updateReward(msg.sender)\r\n    {\r\n        require(amount >= minimumStakeAmount, \"Minimum stake amount required\");\r\n        _totalSupply = _totalSupply.add(amount);\r\n        _balances[msg.sender] = _balances[msg.sender].add(amount);\r\n        if (_stakeTimestamp[msg.sender] == 0) {\r\n            _stakeTimestamp[msg.sender] = block.timestamp;\r\n        }\r\n        stakingToken.safeTransferFrom(msg.sender, address(this), amount);\r\n        emit Staked(msg.sender, amount);\r\n    }\r\n\r\n    function withdraw(uint256 amount)\r\n        public\r\n        override\r\n        normalMode\r\n        nonReentrant\r\n        updateReward(msg.sender)\r\n    {\r\n        require(amount > 0, \"Cannot withdraw 0\");\r\n        require(\r\n            minimumStakeTime == 0 ||\r\n                block.timestamp.sub(_stakeTimestamp[msg.sender]) >=\r\n                minimumStakeTime,\r\n            \"Cannot withdraw until minimum staking time has passed\"\r\n        );\r\n        _totalSupply = _totalSupply.sub(amount);\r\n        _balances[msg.sender] = _balances[msg.sender].sub(amount);\r\n        if (_balances[msg.sender] == 0) {\r\n            _stakeTimestamp[msg.sender] = 0;\r\n        }\r\n        stakingToken.safeTransfer(msg.sender, amount);\r\n        emit Withdrawn(msg.sender, amount);\r\n    }\r\n\r\n    function getReward()\r\n        public\r\n        override\r\n        normalMode\r\n        nonReentrant\r\n        updateReward(msg.sender)\r\n    {\r\n        require(\r\n            minimumStakeTime == 0 ||\r\n                block.timestamp.sub(_stakeTimestamp[msg.sender]) >=\r\n                minimumStakeTime,\r\n            \"Cannot get reward until minimum staking time has passed\"\r\n        );\r\n        uint256 reward = rewards[msg.sender];\r\n        if (reward > 0) {\r\n            rewards[msg.sender] = 0;\r\n            rewardsToken.safeTransfer(msg.sender, reward);\r\n            emit RewardPaid(msg.sender, reward);\r\n        }\r\n    }\r\n\r\n    function exit() external override normalMode {\r\n        withdraw(_balances[msg.sender]);\r\n        getReward();\r\n    }\r\n\r\n    function recoverOwnStake() external failsafeMode {\r\n        uint256 amount = _balances[msg.sender];\r\n        if (amount > 0) {\r\n            _totalSupply = _totalSupply.sub(amount);\r\n            _balances[msg.sender] = _balances[msg.sender].sub(amount);\r\n            stakingToken.safeTransfer(msg.sender, amount);\r\n        }\r\n    }\r\n\r\n    /* ========== RESTRICTED FUNCTIONS ========== */\r\n\r\n    function notifyRewardAmount(uint256 reward)\r\n        external\r\n        override\r\n        normalMode\r\n        onlyRewardsDistribution\r\n        updateReward(address(0))\r\n    {\r\n        if (block.timestamp >= periodFinish) {\r\n            rewardRate = reward.div(rewardsDuration);\r\n        } else {\r\n            uint256 remaining = periodFinish.sub(block.timestamp);\r\n            uint256 leftover = remaining.mul(rewardRate);\r\n            rewardRate = reward.add(leftover).div(rewardsDuration);\r\n        }\r\n\r\n        // Ensure the provided reward amount is not more than the balance in the contract.\r\n        // This keeps the reward rate in the right range, preventing overflows due to\r\n        // very high values of rewardRate in the earned and rewardsPerToken functions;\r\n        // Reward + leftover must be less than 2^256 / 10^18 to avoid overflow.\r\n        uint256 balance = rewardsToken.balanceOf(address(this));\r\n        require(\r\n            rewardRate <= balance.div(rewardsDuration),\r\n            \"Provided reward too high\"\r\n        );\r\n\r\n        lastUpdateTime = block.timestamp;\r\n        periodFinish = block.timestamp.add(rewardsDuration);\r\n        emit RewardAdded(reward);\r\n    }\r\n\r\n    // End rewards emission earlier\r\n    function updatePeriodFinish(uint256 timestamp)\r\n        external\r\n        normalMode\r\n        onlyOwner\r\n        updateReward(address(0))\r\n    {\r\n        require(\r\n            timestamp > lastUpdateTime,\r\n            \"Timestamp must be after lastUpdateTime\"\r\n        );\r\n        periodFinish = timestamp;\r\n    }\r\n\r\n    // Added to support recovering LP Rewards from other systems such as BAL to be distributed to holders\r\n    function recoverERC20(address tokenAddress, uint256 tokenAmount)\r\n        external\r\n        onlyOwner\r\n    {\r\n        require(\r\n            tokenAddress != address(stakingToken),\r\n            \"Cannot withdraw the staking token\"\r\n        );\r\n        IERC20(tokenAddress).safeTransfer(owner, tokenAmount);\r\n        emit Recovered(tokenAddress, tokenAmount);\r\n    }\r\n\r\n    function setRewardsDuration(uint256 _rewardsDuration)\r\n        external\r\n        normalMode\r\n        onlyOwner\r\n    {\r\n        require(\r\n            block.timestamp > periodFinish,\r\n            \"Previous rewards period must be complete before changing the duration for the new period\"\r\n        );\r\n        rewardsDuration = _rewardsDuration;\r\n        emit RewardsDurationUpdated(rewardsDuration);\r\n    }\r\n\r\n    function setMinimumStakeAmount(uint256 _minimumStakeAmount)\r\n        external\r\n        normalMode\r\n        onlyOwner\r\n    {\r\n        minimumStakeAmount = _minimumStakeAmount;\r\n        emit MinimumStakeAmountUpdated(_minimumStakeAmount);\r\n    }\r\n\r\n    function setMinimumStakeTime(uint256 _minimumStakeTime)\r\n        external\r\n        normalMode\r\n        onlyOwner\r\n    {\r\n        minimumStakeTime = _minimumStakeTime;\r\n        emit MinimumStakeTimeUpdated(_minimumStakeTime);\r\n    }\r\n\r\n    function enableFailsafeMode() public override normalMode onlyOwner {\r\n        minimumStakeAmount = 0;\r\n        minimumStakeTime = 0;\r\n        periodFinish = 0;\r\n        rewardRate = 0;\r\n        rewardPerTokenStored = 0;\r\n\r\n        super.enableFailsafeMode();\r\n    }\r\n\r\n    function recoverExtraStakingTokensToOwner() external onlyOwner {\r\n        // stake() and withdraw() should guarantee that\r\n        // _totalSupply <= stakingToken.balanceOf(this)\r\n        uint256 stakingTokenAmountBelongingToOwner =\r\n            stakingToken.balanceOf(address(this)).sub(_totalSupply);\r\n\r\n        if (stakingTokenAmountBelongingToOwner > 0) {\r\n            stakingToken.safeTransfer(\r\n                owner,\r\n                stakingTokenAmountBelongingToOwner\r\n            );\r\n        }\r\n    }\r\n\r\n    /* ========== MODIFIERS ========== */\r\n\r\n    modifier updateReward(address account) {\r\n        if (!failsafeModeActive) {\r\n            rewardPerTokenStored = rewardPerToken();\r\n            lastUpdateTime = lastTimeRewardApplicable();\r\n            if (account != address(0)) {\r\n                rewards[account] = earned(account);\r\n                userRewardPerTokenPaid[account] = rewardPerTokenStored;\r\n            }\r\n        }\r\n        _;\r\n    }\r\n\r\n    /* ========== EVENTS ========== */\r\n\r\n    event RewardAdded(uint256 reward);\r\n    event Staked(address indexed user, uint256 amount);\r\n    event Withdrawn(address indexed user, uint256 amount);\r\n    event RewardPaid(address indexed user, uint256 reward);\r\n    event RewardsDurationUpdated(uint256 newDuration);\r\n    event MinimumStakeAmountUpdated(uint256 newMinimumStakeAmount);\r\n    event MinimumStakeTimeUpdated(uint256 newMinimumStakeTime);\r\n    event Recovered(address token, uint256 amount);\r\n}\r\n",
  "sourcePath": "C:\\Users\\Dan\\Desktop\\code\\pessoal\\CB_original\\cryptoblades\\contracts\\staking\\StakingRewards.sol",
  "compiler": {
    "name": "solc",
    "version": "0.6.5+commit.f956cc89.Emscripten.clang"
  },
  "schemaVersion": "3.3.4",
  "updatedAt": "2021-08-09T12:18:07.043Z",
  "devdoc": {
    "methods": {
      "setPaused(bool)": {
        "details": "Only the contract owner may call this."
      }
    }
  },
  "userdoc": {
    "methods": {
      "setPaused(bool)": {
        "notice": "Change the paused state of the contract"
      }
    }
  }
}